{"contracts/SupplyChain.sol":{"SupplyChain":{"abi":[{"inputs":[],"stateMutability":"nonpayable","type":"constructor"},{"anonymous":false,"inputs":[{"indexed":true,"internalType":"uint256","name":"id","type":"uint256"},{"indexed":true,"internalType":"address","name":"manufacturer","type":"address"},{"indexed":false,"internalType":"uint256","name":"timestamp","type":"uint256"}],"name":"MedicineCreated","type":"event"},{"anonymous":false,"inputs":[{"indexed":false,"internalType":"string","name":"role","type":"string"},{"indexed":true,"internalType":"address","name":"participant","type":"address"},{"indexed":false,"internalType":"uint256","name":"id","type":"uint256"},{"indexed":false,"internalType":"uint256","name":"timestamp","type":"uint256"}],"name":"ParticipantRegistered","type":"event"},{"anonymous":false,"inputs":[{"indexed":true,"internalType":"uint256","name":"id","type":"uint256"},{"indexed":false,"internalType":"enum SupplyChain.STAGE","name":"stage","type":"uint8"},{"indexed":true,"internalType":"address","name":"updatedBy","type":"address"},{"indexed":false,"internalType":"uint256","name":"timestamp","type":"uint256"}],"name":"StageUpdated","type":"event"},{"inputs":[{"internalType":"uint256","name":"","type":"uint256"}],"name":"DIS","outputs":[{"internalType":"address","name":"addr","type":"address"},{"internalType":"uint256","name":"id","type":"uint256"},{"internalType":"string","name":"name","type":"string"},{"internalType":"string","name":"place","type":"string"}],"stateMutability":"view","type":"function"},{"inputs":[{"internalType":"uint256","name":"","type":"uint256"}],"name":"MAN","outputs":[{"internalType":"address","name":"addr","type":"address"},{"internalType":"uint256","name":"id","type":"uint256"},{"internalType":"string","name":"name","type":"string"},{"internalType":"string","name":"place","type":"string"}],"stateMutability":"view","type":"function"},{"inputs":[{"internalType":"uint256","name":"","type":"uint256"}],"name":"MedicineStock","outputs":[{"internalType":"uint256","name":"id","type":"uint256"},{"internalType":"address","name":"manufacturer","type":"address"},{"internalType":"address","name":"distributor","type":"address"},{"internalType":"address","name":"retailer","type":"address"},{"internalType":"enum SupplyChain.STAGE","name":"stage","type":"uint8"},{"internalType":"uint256","name":"createdAt","type":"uint256"},{"internalType":"uint256","name":"updatedAt","type":"uint256"},{"internalType":"uint256","name":"MANid","type":"uint256"},{"internalType":"uint256","name":"DISid","type":"uint256"},{"internalType":"uint256","name":"RETid","type":"uint256"}],"stateMutability":"view","type":"function"},{"inputs":[],"name":"Owner","outputs":[{"internalType":"address","name":"","type":"address"}],"stateMutability":"view","type":"function"},{"inputs":[{"internalType":"uint256","name":"","type":"uint256"}],"name":"RET","outputs":[{"internalType":"address","name":"addr","type":"address"},{"internalType":"uint256","name":"id","type":"uint256"},{"internalType":"string","name":"name","type":"string"},{"internalType":"string","name":"place","type":"string"}],"stateMutability":"view","type":"function"},{"inputs":[{"internalType":"address","name":"_address","type":"address"},{"internalType":"string","name":"_name","type":"string"},{"internalType":"string","name":"_place","type":"string"}],"name":"addDistributor","outputs":[],"stateMutability":"nonpayable","type":"function"},{"inputs":[{"internalType":"address","name":"_address","type":"address"},{"internalType":"string","name":"_name","type":"string"},{"internalType":"string","name":"_place","type":"string"}],"name":"addManufacturer","outputs":[],"stateMutability":"nonpayable","type":"function"},{"inputs":[],"name":"addMedicine","outputs":[{"internalType":"uint256","name":"","type":"uint256"}],"stateMutability":"nonpayable","type":"function"},{"inputs":[{"internalType":"address","name":"_address","type":"address"},{"internalType":"string","name":"_name","type":"string"},{"internalType":"string","name":"_place","type":"string"}],"name":"addRetailer","outputs":[],"stateMutability":"nonpayable","type":"function"},{"inputs":[{"internalType":"address","name":"","type":"address"}],"name":"disAddressToId","outputs":[{"internalType":"uint256","name":"","type":"uint256"}],"stateMutability":"view","type":"function"},{"inputs":[],"name":"disCtr","outputs":[{"internalType":"uint256","name":"","type":"uint256"}],"stateMutability":"view","type":"function"},{"inputs":[{"internalType":"uint256","name":"_id","type":"uint256"}],"name":"getDistributor","outputs":[{"internalType":"address","name":"addr","type":"address"},{"internalType":"uint256","name":"id","type":"uint256"},{"internalType":"string","name":"name","type":"string"},{"internalType":"string","name":"place","type":"string"}],"stateMutability":"view","type":"function"},{"inputs":[],"name":"getDistributorCount","outputs":[{"internalType":"uint256","name":"","type":"uint256"}],"stateMutability":"view","type":"function"},{"inputs":[{"internalType":"uint256","name":"_id","type":"uint256"}],"name":"getManufacturer","outputs":[{"internalType":"address","name":"addr","type":"address"},{"internalType":"uint256","name":"id","type":"uint256"},{"internalType":"string","name":"name","type":"string"},{"internalType":"string","name":"place","type":"string"}],"stateMutability":"view","type":"function"},{"inputs":[],"name":"getManufacturerCount","outputs":[{"internalType":"uint256","name":"","type":"uint256"}],"stateMutability":"view","type":"function"},{"inputs":[{"internalType":"uint256","name":"_id","type":"uint256"}],"name":"getMedicine","outputs":[{"internalType":"uint256","name":"id","type":"uint256"},{"internalType":"address","name":"manufacturer","type":"address"},{"internalType":"address","name":"distributor","type":"address"},{"internalType":"address","name":"retailer","type":"address"},{"internalType":"enum SupplyChain.STAGE","name":"stage","type":"uint8"},{"internalType":"uint256","name":"createdAt","type":"uint256"},{"internalType":"uint256","name":"updatedAt","type":"uint256"},{"internalType":"uint256","name":"MANid","type":"uint256"},{"internalType":"uint256","name":"DISid","type":"uint256"},{"internalType":"uint256","name":"RETid","type":"uint256"}],"stateMutability":"view","type":"function"},{"inputs":[],"name":"getMedicineCount","outputs":[{"internalType":"uint256","name":"","type":"uint256"}],"stateMutability":"view","type":"function"},{"inputs":[{"internalType":"uint256","name":"_id","type":"uint256"}],"name":"getMedicineStage","outputs":[{"internalType":"enum SupplyChain.STAGE","name":"","type":"uint8"}],"stateMutability":"view","type":"function"},{"inputs":[{"internalType":"uint256","name":"_id","type":"uint256"}],"name":"getRetailer","outputs":[{"internalType":"address","name":"addr","type":"address"},{"internalType":"uint256","name":"id","type":"uint256"},{"internalType":"string","name":"name","type":"string"},{"internalType":"string","name":"place","type":"string"}],"stateMutability":"view","type":"function"},{"inputs":[],"name":"getRetailerCount","outputs":[{"internalType":"uint256","name":"","type":"uint256"}],"stateMutability":"view","type":"function"},{"inputs":[{"internalType":"address","name":"_addr","type":"address"}],"name":"getRole","outputs":[{"internalType":"string","name":"","type":"string"}],"stateMutability":"view","type":"function"},{"inputs":[{"internalType":"address","name":"_addr","type":"address"}],"name":"isDistributor","outputs":[{"internalType":"bool","name":"","type":"bool"}],"stateMutability":"view","type":"function"},{"inputs":[{"internalType":"address","name":"_addr","type":"address"}],"name":"isManufacturer","outputs":[{"internalType":"bool","name":"","type":"bool"}],"stateMutability":"view","type":"function"},{"inputs":[{"internalType":"address","name":"_addr","type":"address"}],"name":"isRetailer","outputs":[{"internalType":"bool","name":"","type":"bool"}],"stateMutability":"view","type":"function"},{"inputs":[{"internalType":"address","name":"","type":"address"}],"name":"manAddressToId","outputs":[{"internalType":"uint256","name":"","type":"uint256"}],"stateMutability":"view","type":"function"},{"inputs":[],"name":"manCtr","outputs":[{"internalType":"uint256","name":"","type":"uint256"}],"stateMutability":"view","type":"function"},{"inputs":[],"name":"medicineCtr","outputs":[{"internalType":"uint256","name":"","type":"uint256"}],"stateMutability":"view","type":"function"},{"inputs":[{"internalType":"uint256","name":"_id","type":"uint256"}],"name":"pack","outputs":[],"stateMutability":"nonpayable","type":"function"},{"inputs":[{"internalType":"uint256","name":"_id","type":"uint256"}],"name":"receiveByDistributor","outputs":[],"stateMutability":"nonpayable","type":"function"},{"inputs":[{"internalType":"uint256","name":"_id","type":"uint256"}],"name":"receiveByRetailer","outputs":[],"stateMutability":"nonpayable","type":"function"},{"inputs":[{"internalType":"address","name":"","type":"address"}],"name":"retAddressToId","outputs":[{"internalType":"uint256","name":"","type":"uint256"}],"stateMutability":"view","type":"function"},{"inputs":[],"name":"retCtr","outputs":[{"internalType":"uint256","name":"","type":"uint256"}],"stateMutability":"view","type":"function"},{"inputs":[{"internalType":"uint256","name":"_id","type":"uint256"}],"name":"sell","outputs":[],"stateMutability":"nonpayable","type":"function"},{"inputs":[{"internalType":"uint256","name":"_id","type":"uint256"},{"internalType":"uint256","name":"_distributorId","type":"uint256"}],"name":"shipToDistributor","outputs":[],"stateMutability":"nonpayable","type":"function"},{"inputs":[{"internalType":"uint256","name":"_id","type":"uint256"},{"internalType":"uint256","name":"_retailerId","type":"uint256"}],"name":"shipToRetailer","outputs":[],"stateMutability":"nonpayable","type":"function"}],"evm":{"bytecode":{"linkReferences":{},"object":"6080604052600060015560006002556000600355600060045534801561002457600080fd5b50600080546001600160a01b03191633179055612562806100466000396000f3fe608060405234801561001057600080fd5b50600436106102115760003560e01c806389d86c5d11610125578063baf6430d116100ad578063eadeb84c1161007c578063eadeb84c146104d9578063eb1a06b5146104e1578063ed0b6d9c14610551578063f5e967f814610571578063f6edf18c1461059157600080fd5b8063baf6430d1461048d578063cc403069146104a0578063e4849b32146104b3578063e797313f146104c657600080fd5b8063a888a684116100f4578063a888a6841461042b578063a9416c9e1461043e578063a95f29d914610446578063b4a99a4e1461044f578063b527fb791461047a57600080fd5b806389d86c5d146103bc5780638f0c86fa146103cf578063994cac90146103fa578063a67422651461040257600080fd5b806351542bd4116101a857806360166fe31161017757806360166fe3146103675780636a992c9f1461037a5780636ea425551461038d5780637e43d94d146103a0578063857ddb04146103a957600080fd5b806351542bd41461030157806359bf286f146103095780635cf723a31461031c5780635da09b881461033c57600080fd5b80632b0187ac116101e45780632b0187ac146102ac5780632bdb2e6b146102cf578063438e9c4d146102d857806344276733146102e157600080fd5b806302d82c551461021657806317d4a4911461022b578063221aa3521461026b5780632a4af44014610299575b600080fd5b610229610224366004611f41565b610599565b005b610256610239366004611f76565b6001600160a01b0316600090815260096020526040902054151590565b60405190151581526020015b60405180910390f35b61028b610279366004611f76565b60096020526000908152604090205481565b604051908152602001610262565b6102296102a736600461203b565b61076a565b6102bf6102ba366004611f41565b610918565b60405161026294939291906120f5565b61028b60035481565b61028b60025481565b6102f46102ef366004611f76565b610a5b565b6040516102629190612139565b61028b610b82565b6102bf610317366004611f41565b610d1e565b61032f61032a366004611f41565b610d50565b6040516102629190612184565b61025661034a366004611f76565b6001600160a01b03166000908152600b6020526040902054151590565b6102bf610375366004611f41565b610d9f565b61022961038836600461203b565b610f7a565b61022961039b366004611f41565b611121565b61028b60045481565b6102296103b736600461203b565b6112d9565b6102bf6103ca366004611f41565b61147b565b6102566103dd366004611f76565b6001600160a01b03166000908152600a6020526040902054151590565b60045461028b565b610415610410366004611f41565b61151b565b6040516102629a99989796959493929190612198565b6102296104393660046121fa565b611669565b60025461028b565b61028b60015481565b600054610462906001600160a01b031681565b6040516001600160a01b039091168152602001610262565b6102bf610488366004611f41565b6118be565b61022961049b366004611f41565b611968565b6102bf6104ae366004611f41565b611b1d565b6102296104c1366004611f41565b611b4f565b6102296104d43660046121fa565b611d04565b60015461028b565b6104156104ef366004611f41565b600560208190526000918252604090912080546001820154600283015460038401546004850154958501546006860154600787015460089097015495976001600160a01b03958616979486169695841695600160a01b90940460ff169490938a565b61028b61055f366004611f76565b600a6020526000908152604090205481565b61028b61057f366004611f76565b600b6020526000908152604090205481565b60035461028b565b336000908152600a60205260409020546105ce5760405162461bcd60e51b81526004016105c59061221c565b60405180910390fd5b6000811180156105e057506001548111155b6105fc5760405162461bcd60e51b81526004016105c59061226f565b6002600082815260056020526040902060030154600160a01b900460ff16600681111561062b5761062b61214c565b1461068f5760405162461bcd60e51b815260206004820152602e60248201527f4d65646963696e65206d75737420626520696e2053686970706564546f44697360448201526d7472696275746f7220737461676560901b60648201526084016105c5565b6000818152600560205260409020600201546001600160a01b0316331461070f5760405162461bcd60e51b815260206004820152602e60248201527f4f6e6c79207468652061737369676e6564206469737472696275746f7220636160448201526d6e2072656365697665207468697360901b60648201526084016105c5565b6000818152600560208190526040918290206003808201805460ff60a01b1916600360a01b179055429190920181905591513392849260008051602061250d8339815191529261075f929061229c565b60405180910390a350565b6000546001600160a01b031633146107945760405162461bcd60e51b81526004016105c5906122b7565b6001600160a01b0383166000908152600a6020526040902054156107fa5760405162461bcd60e51b815260206004820152601e60248201527f4469737472696275746f7220616c72656164792072656769737465726564000060448201526064016105c5565b6003805490600061080a836122f8565b9091555050604080516080810182526001600160a01b0385811682526003546020808401828152848601888152606086018890526000938452600790925294909120835181546001600160a01b0319169316929092178255925160018201559151909190600282019061087d90826123a8565b506060820151600382019061089290826123a8565b50506003546001600160a01b0385166000818152600a602090815260409182902084905581516060808252600b908201526a2234b9ba3934b13aba37b960a91b608082015290810193909352429083015291507f23a9f014965ba86132366af52ecb128b27c75542a5b4659b6557d5cf25a2884c9060a0015b60405180910390a2505050565b6007602052600090815260409020805460018201546002830180546001600160a01b0390931693919261094a9061231f565b80601f01602080910402602001604051908101604052809291908181526020018280546109769061231f565b80156109c35780601f10610998576101008083540402835291602001916109c3565b820191906000526020600020905b8154815290600101906020018083116109a657829003601f168201915b5050505050908060030180546109d89061231f565b80601f0160208091040260200160405190810160405280929190818152602001828054610a049061231f565b8015610a515780601f10610a2657610100808354040283529160200191610a51565b820191906000526020600020905b815481529060010190602001808311610a3457829003601f168201915b5050505050905084565b6000546060906001600160a01b0390811690831603610a9557505060408051808201909152600581526427bbb732b960d91b602082015290565b6001600160a01b03821660009081526009602052604090205415610adb57505060408051808201909152600c81526b26b0b73ab330b1ba3ab932b960a11b602082015290565b6001600160a01b0382166000908152600a602052604090205415610b2057505060408051808201909152600b81526a2234b9ba3934b13aba37b960a91b602082015290565b6001600160a01b0382166000908152600b602052604090205415610b625750506040805180820190915260088152672932ba30b4b632b960c11b602082015290565b50506040805180820190915260048152634e6f6e6560e01b602082015290565b33600090815260096020526040812054610bae5760405162461bcd60e51b81526004016105c590612468565b60018054906000610bbe836122f8565b9091555050604080516101408101825260018054808352336020808501828152600086880181815260608801828152608089018381524260a08b0181905260c08b0152958352600985528983205460e08a01526101008901839052610120890183905295825260059093529690962085518155955193860180546001600160a01b03199081166001600160a01b0396871617909155905160028701805483169186169190911790559151600386018054938416919094169081178455905193949392916001600160a81b03191617600160a01b836006811115610ca357610ca361214c565b021790555060a0820151600482015560c0820151600582015560e082015160068201556101008201516007820155610120909101516008909101556001546040514281523391907f6ac99a0d37fc8f971d56b54fd2cb2aa9a5f6ef52eb1ea570ca7ee2f8e8e7e0059060200160405180910390a35060015490565b6008602052600090815260409020805460018201546002830180546001600160a01b0390931693919261094a9061231f565b60008082118015610d6357506001548211155b610d7f5760405162461bcd60e51b81526004016105c59061226f565b50600090815260056020526040902060030154600160a01b900460ff1690565b600080606080600085118015610db757506003548511155b610dfc5760405162461bcd60e51b8152602060048201526016602482015275125b9d985b1a5908191a5cdd1c9a589d5d1bdc88125160521b60448201526064016105c5565b6000858152600760209081526040808320815160808101835281546001600160a01b031681526001820154938101939093526002810180549192840191610e429061231f565b80601f0160208091040260200160405190810160405280929190818152602001828054610e6e9061231f565b8015610ebb5780601f10610e9057610100808354040283529160200191610ebb565b820191906000526020600020905b815481529060010190602001808311610e9e57829003601f168201915b50505050508152602001600382018054610ed49061231f565b80601f0160208091040260200160405190810160405280929190818152602001828054610f009061231f565b8015610f4d5780601f10610f2257610100808354040283529160200191610f4d565b820191906000526020600020905b815481529060010190602001808311610f3057829003601f168201915b505050919092525050815160208301516040840151606090940151919a9099509297509550909350505050565b6000546001600160a01b03163314610fa45760405162461bcd60e51b81526004016105c5906122b7565b6001600160a01b0383166000908152600960205260409020541561100a5760405162461bcd60e51b815260206004820152601f60248201527f4d616e75666163747572657220616c726561647920726567697374657265640060448201526064016105c5565b6002805490600061101a836122f8565b9091555050604080516080810182526001600160a01b038581168252600280546020808501828152858701898152606087018990526000938452600690925295909120845181546001600160a01b0319169416939093178355935160018301559251919290919082019061108e90826123a8565b50606082015160038201906110a390826123a8565b50506002546001600160a01b03851660008181526009602090815260409182902084905581516060808252600c908201526b26b0b73ab330b1ba3ab932b960a11b608082015290810193909352429083015291507f23a9f014965ba86132366af52ecb128b27c75542a5b4659b6557d5cf25a2884c9060a00161090b565b3360009081526009602052604090205461114d5760405162461bcd60e51b81526004016105c590612468565b60008111801561115f57506001548111155b61117b5760405162461bcd60e51b81526004016105c59061226f565b60008082815260056020526040902060030154600160a01b900460ff1660068111156111a9576111a961214c565b146112055760405162461bcd60e51b815260206004820152602660248201527f4d65646963696e65206d75737420626520696e204d616e75666163747572656460448201526520737461676560d01b60648201526084016105c5565b6000818152600560205260409020600101546001600160a01b031633146112895760405162461bcd60e51b815260206004820152603260248201527f4f6e6c7920746865206d616e7566616374757265722077686f2063726561746560448201527119081d1a1a5cc818d85b881c1858dac81a5d60721b60648201526084016105c5565b60008181526005602081905260409182902060038101805460ff60a01b1916600160a01b17905542910181905590513391839160008051602061250d8339815191529161075f916001919061229c565b6000546001600160a01b031633146113035760405162461bcd60e51b81526004016105c5906122b7565b6001600160a01b0383166000908152600b6020526040902054156113695760405162461bcd60e51b815260206004820152601b60248201527f52657461696c657220616c72656164792072656769737465726564000000000060448201526064016105c5565b60048054906000611379836122f8565b9091555050604080516080810182526001600160a01b0385811682526004546020808401828152848601888152606086018890526000938452600890925294909120835181546001600160a01b031916931692909217825592516001820155915190919060028201906113ec90826123a8565b506060820151600382019061140190826123a8565b50506004546001600160a01b0385166000818152600b602090815260409182902084905581516060808252600890820152672932ba30b4b632b960c11b608082015290810193909352429083015291507f23a9f014965ba86132366af52ecb128b27c75542a5b4659b6557d5cf25a2884c9060a00161090b565b60008060608060008511801561149357506004548511155b6114d55760405162461bcd60e51b8152602060048201526013602482015272125b9d985b1a59081c995d185a5b195c881251606a1b60448201526064016105c5565b6000858152600860209081526040808320815160808101835281546001600160a01b031681526001820154938101939093526002810180549192840191610e429061231f565b60008060008060008060008060008060008b11801561153c57506001548b11155b6115585760405162461bcd60e51b81526004016105c59061226f565b60008b81526005602090815260408083208151610140810183528154815260018201546001600160a01b039081169482019490945260028201548416928101929092526003810154928316606083015290916080830190600160a01b900460ff1660068111156115ca576115ca61214c565b60068111156115db576115db61214c565b8152602001600482015481526020016005820154815260200160068201548152602001600782015481526020016008820154815250509050806000015181602001518260400151836060015184608001518560a001518660c001518760e001518861010001518961012001519a509a509a509a509a509a509a509a509a509a50509193959799509193959799565b336000908152600a60205260409020546116955760405162461bcd60e51b81526004016105c59061221c565b6000821180156116a757506001548211155b6116c35760405162461bcd60e51b81526004016105c59061226f565b6003600083815260056020526040902060030154600160a01b900460ff1660068111156116f2576116f261214c565b146117575760405162461bcd60e51b815260206004820152602f60248201527f4d65646963696e65206d75737420626520696e2052656365697665644279446960448201526e737472696275746f7220737461676560881b60648201526084016105c5565b6000828152600560205260409020600201546001600160a01b031633146117d45760405162461bcd60e51b815260206004820152602b60248201527f4f6e6c79207468652061737369676e6564206469737472696275746f7220636160448201526a6e2073686970207468697360a81b60648201526084016105c5565b6000811180156117e657506004548111155b6118285760405162461bcd60e51b8152602060048201526013602482015272125b9d985b1a59081c995d185a5b195c881251606a1b60448201526064016105c5565b6000828152600560208181526040808420600381018054600160a21b60ff60a01b19821681178355888852600880875285892054988b9052958790526001600160a01b039097166001600160a81b0319909116179095179094559083018490554292909101829055513391849160008051602061250d833981519152916118b2916004919061229c565b60405180910390a35050565b6000806060806000851180156118d657506002548511155b6119225760405162461bcd60e51b815260206004820152601760248201527f496e76616c6964206d616e75666163747572657220494400000000000000000060448201526064016105c5565b6000858152600660209081526040808320815160808101835281546001600160a01b031681526001820154938101939093526002810180549192840191610e429061231f565b336000908152600b60205260409020546119945760405162461bcd60e51b81526004016105c5906124bc565b6000811180156119a657506001548111155b6119c25760405162461bcd60e51b81526004016105c59061226f565b6004600082815260056020526040902060030154600160a01b900460ff1660068111156119f1576119f161214c565b14611a525760405162461bcd60e51b815260206004820152602b60248201527f4d65646963696e65206d75737420626520696e2053686970706564546f52657460448201526a61696c657220737461676560a81b60648201526084016105c5565b6000818152600560205260409020600301546001600160a01b03163314611acf5760405162461bcd60e51b815260206004820152602b60248201527f4f6e6c79207468652061737369676e65642072657461696c65722063616e207260448201526a656365697665207468697360a81b60648201526084016105c5565b60008181526005602081905260409182902060038101805460ff60a01b1916600560a01b1790554290820181905591513392849260008051602061250d8339815191529261075f929061229c565b6006602052600090815260409020805460018201546002830180546001600160a01b0390931693919261094a9061231f565b336000908152600b6020526040902054611b7b5760405162461bcd60e51b81526004016105c5906124bc565b600081118015611b8d57506001548111155b611ba95760405162461bcd60e51b81526004016105c59061226f565b6005600082815260056020526040902060030154600160a01b900460ff166006811115611bd857611bd861214c565b14611c3a5760405162461bcd60e51b815260206004820152602c60248201527f4d65646963696e65206d75737420626520696e2052656365697665644279526560448201526b7461696c657220737461676560a01b60648201526084016105c5565b6000818152600560205260409020600301546001600160a01b03163314611cb45760405162461bcd60e51b815260206004820152602860248201527f4f6e6c79207468652061737369676e65642072657461696c65722063616e2073604482015267656c6c207468697360c01b60648201526084016105c5565b60008181526005602081905260409182902060038101805460ff60a01b1916600360a11b17905542910181905590513391839160008051602061250d8339815191529161075f916006919061229c565b33600090815260096020526040902054611d305760405162461bcd60e51b81526004016105c590612468565b600082118015611d4257506001548211155b611d5e5760405162461bcd60e51b81526004016105c59061226f565b6001600083815260056020526040902060030154600160a01b900460ff166006811115611d8d57611d8d61214c565b14611dda5760405162461bcd60e51b815260206004820181905260248201527f4d65646963696e65206d75737420626520696e205061636b656420737461676560448201526064016105c5565b6000828152600560205260409020600101546001600160a01b03163314611e5e5760405162461bcd60e51b815260206004820152603260248201527f4f6e6c7920746865206d616e7566616374757265722077686f2063726561746560448201527119081d1a1a5cc818d85b881cda1a5c081a5d60721b60648201526084016105c5565b600081118015611e7057506003548111155b611eb55760405162461bcd60e51b8152602060048201526016602482015275125b9d985b1a5908191a5cdd1c9a589d5d1bdc88125160521b60448201526064016105c5565b600082815260056020818152604080842060038101805460ff60a01b1916600160a11b1790558585526007808452828620549588905292849052600280820180546001600160a01b0319166001600160a01b0390971696909617909555918201859055429190920181905590513392859260008051602061250d833981519152926118b292919061229c565b600060208284031215611f5357600080fd5b5035919050565b80356001600160a01b0381168114611f7157600080fd5b919050565b600060208284031215611f8857600080fd5b611f9182611f5a565b9392505050565b634e487b7160e01b600052604160045260246000fd5b600082601f830112611fbf57600080fd5b813567ffffffffffffffff80821115611fda57611fda611f98565b604051601f8301601f19908116603f0116810190828211818310171561200257612002611f98565b8160405283815286602085880101111561201b57600080fd5b836020870160208301376000602085830101528094505050505092915050565b60008060006060848603121561205057600080fd5b61205984611f5a565b9250602084013567ffffffffffffffff8082111561207657600080fd5b61208287838801611fae565b9350604086013591508082111561209857600080fd5b506120a586828701611fae565b9150509250925092565b6000815180845260005b818110156120d5576020818501810151868301820152016120b9565b506000602082860101526020601f19601f83011685010191505092915050565b60018060a01b038516815283602082015260806040820152600061211c60808301856120af565b828103606084015261212e81856120af565b979650505050505050565b602081526000611f9160208301846120af565b634e487b7160e01b600052602160045260246000fd5b6007811061218057634e487b7160e01b600052602160045260246000fd5b9052565b602081016121928284612162565b92915050565b8a81526001600160a01b038a8116602083015289811660408301528816606082015261014081016121cc6080830189612162565b60a082019690965260c081019490945260e08401929092526101008301526101209091015295945050505050565b6000806040838503121561220d57600080fd5b50508035926020909101359150565b60208082526033908201527f4f6e6c792072656769737465726564206469737472696275746f72732063616e6040820152721031b0b636103a3434b990333ab731ba34b7b760691b606082015260800190565b602080825260139082015272125b9d985b1a59081b59591a58da5b99481251606a1b604082015260600190565b604081016122aa8285612162565b8260208301529392505050565b60208082526021908201527f4f6e6c79206f776e65722063616e2063616c6c20746869732066756e6374696f6040820152603760f91b606082015260800190565b60006001820161231857634e487b7160e01b600052601160045260246000fd5b5060010190565b600181811c9082168061233357607f821691505b60208210810361235357634e487b7160e01b600052602260045260246000fd5b50919050565b601f8211156123a357600081815260208120601f850160051c810160208610156123805750805b601f850160051c820191505b8181101561239f5782815560010161238c565b5050505b505050565b815167ffffffffffffffff8111156123c2576123c2611f98565b6123d6816123d0845461231f565b84612359565b602080601f83116001811461240b57600084156123f35750858301515b600019600386901b1c1916600185901b17855561239f565b600085815260208120601f198616915b8281101561243a5788860151825594840194600190910190840161241b565b50858210156124585787850151600019600388901b60f8161c191681555b5050505050600190811b01905550565b60208082526034908201527f4f6e6c792072656769737465726564206d616e75666163747572657273206361604082015273371031b0b636103a3434b990333ab731ba34b7b760611b606082015260800190565b60208082526030908201527f4f6e6c7920726567697374657265642072657461696c6572732063616e20636160408201526f3636103a3434b990333ab731ba34b7b760811b60608201526080019056fed35079bd9f0d87556b38c1165117ccd975a6b3c2dd3c85342d8c02343bde1d9fa2646970667358221220d2f6643402b4e00e35c09be0abd661ae59929b8a6edb503c4e9e7284eb12cdfb64736f6c63430008130033","opcodes":"PUSH1 0x80 PUSH1 0x40 MSTORE PUSH1 0x0 PUSH1 0x1 SSTORE PUSH1 0x0 PUSH1 0x2 SSTORE PUSH1 0x0 PUSH1 0x3 SSTORE PUSH1 0x0 PUSH1 0x4 SSTORE CALLVALUE DUP1 ISZERO PUSH2 0x24 JUMPI PUSH1 0x0 DUP1 REVERT JUMPDEST POP PUSH1 0x0 DUP1 SLOAD PUSH1 0x1 PUSH1 0x1 PUSH1 0xA0 SHL SUB NOT AND CALLER OR SWAP1 SSTORE PUSH2 0x2562 DUP1 PUSH2 0x46 PUSH1 0x0 CODECOPY PUSH1 0x0 RETURN INVALID PUSH1 0x80 PUSH1 0x40 MSTORE CALLVALUE DUP1 ISZERO PUSH2 0x10 JUMPI PUSH1 0x0 DUP1 REVERT JUMPDEST POP PUSH1 0x4 CALLDATASIZE LT PUSH2 0x211 JUMPI PUSH1 0x0 CALLDATALOAD PUSH1 0xE0 SHR DUP1 PUSH4 0x89D86C5D GT PUSH2 0x125 JUMPI DUP1 PUSH4 0xBAF6430D GT PUSH2 0xAD JUMPI DUP1 PUSH4 0xEADEB84C GT PUSH2 0x7C JUMPI DUP1 PUSH4 0xEADEB84C EQ PUSH2 0x4D9 JUMPI DUP1 PUSH4 0xEB1A06B5 EQ PUSH2 0x4E1 JUMPI DUP1 PUSH4 0xED0B6D9C EQ PUSH2 0x551 JUMPI DUP1 PUSH4 0xF5E967F8 EQ PUSH2 0x571 JUMPI DUP1 PUSH4 0xF6EDF18C EQ PUSH2 0x591 JUMPI PUSH1 0x0 DUP1 REVERT JUMPDEST DUP1 PUSH4 0xBAF6430D EQ PUSH2 0x48D JUMPI DUP1 PUSH4 0xCC403069 EQ PUSH2 0x4A0 JUMPI DUP1 PUSH4 0xE4849B32 EQ PUSH2 0x4B3 JUMPI DUP1 PUSH4 0xE797313F EQ PUSH2 0x4C6 JUMPI PUSH1 0x0 DUP1 REVERT JUMPDEST DUP1 PUSH4 0xA888A684 GT PUSH2 0xF4 JUMPI DUP1 PUSH4 0xA888A684 EQ PUSH2 0x42B JUMPI DUP1 PUSH4 0xA9416C9E EQ PUSH2 0x43E JUMPI DUP1 PUSH4 0xA95F29D9 EQ PUSH2 0x446 JUMPI DUP1 PUSH4 0xB4A99A4E EQ PUSH2 0x44F JUMPI DUP1 PUSH4 0xB527FB79 EQ PUSH2 0x47A JUMPI PUSH1 0x0 DUP1 REVERT JUMPDEST DUP1 PUSH4 0x89D86C5D EQ PUSH2 0x3BC JUMPI DUP1 PUSH4 0x8F0C86FA EQ PUSH2 0x3CF JUMPI DUP1 PUSH4 0x994CAC90 EQ PUSH2 0x3FA JUMPI DUP1 PUSH4 0xA6742265 EQ PUSH2 0x402 JUMPI PUSH1 0x0 DUP1 REVERT JUMPDEST DUP1 PUSH4 0x51542BD4 GT PUSH2 0x1A8 JUMPI DUP1 PUSH4 0x60166FE3 GT PUSH2 0x177 JUMPI DUP1 PUSH4 0x60166FE3 EQ PUSH2 0x367 JUMPI DUP1 PUSH4 0x6A992C9F EQ PUSH2 0x37A JUMPI DUP1 PUSH4 0x6EA42555 EQ PUSH2 0x38D JUMPI DUP1 PUSH4 0x7E43D94D EQ PUSH2 0x3A0 JUMPI DUP1 PUSH4 0x857DDB04 EQ PUSH2 0x3A9 JUMPI PUSH1 0x0 DUP1 REVERT JUMPDEST DUP1 PUSH4 0x51542BD4 EQ PUSH2 0x301 JUMPI DUP1 PUSH4 0x59BF286F EQ PUSH2 0x309 JUMPI DUP1 PUSH4 0x5CF723A3 EQ PUSH2 0x31C JUMPI DUP1 PUSH4 0x5DA09B88 EQ PUSH2 0x33C JUMPI PUSH1 0x0 DUP1 REVERT JUMPDEST DUP1 PUSH4 0x2B0187AC GT PUSH2 0x1E4 JUMPI DUP1 PUSH4 0x2B0187AC EQ PUSH2 0x2AC JUMPI DUP1 PUSH4 0x2BDB2E6B EQ PUSH2 0x2CF JUMPI DUP1 PUSH4 0x438E9C4D EQ PUSH2 0x2D8 JUMPI DUP1 PUSH4 0x44276733 EQ PUSH2 0x2E1 JUMPI PUSH1 0x0 DUP1 REVERT JUMPDEST DUP1 PUSH4 0x2D82C55 EQ PUSH2 0x216 JUMPI DUP1 PUSH4 0x17D4A491 EQ PUSH2 0x22B JUMPI DUP1 PUSH4 0x221AA352 EQ PUSH2 0x26B JUMPI DUP1 PUSH4 0x2A4AF440 EQ PUSH2 0x299 JUMPI JUMPDEST PUSH1 0x0 DUP1 REVERT JUMPDEST PUSH2 0x229 PUSH2 0x224 CALLDATASIZE PUSH1 0x4 PUSH2 0x1F41 JUMP JUMPDEST PUSH2 0x599 JUMP JUMPDEST STOP JUMPDEST PUSH2 0x256 PUSH2 0x239 CALLDATASIZE PUSH1 0x4 PUSH2 0x1F76 JUMP JUMPDEST PUSH1 0x1 PUSH1 0x1 PUSH1 0xA0 SHL SUB AND PUSH1 0x0 SWAP1 DUP2 MSTORE PUSH1 0x9 PUSH1 0x20 MSTORE PUSH1 0x40 SWAP1 KECCAK256 SLOAD ISZERO ISZERO SWAP1 JUMP JUMPDEST PUSH1 0x40 MLOAD SWAP1 ISZERO ISZERO DUP2 MSTORE PUSH1 0x20 ADD JUMPDEST PUSH1 0x40 MLOAD DUP1 SWAP2 SUB SWAP1 RETURN JUMPDEST PUSH2 0x28B PUSH2 0x279 CALLDATASIZE PUSH1 0x4 PUSH2 0x1F76 JUMP JUMPDEST PUSH1 0x9 PUSH1 0x20 MSTORE PUSH1 0x0 SWAP1 DUP2 MSTORE PUSH1 0x40 SWAP1 KECCAK256 SLOAD DUP2 JUMP JUMPDEST PUSH1 0x40 MLOAD SWAP1 DUP2 MSTORE PUSH1 0x20 ADD PUSH2 0x262 JUMP JUMPDEST PUSH2 0x229 PUSH2 0x2A7 CALLDATASIZE PUSH1 0x4 PUSH2 0x203B JUMP JUMPDEST PUSH2 0x76A JUMP JUMPDEST PUSH2 0x2BF PUSH2 0x2BA CALLDATASIZE PUSH1 0x4 PUSH2 0x1F41 JUMP JUMPDEST PUSH2 0x918 JUMP JUMPDEST PUSH1 0x40 MLOAD PUSH2 0x262 SWAP5 SWAP4 SWAP3 SWAP2 SWAP1 PUSH2 0x20F5 JUMP JUMPDEST PUSH2 0x28B PUSH1 0x3 SLOAD DUP2 JUMP JUMPDEST PUSH2 0x28B PUSH1 0x2 SLOAD DUP2 JUMP JUMPDEST PUSH2 0x2F4 PUSH2 0x2EF CALLDATASIZE PUSH1 0x4 PUSH2 0x1F76 JUMP JUMPDEST PUSH2 0xA5B JUMP JUMPDEST PUSH1 0x40 MLOAD PUSH2 0x262 SWAP2 SWAP1 PUSH2 0x2139 JUMP JUMPDEST PUSH2 0x28B PUSH2 0xB82 JUMP JUMPDEST PUSH2 0x2BF PUSH2 0x317 CALLDATASIZE PUSH1 0x4 PUSH2 0x1F41 JUMP JUMPDEST PUSH2 0xD1E JUMP JUMPDEST PUSH2 0x32F PUSH2 0x32A CALLDATASIZE PUSH1 0x4 PUSH2 0x1F41 JUMP JUMPDEST PUSH2 0xD50 JUMP JUMPDEST PUSH1 0x40 MLOAD PUSH2 0x262 SWAP2 SWAP1 PUSH2 0x2184 JUMP JUMPDEST PUSH2 0x256 PUSH2 0x34A CALLDATASIZE PUSH1 0x4 PUSH2 0x1F76 JUMP JUMPDEST PUSH1 0x1 PUSH1 0x1 PUSH1 0xA0 SHL SUB AND PUSH1 0x0 SWAP1 DUP2 MSTORE PUSH1 0xB PUSH1 0x20 MSTORE PUSH1 0x40 SWAP1 KECCAK256 SLOAD ISZERO ISZERO SWAP1 JUMP JUMPDEST PUSH2 0x2BF PUSH2 0x375 CALLDATASIZE PUSH1 0x4 PUSH2 0x1F41 JUMP JUMPDEST PUSH2 0xD9F JUMP JUMPDEST PUSH2 0x229 PUSH2 0x388 CALLDATASIZE PUSH1 0x4 PUSH2 0x203B JUMP JUMPDEST PUSH2 0xF7A JUMP JUMPDEST PUSH2 0x229 PUSH2 0x39B CALLDATASIZE PUSH1 0x4 PUSH2 0x1F41 JUMP JUMPDEST PUSH2 0x1121 JUMP JUMPDEST PUSH2 0x28B PUSH1 0x4 SLOAD DUP2 JUMP JUMPDEST PUSH2 0x229 PUSH2 0x3B7 CALLDATASIZE PUSH1 0x4 PUSH2 0x203B JUMP JUMPDEST PUSH2 0x12D9 JUMP JUMPDEST PUSH2 0x2BF PUSH2 0x3CA CALLDATASIZE PUSH1 0x4 PUSH2 0x1F41 JUMP JUMPDEST PUSH2 0x147B JUMP JUMPDEST PUSH2 0x256 PUSH2 0x3DD CALLDATASIZE PUSH1 0x4 PUSH2 0x1F76 JUMP JUMPDEST PUSH1 0x1 PUSH1 0x1 PUSH1 0xA0 SHL SUB AND PUSH1 0x0 SWAP1 DUP2 MSTORE PUSH1 0xA PUSH1 0x20 MSTORE PUSH1 0x40 SWAP1 KECCAK256 SLOAD ISZERO ISZERO SWAP1 JUMP JUMPDEST PUSH1 0x4 SLOAD PUSH2 0x28B JUMP JUMPDEST PUSH2 0x415 PUSH2 0x410 CALLDATASIZE PUSH1 0x4 PUSH2 0x1F41 JUMP JUMPDEST PUSH2 0x151B JUMP JUMPDEST PUSH1 0x40 MLOAD PUSH2 0x262 SWAP11 SWAP10 SWAP9 SWAP8 SWAP7 SWAP6 SWAP5 SWAP4 SWAP3 SWAP2 SWAP1 PUSH2 0x2198 JUMP JUMPDEST PUSH2 0x229 PUSH2 0x439 CALLDATASIZE PUSH1 0x4 PUSH2 0x21FA JUMP JUMPDEST PUSH2 0x1669 JUMP JUMPDEST PUSH1 0x2 SLOAD PUSH2 0x28B JUMP JUMPDEST PUSH2 0x28B PUSH1 0x1 SLOAD DUP2 JUMP JUMPDEST PUSH1 0x0 SLOAD PUSH2 0x462 SWAP1 PUSH1 0x1 PUSH1 0x1 PUSH1 0xA0 SHL SUB AND DUP2 JUMP JUMPDEST PUSH1 0x40 MLOAD PUSH1 0x1 PUSH1 0x1 PUSH1 0xA0 SHL SUB SWAP1 SWAP2 AND DUP2 MSTORE PUSH1 0x20 ADD PUSH2 0x262 JUMP JUMPDEST PUSH2 0x2BF PUSH2 0x488 CALLDATASIZE PUSH1 0x4 PUSH2 0x1F41 JUMP JUMPDEST PUSH2 0x18BE JUMP JUMPDEST PUSH2 0x229 PUSH2 0x49B CALLDATASIZE PUSH1 0x4 PUSH2 0x1F41 JUMP JUMPDEST PUSH2 0x1968 JUMP JUMPDEST PUSH2 0x2BF PUSH2 0x4AE CALLDATASIZE PUSH1 0x4 PUSH2 0x1F41 JUMP JUMPDEST PUSH2 0x1B1D JUMP JUMPDEST PUSH2 0x229 PUSH2 0x4C1 CALLDATASIZE PUSH1 0x4 PUSH2 0x1F41 JUMP JUMPDEST PUSH2 0x1B4F JUMP JUMPDEST PUSH2 0x229 PUSH2 0x4D4 CALLDATASIZE PUSH1 0x4 PUSH2 0x21FA JUMP JUMPDEST PUSH2 0x1D04 JUMP JUMPDEST PUSH1 0x1 SLOAD PUSH2 0x28B JUMP JUMPDEST PUSH2 0x415 PUSH2 0x4EF CALLDATASIZE PUSH1 0x4 PUSH2 0x1F41 JUMP JUMPDEST PUSH1 0x5 PUSH1 0x20 DUP2 SWAP1 MSTORE PUSH1 0x0 SWAP2 DUP3 MSTORE PUSH1 0x40 SWAP1 SWAP2 KECCAK256 DUP1 SLOAD PUSH1 0x1 DUP3 ADD SLOAD PUSH1 0x2 DUP4 ADD SLOAD PUSH1 0x3 DUP5 ADD SLOAD PUSH1 0x4 DUP6 ADD SLOAD SWAP6 DUP6 ADD SLOAD PUSH1 0x6 DUP7 ADD SLOAD PUSH1 0x7 DUP8 ADD SLOAD PUSH1 0x8 SWAP1 SWAP8 ADD SLOAD SWAP6 SWAP8 PUSH1 0x1 PUSH1 0x1 PUSH1 0xA0 SHL SUB SWAP6 DUP7 AND SWAP8 SWAP5 DUP7 AND SWAP7 SWAP6 DUP5 AND SWAP6 PUSH1 0x1 PUSH1 0xA0 SHL SWAP1 SWAP5 DIV PUSH1 0xFF AND SWAP5 SWAP1 SWAP4 DUP11 JUMP JUMPDEST PUSH2 0x28B PUSH2 0x55F CALLDATASIZE PUSH1 0x4 PUSH2 0x1F76 JUMP JUMPDEST PUSH1 0xA PUSH1 0x20 MSTORE PUSH1 0x0 SWAP1 DUP2 MSTORE PUSH1 0x40 SWAP1 KECCAK256 SLOAD DUP2 JUMP JUMPDEST PUSH2 0x28B PUSH2 0x57F CALLDATASIZE PUSH1 0x4 PUSH2 0x1F76 JUMP JUMPDEST PUSH1 0xB PUSH1 0x20 MSTORE PUSH1 0x0 SWAP1 DUP2 MSTORE PUSH1 0x40 SWAP1 KECCAK256 SLOAD DUP2 JUMP JUMPDEST PUSH1 0x3 SLOAD PUSH2 0x28B JUMP JUMPDEST CALLER PUSH1 0x0 SWAP1 DUP2 MSTORE PUSH1 0xA PUSH1 0x20 MSTORE PUSH1 0x40 SWAP1 KECCAK256 SLOAD PUSH2 0x5CE JUMPI PUSH1 0x40 MLOAD PUSH3 0x461BCD PUSH1 0xE5 SHL DUP2 MSTORE PUSH1 0x4 ADD PUSH2 0x5C5 SWAP1 PUSH2 0x221C JUMP JUMPDEST PUSH1 0x40 MLOAD DUP1 SWAP2 SUB SWAP1 REVERT JUMPDEST PUSH1 0x0 DUP2 GT DUP1 ISZERO PUSH2 0x5E0 JUMPI POP PUSH1 0x1 SLOAD DUP2 GT ISZERO JUMPDEST PUSH2 0x5FC JUMPI PUSH1 0x40 MLOAD PUSH3 0x461BCD PUSH1 0xE5 SHL DUP2 MSTORE PUSH1 0x4 ADD PUSH2 0x5C5 SWAP1 PUSH2 0x226F JUMP JUMPDEST PUSH1 0x2 PUSH1 0x0 DUP3 DUP2 MSTORE PUSH1 0x5 PUSH1 0x20 MSTORE PUSH1 0x40 SWAP1 KECCAK256 PUSH1 0x3 ADD SLOAD PUSH1 0x1 PUSH1 0xA0 SHL SWAP1 DIV PUSH1 0xFF AND PUSH1 0x6 DUP2 GT ISZERO PUSH2 0x62B JUMPI PUSH2 0x62B PUSH2 0x214C JUMP JUMPDEST EQ PUSH2 0x68F JUMPI PUSH1 0x40 MLOAD PUSH3 0x461BCD PUSH1 0xE5 SHL DUP2 MSTORE PUSH1 0x20 PUSH1 0x4 DUP3 ADD MSTORE PUSH1 0x2E PUSH1 0x24 DUP3 ADD MSTORE PUSH32 0x4D65646963696E65206D75737420626520696E2053686970706564546F446973 PUSH1 0x44 DUP3 ADD MSTORE PUSH14 0x7472696275746F72207374616765 PUSH1 0x90 SHL PUSH1 0x64 DUP3 ADD MSTORE PUSH1 0x84 ADD PUSH2 0x5C5 JUMP JUMPDEST PUSH1 0x0 DUP2 DUP2 MSTORE PUSH1 0x5 PUSH1 0x20 MSTORE PUSH1 0x40 SWAP1 KECCAK256 PUSH1 0x2 ADD SLOAD PUSH1 0x1 PUSH1 0x1 PUSH1 0xA0 SHL SUB AND CALLER EQ PUSH2 0x70F JUMPI PUSH1 0x40 MLOAD PUSH3 0x461BCD PUSH1 0xE5 SHL DUP2 MSTORE PUSH1 0x20 PUSH1 0x4 DUP3 ADD MSTORE PUSH1 0x2E PUSH1 0x24 DUP3 ADD MSTORE PUSH32 0x4F6E6C79207468652061737369676E6564206469737472696275746F72206361 PUSH1 0x44 DUP3 ADD MSTORE PUSH14 0x6E20726563656976652074686973 PUSH1 0x90 SHL PUSH1 0x64 DUP3 ADD MSTORE PUSH1 0x84 ADD PUSH2 0x5C5 JUMP JUMPDEST PUSH1 0x0 DUP2 DUP2 MSTORE PUSH1 0x5 PUSH1 0x20 DUP2 SWAP1 MSTORE PUSH1 0x40 SWAP2 DUP3 SWAP1 KECCAK256 PUSH1 0x3 DUP1 DUP3 ADD DUP1 SLOAD PUSH1 0xFF PUSH1 0xA0 SHL NOT AND PUSH1 0x3 PUSH1 0xA0 SHL OR SWAP1 SSTORE TIMESTAMP SWAP2 SWAP1 SWAP3 ADD DUP2 SWAP1 SSTORE SWAP2 MLOAD CALLER SWAP3 DUP5 SWAP3 PUSH1 0x0 DUP1 MLOAD PUSH1 0x20 PUSH2 0x250D DUP4 CODECOPY DUP2 MLOAD SWAP2 MSTORE SWAP3 PUSH2 0x75F SWAP3 SWAP1 PUSH2 0x229C JUMP JUMPDEST PUSH1 0x40 MLOAD DUP1 SWAP2 SUB SWAP1 LOG3 POP JUMP JUMPDEST PUSH1 0x0 SLOAD PUSH1 0x1 PUSH1 0x1 PUSH1 0xA0 SHL SUB AND CALLER EQ PUSH2 0x794 JUMPI PUSH1 0x40 MLOAD PUSH3 0x461BCD PUSH1 0xE5 SHL DUP2 MSTORE PUSH1 0x4 ADD PUSH2 0x5C5 SWAP1 PUSH2 0x22B7 JUMP JUMPDEST PUSH1 0x1 PUSH1 0x1 PUSH1 0xA0 SHL SUB DUP4 AND PUSH1 0x0 SWAP1 DUP2 MSTORE PUSH1 0xA PUSH1 0x20 MSTORE PUSH1 0x40 SWAP1 KECCAK256 SLOAD ISZERO PUSH2 0x7FA JUMPI PUSH1 0x40 MLOAD PUSH3 0x461BCD PUSH1 0xE5 SHL DUP2 MSTORE PUSH1 0x20 PUSH1 0x4 DUP3 ADD MSTORE PUSH1 0x1E PUSH1 0x24 DUP3 ADD MSTORE PUSH32 0x4469737472696275746F7220616C726561647920726567697374657265640000 PUSH1 0x44 DUP3 ADD MSTORE PUSH1 0x64 ADD PUSH2 0x5C5 JUMP JUMPDEST PUSH1 0x3 DUP1 SLOAD SWAP1 PUSH1 0x0 PUSH2 0x80A DUP4 PUSH2 0x22F8 JUMP JUMPDEST SWAP1 SWAP2 SSTORE POP POP PUSH1 0x40 DUP1 MLOAD PUSH1 0x80 DUP2 ADD DUP3 MSTORE PUSH1 0x1 PUSH1 0x1 PUSH1 0xA0 SHL SUB DUP6 DUP2 AND DUP3 MSTORE PUSH1 0x3 SLOAD PUSH1 0x20 DUP1 DUP5 ADD DUP3 DUP2 MSTORE DUP5 DUP7 ADD DUP9 DUP2 MSTORE PUSH1 0x60 DUP7 ADD DUP9 SWAP1 MSTORE PUSH1 0x0 SWAP4 DUP5 MSTORE PUSH1 0x7 SWAP1 SWAP3 MSTORE SWAP5 SWAP1 SWAP2 KECCAK256 DUP4 MLOAD DUP2 SLOAD PUSH1 0x1 PUSH1 0x1 PUSH1 0xA0 SHL SUB NOT AND SWAP4 AND SWAP3 SWAP1 SWAP3 OR DUP3 SSTORE SWAP3 MLOAD PUSH1 0x1 DUP3 ADD SSTORE SWAP2 MLOAD SWAP1 SWAP2 SWAP1 PUSH1 0x2 DUP3 ADD SWAP1 PUSH2 0x87D SWAP1 DUP3 PUSH2 0x23A8 JUMP JUMPDEST POP PUSH1 0x60 DUP3 ADD MLOAD PUSH1 0x3 DUP3 ADD SWAP1 PUSH2 0x892 SWAP1 DUP3 PUSH2 0x23A8 JUMP JUMPDEST POP POP PUSH1 0x3 SLOAD PUSH1 0x1 PUSH1 0x1 PUSH1 0xA0 SHL SUB DUP6 AND PUSH1 0x0 DUP2 DUP2 MSTORE PUSH1 0xA PUSH1 0x20 SWAP1 DUP2 MSTORE PUSH1 0x40 SWAP2 DUP3 SWAP1 KECCAK256 DUP5 SWAP1 SSTORE DUP2 MLOAD PUSH1 0x60 DUP1 DUP3 MSTORE PUSH1 0xB SWAP1 DUP3 ADD MSTORE PUSH11 0x2234B9BA3934B13ABA37B9 PUSH1 0xA9 SHL PUSH1 0x80 DUP3 ADD MSTORE SWAP1 DUP2 ADD SWAP4 SWAP1 SWAP4 MSTORE TIMESTAMP SWAP1 DUP4 ADD MSTORE SWAP2 POP PUSH32 0x23A9F014965BA86132366AF52ECB128B27C75542A5B4659B6557D5CF25A2884C SWAP1 PUSH1 0xA0 ADD JUMPDEST PUSH1 0x40 MLOAD DUP1 SWAP2 SUB SWAP1 LOG2 POP POP POP JUMP JUMPDEST PUSH1 0x7 PUSH1 0x20 MSTORE PUSH1 0x0 SWAP1 DUP2 MSTORE PUSH1 0x40 SWAP1 KECCAK256 DUP1 SLOAD PUSH1 0x1 DUP3 ADD SLOAD PUSH1 0x2 DUP4 ADD DUP1 SLOAD PUSH1 0x1 PUSH1 0x1 PUSH1 0xA0 SHL SUB SWAP1 SWAP4 AND SWAP4 SWAP2 SWAP3 PUSH2 0x94A SWAP1 PUSH2 0x231F JUMP JUMPDEST DUP1 PUSH1 0x1F ADD PUSH1 0x20 DUP1 SWAP2 DIV MUL PUSH1 0x20 ADD PUSH1 0x40 MLOAD SWAP1 DUP2 ADD PUSH1 0x40 MSTORE DUP1 SWAP3 SWAP2 SWAP1 DUP2 DUP2 MSTORE PUSH1 0x20 ADD DUP3 DUP1 SLOAD PUSH2 0x976 SWAP1 PUSH2 0x231F JUMP JUMPDEST DUP1 ISZERO PUSH2 0x9C3 JUMPI DUP1 PUSH1 0x1F LT PUSH2 0x998 JUMPI PUSH2 0x100 DUP1 DUP4 SLOAD DIV MUL DUP4 MSTORE SWAP2 PUSH1 0x20 ADD SWAP2 PUSH2 0x9C3 JUMP JUMPDEST DUP3 ADD SWAP2 SWAP1 PUSH1 0x0 MSTORE PUSH1 0x20 PUSH1 0x0 KECCAK256 SWAP1 JUMPDEST DUP2 SLOAD DUP2 MSTORE SWAP1 PUSH1 0x1 ADD SWAP1 PUSH1 0x20 ADD DUP1 DUP4 GT PUSH2 0x9A6 JUMPI DUP3 SWAP1 SUB PUSH1 0x1F AND DUP3 ADD SWAP2 JUMPDEST POP POP POP POP POP SWAP1 DUP1 PUSH1 0x3 ADD DUP1 SLOAD PUSH2 0x9D8 SWAP1 PUSH2 0x231F JUMP JUMPDEST DUP1 PUSH1 0x1F ADD PUSH1 0x20 DUP1 SWAP2 DIV MUL PUSH1 0x20 ADD PUSH1 0x40 MLOAD SWAP1 DUP2 ADD PUSH1 0x40 MSTORE DUP1 SWAP3 SWAP2 SWAP1 DUP2 DUP2 MSTORE PUSH1 0x20 ADD DUP3 DUP1 SLOAD PUSH2 0xA04 SWAP1 PUSH2 0x231F JUMP JUMPDEST DUP1 ISZERO PUSH2 0xA51 JUMPI DUP1 PUSH1 0x1F LT PUSH2 0xA26 JUMPI PUSH2 0x100 DUP1 DUP4 SLOAD DIV MUL DUP4 MSTORE SWAP2 PUSH1 0x20 ADD SWAP2 PUSH2 0xA51 JUMP JUMPDEST DUP3 ADD SWAP2 SWAP1 PUSH1 0x0 MSTORE PUSH1 0x20 PUSH1 0x0 KECCAK256 SWAP1 JUMPDEST DUP2 SLOAD DUP2 MSTORE SWAP1 PUSH1 0x1 ADD SWAP1 PUSH1 0x20 ADD DUP1 DUP4 GT PUSH2 0xA34 JUMPI DUP3 SWAP1 SUB PUSH1 0x1F AND DUP3 ADD SWAP2 JUMPDEST POP POP POP POP POP SWAP1 POP DUP5 JUMP JUMPDEST PUSH1 0x0 SLOAD PUSH1 0x60 SWAP1 PUSH1 0x1 PUSH1 0x1 PUSH1 0xA0 SHL SUB SWAP1 DUP2 AND SWAP1 DUP4 AND SUB PUSH2 0xA95 JUMPI POP POP PUSH1 0x40 DUP1 MLOAD DUP1 DUP3 ADD SWAP1 SWAP2 MSTORE PUSH1 0x5 DUP2 MSTORE PUSH5 0x27BBB732B9 PUSH1 0xD9 SHL PUSH1 0x20 DUP3 ADD MSTORE SWAP1 JUMP JUMPDEST PUSH1 0x1 PUSH1 0x1 PUSH1 0xA0 SHL SUB DUP3 AND PUSH1 0x0 SWAP1 DUP2 MSTORE PUSH1 0x9 PUSH1 0x20 MSTORE PUSH1 0x40 SWAP1 KECCAK256 SLOAD ISZERO PUSH2 0xADB JUMPI POP POP PUSH1 0x40 DUP1 MLOAD DUP1 DUP3 ADD SWAP1 SWAP2 MSTORE PUSH1 0xC DUP2 MSTORE PUSH12 0x26B0B73AB330B1BA3AB932B9 PUSH1 0xA1 SHL PUSH1 0x20 DUP3 ADD MSTORE SWAP1 JUMP JUMPDEST PUSH1 0x1 PUSH1 0x1 PUSH1 0xA0 SHL SUB DUP3 AND PUSH1 0x0 SWAP1 DUP2 MSTORE PUSH1 0xA PUSH1 0x20 MSTORE PUSH1 0x40 SWAP1 KECCAK256 SLOAD ISZERO PUSH2 0xB20 JUMPI POP POP PUSH1 0x40 DUP1 MLOAD DUP1 DUP3 ADD SWAP1 SWAP2 MSTORE PUSH1 0xB DUP2 MSTORE PUSH11 0x2234B9BA3934B13ABA37B9 PUSH1 0xA9 SHL PUSH1 0x20 DUP3 ADD MSTORE SWAP1 JUMP JUMPDEST PUSH1 0x1 PUSH1 0x1 PUSH1 0xA0 SHL SUB DUP3 AND PUSH1 0x0 SWAP1 DUP2 MSTORE PUSH1 0xB PUSH1 0x20 MSTORE PUSH1 0x40 SWAP1 KECCAK256 SLOAD ISZERO PUSH2 0xB62 JUMPI POP POP PUSH1 0x40 DUP1 MLOAD DUP1 DUP3 ADD SWAP1 SWAP2 MSTORE PUSH1 0x8 DUP2 MSTORE PUSH8 0x2932BA30B4B632B9 PUSH1 0xC1 SHL PUSH1 0x20 DUP3 ADD MSTORE SWAP1 JUMP JUMPDEST POP POP PUSH1 0x40 DUP1 MLOAD DUP1 DUP3 ADD SWAP1 SWAP2 MSTORE PUSH1 0x4 DUP2 MSTORE PUSH4 0x4E6F6E65 PUSH1 0xE0 SHL PUSH1 0x20 DUP3 ADD MSTORE SWAP1 JUMP JUMPDEST CALLER PUSH1 0x0 SWAP1 DUP2 MSTORE PUSH1 0x9 PUSH1 0x20 MSTORE PUSH1 0x40 DUP2 KECCAK256 SLOAD PUSH2 0xBAE JUMPI PUSH1 0x40 MLOAD PUSH3 0x461BCD PUSH1 0xE5 SHL DUP2 MSTORE PUSH1 0x4 ADD PUSH2 0x5C5 SWAP1 PUSH2 0x2468 JUMP JUMPDEST PUSH1 0x1 DUP1 SLOAD SWAP1 PUSH1 0x0 PUSH2 0xBBE DUP4 PUSH2 0x22F8 JUMP JUMPDEST SWAP1 SWAP2 SSTORE POP POP PUSH1 0x40 DUP1 MLOAD PUSH2 0x140 DUP2 ADD DUP3 MSTORE PUSH1 0x1 DUP1 SLOAD DUP1 DUP4 MSTORE CALLER PUSH1 0x20 DUP1 DUP6 ADD DUP3 DUP2 MSTORE PUSH1 0x0 DUP7 DUP9 ADD DUP2 DUP2 MSTORE PUSH1 0x60 DUP9 ADD DUP3 DUP2 MSTORE PUSH1 0x80 DUP10 ADD DUP4 DUP2 MSTORE TIMESTAMP PUSH1 0xA0 DUP12 ADD DUP2 SWAP1 MSTORE PUSH1 0xC0 DUP12 ADD MSTORE SWAP6 DUP4 MSTORE PUSH1 0x9 DUP6 MSTORE DUP10 DUP4 KECCAK256 SLOAD PUSH1 0xE0 DUP11 ADD MSTORE PUSH2 0x100 DUP10 ADD DUP4 SWAP1 MSTORE PUSH2 0x120 DUP10 ADD DUP4 SWAP1 MSTORE SWAP6 DUP3 MSTORE PUSH1 0x5 SWAP1 SWAP4 MSTORE SWAP7 SWAP1 SWAP7 KECCAK256 DUP6 MLOAD DUP2 SSTORE SWAP6 MLOAD SWAP4 DUP7 ADD DUP1 SLOAD PUSH1 0x1 PUSH1 0x1 PUSH1 0xA0 SHL SUB NOT SWAP1 DUP2 AND PUSH1 0x1 PUSH1 0x1 PUSH1 0xA0 SHL SUB SWAP7 DUP8 AND OR SWAP1 SWAP2 SSTORE SWAP1 MLOAD PUSH1 0x2 DUP8 ADD DUP1 SLOAD DUP4 AND SWAP2 DUP7 AND SWAP2 SWAP1 SWAP2 OR SWAP1 SSTORE SWAP2 MLOAD PUSH1 0x3 DUP7 ADD DUP1 SLOAD SWAP4 DUP5 AND SWAP2 SWAP1 SWAP5 AND SWAP1 DUP2 OR DUP5 SSTORE SWAP1 MLOAD SWAP4 SWAP5 SWAP4 SWAP3 SWAP2 PUSH1 0x1 PUSH1 0x1 PUSH1 0xA8 SHL SUB NOT AND OR PUSH1 0x1 PUSH1 0xA0 SHL DUP4 PUSH1 0x6 DUP2 GT ISZERO PUSH2 0xCA3 JUMPI PUSH2 0xCA3 PUSH2 0x214C JUMP JUMPDEST MUL OR SWAP1 SSTORE POP PUSH1 0xA0 DUP3 ADD MLOAD PUSH1 0x4 DUP3 ADD SSTORE PUSH1 0xC0 DUP3 ADD MLOAD PUSH1 0x5 DUP3 ADD SSTORE PUSH1 0xE0 DUP3 ADD MLOAD PUSH1 0x6 DUP3 ADD SSTORE PUSH2 0x100 DUP3 ADD MLOAD PUSH1 0x7 DUP3 ADD SSTORE PUSH2 0x120 SWAP1 SWAP2 ADD MLOAD PUSH1 0x8 SWAP1 SWAP2 ADD SSTORE PUSH1 0x1 SLOAD PUSH1 0x40 MLOAD TIMESTAMP DUP2 MSTORE CALLER SWAP2 SWAP1 PUSH32 0x6AC99A0D37FC8F971D56B54FD2CB2AA9A5F6EF52EB1EA570CA7EE2F8E8E7E005 SWAP1 PUSH1 0x20 ADD PUSH1 0x40 MLOAD DUP1 SWAP2 SUB SWAP1 LOG3 POP PUSH1 0x1 SLOAD SWAP1 JUMP JUMPDEST PUSH1 0x8 PUSH1 0x20 MSTORE PUSH1 0x0 SWAP1 DUP2 MSTORE PUSH1 0x40 SWAP1 KECCAK256 DUP1 SLOAD PUSH1 0x1 DUP3 ADD SLOAD PUSH1 0x2 DUP4 ADD DUP1 SLOAD PUSH1 0x1 PUSH1 0x1 PUSH1 0xA0 SHL SUB SWAP1 SWAP4 AND SWAP4 SWAP2 SWAP3 PUSH2 0x94A SWAP1 PUSH2 0x231F JUMP JUMPDEST PUSH1 0x0 DUP1 DUP3 GT DUP1 ISZERO PUSH2 0xD63 JUMPI POP PUSH1 0x1 SLOAD DUP3 GT ISZERO JUMPDEST PUSH2 0xD7F JUMPI PUSH1 0x40 MLOAD PUSH3 0x461BCD PUSH1 0xE5 SHL DUP2 MSTORE PUSH1 0x4 ADD PUSH2 0x5C5 SWAP1 PUSH2 0x226F JUMP JUMPDEST POP PUSH1 0x0 SWAP1 DUP2 MSTORE PUSH1 0x5 PUSH1 0x20 MSTORE PUSH1 0x40 SWAP1 KECCAK256 PUSH1 0x3 ADD SLOAD PUSH1 0x1 PUSH1 0xA0 SHL SWAP1 DIV PUSH1 0xFF AND SWAP1 JUMP JUMPDEST PUSH1 0x0 DUP1 PUSH1 0x60 DUP1 PUSH1 0x0 DUP6 GT DUP1 ISZERO PUSH2 0xDB7 JUMPI POP PUSH1 0x3 SLOAD DUP6 GT ISZERO JUMPDEST PUSH2 0xDFC JUMPI PUSH1 0x40 MLOAD PUSH3 0x461BCD PUSH1 0xE5 SHL DUP2 MSTORE PUSH1 0x20 PUSH1 0x4 DUP3 ADD MSTORE PUSH1 0x16 PUSH1 0x24 DUP3 ADD MSTORE PUSH22 0x125B9D985B1A5908191A5CDD1C9A589D5D1BDC881251 PUSH1 0x52 SHL PUSH1 0x44 DUP3 ADD MSTORE PUSH1 0x64 ADD PUSH2 0x5C5 JUMP JUMPDEST PUSH1 0x0 DUP6 DUP2 MSTORE PUSH1 0x7 PUSH1 0x20 SWAP1 DUP2 MSTORE PUSH1 0x40 DUP1 DUP4 KECCAK256 DUP2 MLOAD PUSH1 0x80 DUP2 ADD DUP4 MSTORE DUP2 SLOAD PUSH1 0x1 PUSH1 0x1 PUSH1 0xA0 SHL SUB AND DUP2 MSTORE PUSH1 0x1 DUP3 ADD SLOAD SWAP4 DUP2 ADD SWAP4 SWAP1 SWAP4 MSTORE PUSH1 0x2 DUP2 ADD DUP1 SLOAD SWAP2 SWAP3 DUP5 ADD SWAP2 PUSH2 0xE42 SWAP1 PUSH2 0x231F JUMP JUMPDEST DUP1 PUSH1 0x1F ADD PUSH1 0x20 DUP1 SWAP2 DIV MUL PUSH1 0x20 ADD PUSH1 0x40 MLOAD SWAP1 DUP2 ADD PUSH1 0x40 MSTORE DUP1 SWAP3 SWAP2 SWAP1 DUP2 DUP2 MSTORE PUSH1 0x20 ADD DUP3 DUP1 SLOAD PUSH2 0xE6E SWAP1 PUSH2 0x231F JUMP JUMPDEST DUP1 ISZERO PUSH2 0xEBB JUMPI DUP1 PUSH1 0x1F LT PUSH2 0xE90 JUMPI PUSH2 0x100 DUP1 DUP4 SLOAD DIV MUL DUP4 MSTORE SWAP2 PUSH1 0x20 ADD SWAP2 PUSH2 0xEBB JUMP JUMPDEST DUP3 ADD SWAP2 SWAP1 PUSH1 0x0 MSTORE PUSH1 0x20 PUSH1 0x0 KECCAK256 SWAP1 JUMPDEST DUP2 SLOAD DUP2 MSTORE SWAP1 PUSH1 0x1 ADD SWAP1 PUSH1 0x20 ADD DUP1 DUP4 GT PUSH2 0xE9E JUMPI DUP3 SWAP1 SUB PUSH1 0x1F AND DUP3 ADD SWAP2 JUMPDEST POP POP POP POP POP DUP2 MSTORE PUSH1 0x20 ADD PUSH1 0x3 DUP3 ADD DUP1 SLOAD PUSH2 0xED4 SWAP1 PUSH2 0x231F JUMP JUMPDEST DUP1 PUSH1 0x1F ADD PUSH1 0x20 DUP1 SWAP2 DIV MUL PUSH1 0x20 ADD PUSH1 0x40 MLOAD SWAP1 DUP2 ADD PUSH1 0x40 MSTORE DUP1 SWAP3 SWAP2 SWAP1 DUP2 DUP2 MSTORE PUSH1 0x20 ADD DUP3 DUP1 SLOAD PUSH2 0xF00 SWAP1 PUSH2 0x231F JUMP JUMPDEST DUP1 ISZERO PUSH2 0xF4D JUMPI DUP1 PUSH1 0x1F LT PUSH2 0xF22 JUMPI PUSH2 0x100 DUP1 DUP4 SLOAD DIV MUL DUP4 MSTORE SWAP2 PUSH1 0x20 ADD SWAP2 PUSH2 0xF4D JUMP JUMPDEST DUP3 ADD SWAP2 SWAP1 PUSH1 0x0 MSTORE PUSH1 0x20 PUSH1 0x0 KECCAK256 SWAP1 JUMPDEST DUP2 SLOAD DUP2 MSTORE SWAP1 PUSH1 0x1 ADD SWAP1 PUSH1 0x20 ADD DUP1 DUP4 GT PUSH2 0xF30 JUMPI DUP3 SWAP1 SUB PUSH1 0x1F AND DUP3 ADD SWAP2 JUMPDEST POP POP POP SWAP2 SWAP1 SWAP3 MSTORE POP POP DUP2 MLOAD PUSH1 0x20 DUP4 ADD MLOAD PUSH1 0x40 DUP5 ADD MLOAD PUSH1 0x60 SWAP1 SWAP5 ADD MLOAD SWAP2 SWAP11 SWAP1 SWAP10 POP SWAP3 SWAP8 POP SWAP6 POP SWAP1 SWAP4 POP POP POP POP JUMP JUMPDEST PUSH1 0x0 SLOAD PUSH1 0x1 PUSH1 0x1 PUSH1 0xA0 SHL SUB AND CALLER EQ PUSH2 0xFA4 JUMPI PUSH1 0x40 MLOAD PUSH3 0x461BCD PUSH1 0xE5 SHL DUP2 MSTORE PUSH1 0x4 ADD PUSH2 0x5C5 SWAP1 PUSH2 0x22B7 JUMP JUMPDEST PUSH1 0x1 PUSH1 0x1 PUSH1 0xA0 SHL SUB DUP4 AND PUSH1 0x0 SWAP1 DUP2 MSTORE PUSH1 0x9 PUSH1 0x20 MSTORE PUSH1 0x40 SWAP1 KECCAK256 SLOAD ISZERO PUSH2 0x100A JUMPI PUSH1 0x40 MLOAD PUSH3 0x461BCD PUSH1 0xE5 SHL DUP2 MSTORE PUSH1 0x20 PUSH1 0x4 DUP3 ADD MSTORE PUSH1 0x1F PUSH1 0x24 DUP3 ADD MSTORE PUSH32 0x4D616E75666163747572657220616C7265616479207265676973746572656400 PUSH1 0x44 DUP3 ADD MSTORE PUSH1 0x64 ADD PUSH2 0x5C5 JUMP JUMPDEST PUSH1 0x2 DUP1 SLOAD SWAP1 PUSH1 0x0 PUSH2 0x101A DUP4 PUSH2 0x22F8 JUMP JUMPDEST SWAP1 SWAP2 SSTORE POP POP PUSH1 0x40 DUP1 MLOAD PUSH1 0x80 DUP2 ADD DUP3 MSTORE PUSH1 0x1 PUSH1 0x1 PUSH1 0xA0 SHL SUB DUP6 DUP2 AND DUP3 MSTORE PUSH1 0x2 DUP1 SLOAD PUSH1 0x20 DUP1 DUP6 ADD DUP3 DUP2 MSTORE DUP6 DUP8 ADD DUP10 DUP2 MSTORE PUSH1 0x60 DUP8 ADD DUP10 SWAP1 MSTORE PUSH1 0x0 SWAP4 DUP5 MSTORE PUSH1 0x6 SWAP1 SWAP3 MSTORE SWAP6 SWAP1 SWAP2 KECCAK256 DUP5 MLOAD DUP2 SLOAD PUSH1 0x1 PUSH1 0x1 PUSH1 0xA0 SHL SUB NOT AND SWAP5 AND SWAP4 SWAP1 SWAP4 OR DUP4 SSTORE SWAP4 MLOAD PUSH1 0x1 DUP4 ADD SSTORE SWAP3 MLOAD SWAP2 SWAP3 SWAP1 SWAP2 SWAP1 DUP3 ADD SWAP1 PUSH2 0x108E SWAP1 DUP3 PUSH2 0x23A8 JUMP JUMPDEST POP PUSH1 0x60 DUP3 ADD MLOAD PUSH1 0x3 DUP3 ADD SWAP1 PUSH2 0x10A3 SWAP1 DUP3 PUSH2 0x23A8 JUMP JUMPDEST POP POP PUSH1 0x2 SLOAD PUSH1 0x1 PUSH1 0x1 PUSH1 0xA0 SHL SUB DUP6 AND PUSH1 0x0 DUP2 DUP2 MSTORE PUSH1 0x9 PUSH1 0x20 SWAP1 DUP2 MSTORE PUSH1 0x40 SWAP2 DUP3 SWAP1 KECCAK256 DUP5 SWAP1 SSTORE DUP2 MLOAD PUSH1 0x60 DUP1 DUP3 MSTORE PUSH1 0xC SWAP1 DUP3 ADD MSTORE PUSH12 0x26B0B73AB330B1BA3AB932B9 PUSH1 0xA1 SHL PUSH1 0x80 DUP3 ADD MSTORE SWAP1 DUP2 ADD SWAP4 SWAP1 SWAP4 MSTORE TIMESTAMP SWAP1 DUP4 ADD MSTORE SWAP2 POP PUSH32 0x23A9F014965BA86132366AF52ECB128B27C75542A5B4659B6557D5CF25A2884C SWAP1 PUSH1 0xA0 ADD PUSH2 0x90B JUMP JUMPDEST CALLER PUSH1 0x0 SWAP1 DUP2 MSTORE PUSH1 0x9 PUSH1 0x20 MSTORE PUSH1 0x40 SWAP1 KECCAK256 SLOAD PUSH2 0x114D JUMPI PUSH1 0x40 MLOAD PUSH3 0x461BCD PUSH1 0xE5 SHL DUP2 MSTORE PUSH1 0x4 ADD PUSH2 0x5C5 SWAP1 PUSH2 0x2468 JUMP JUMPDEST PUSH1 0x0 DUP2 GT DUP1 ISZERO PUSH2 0x115F JUMPI POP PUSH1 0x1 SLOAD DUP2 GT ISZERO JUMPDEST PUSH2 0x117B JUMPI PUSH1 0x40 MLOAD PUSH3 0x461BCD PUSH1 0xE5 SHL DUP2 MSTORE PUSH1 0x4 ADD PUSH2 0x5C5 SWAP1 PUSH2 0x226F JUMP JUMPDEST PUSH1 0x0 DUP1 DUP3 DUP2 MSTORE PUSH1 0x5 PUSH1 0x20 MSTORE PUSH1 0x40 SWAP1 KECCAK256 PUSH1 0x3 ADD SLOAD PUSH1 0x1 PUSH1 0xA0 SHL SWAP1 DIV PUSH1 0xFF AND PUSH1 0x6 DUP2 GT ISZERO PUSH2 0x11A9 JUMPI PUSH2 0x11A9 PUSH2 0x214C JUMP JUMPDEST EQ PUSH2 0x1205 JUMPI PUSH1 0x40 MLOAD PUSH3 0x461BCD PUSH1 0xE5 SHL DUP2 MSTORE PUSH1 0x20 PUSH1 0x4 DUP3 ADD MSTORE PUSH1 0x26 PUSH1 0x24 DUP3 ADD MSTORE PUSH32 0x4D65646963696E65206D75737420626520696E204D616E756661637475726564 PUSH1 0x44 DUP3 ADD MSTORE PUSH6 0x207374616765 PUSH1 0xD0 SHL PUSH1 0x64 DUP3 ADD MSTORE PUSH1 0x84 ADD PUSH2 0x5C5 JUMP JUMPDEST PUSH1 0x0 DUP2 DUP2 MSTORE PUSH1 0x5 PUSH1 0x20 MSTORE PUSH1 0x40 SWAP1 KECCAK256 PUSH1 0x1 ADD SLOAD PUSH1 0x1 PUSH1 0x1 PUSH1 0xA0 SHL SUB AND CALLER EQ PUSH2 0x1289 JUMPI PUSH1 0x40 MLOAD PUSH3 0x461BCD PUSH1 0xE5 SHL DUP2 MSTORE PUSH1 0x20 PUSH1 0x4 DUP3 ADD MSTORE PUSH1 0x32 PUSH1 0x24 DUP3 ADD MSTORE PUSH32 0x4F6E6C7920746865206D616E7566616374757265722077686F20637265617465 PUSH1 0x44 DUP3 ADD MSTORE PUSH18 0x19081D1A1A5CC818D85B881C1858DAC81A5D PUSH1 0x72 SHL PUSH1 0x64 DUP3 ADD MSTORE PUSH1 0x84 ADD PUSH2 0x5C5 JUMP JUMPDEST PUSH1 0x0 DUP2 DUP2 MSTORE PUSH1 0x5 PUSH1 0x20 DUP2 SWAP1 MSTORE PUSH1 0x40 SWAP2 DUP3 SWAP1 KECCAK256 PUSH1 0x3 DUP2 ADD DUP1 SLOAD PUSH1 0xFF PUSH1 0xA0 SHL NOT AND PUSH1 0x1 PUSH1 0xA0 SHL OR SWAP1 SSTORE TIMESTAMP SWAP2 ADD DUP2 SWAP1 SSTORE SWAP1 MLOAD CALLER SWAP2 DUP4 SWAP2 PUSH1 0x0 DUP1 MLOAD PUSH1 0x20 PUSH2 0x250D DUP4 CODECOPY DUP2 MLOAD SWAP2 MSTORE SWAP2 PUSH2 0x75F SWAP2 PUSH1 0x1 SWAP2 SWAP1 PUSH2 0x229C JUMP JUMPDEST PUSH1 0x0 SLOAD PUSH1 0x1 PUSH1 0x1 PUSH1 0xA0 SHL SUB AND CALLER EQ PUSH2 0x1303 JUMPI PUSH1 0x40 MLOAD PUSH3 0x461BCD PUSH1 0xE5 SHL DUP2 MSTORE PUSH1 0x4 ADD PUSH2 0x5C5 SWAP1 PUSH2 0x22B7 JUMP JUMPDEST PUSH1 0x1 PUSH1 0x1 PUSH1 0xA0 SHL SUB DUP4 AND PUSH1 0x0 SWAP1 DUP2 MSTORE PUSH1 0xB PUSH1 0x20 MSTORE PUSH1 0x40 SWAP1 KECCAK256 SLOAD ISZERO PUSH2 0x1369 JUMPI PUSH1 0x40 MLOAD PUSH3 0x461BCD PUSH1 0xE5 SHL DUP2 MSTORE PUSH1 0x20 PUSH1 0x4 DUP3 ADD MSTORE PUSH1 0x1B PUSH1 0x24 DUP3 ADD MSTORE PUSH32 0x52657461696C657220616C726561647920726567697374657265640000000000 PUSH1 0x44 DUP3 ADD MSTORE PUSH1 0x64 ADD PUSH2 0x5C5 JUMP JUMPDEST PUSH1 0x4 DUP1 SLOAD SWAP1 PUSH1 0x0 PUSH2 0x1379 DUP4 PUSH2 0x22F8 JUMP JUMPDEST SWAP1 SWAP2 SSTORE POP POP PUSH1 0x40 DUP1 MLOAD PUSH1 0x80 DUP2 ADD DUP3 MSTORE PUSH1 0x1 PUSH1 0x1 PUSH1 0xA0 SHL SUB DUP6 DUP2 AND DUP3 MSTORE PUSH1 0x4 SLOAD PUSH1 0x20 DUP1 DUP5 ADD DUP3 DUP2 MSTORE DUP5 DUP7 ADD DUP9 DUP2 MSTORE PUSH1 0x60 DUP7 ADD DUP9 SWAP1 MSTORE PUSH1 0x0 SWAP4 DUP5 MSTORE PUSH1 0x8 SWAP1 SWAP3 MSTORE SWAP5 SWAP1 SWAP2 KECCAK256 DUP4 MLOAD DUP2 SLOAD PUSH1 0x1 PUSH1 0x1 PUSH1 0xA0 SHL SUB NOT AND SWAP4 AND SWAP3 SWAP1 SWAP3 OR DUP3 SSTORE SWAP3 MLOAD PUSH1 0x1 DUP3 ADD SSTORE SWAP2 MLOAD SWAP1 SWAP2 SWAP1 PUSH1 0x2 DUP3 ADD SWAP1 PUSH2 0x13EC SWAP1 DUP3 PUSH2 0x23A8 JUMP JUMPDEST POP PUSH1 0x60 DUP3 ADD MLOAD PUSH1 0x3 DUP3 ADD SWAP1 PUSH2 0x1401 SWAP1 DUP3 PUSH2 0x23A8 JUMP JUMPDEST POP POP PUSH1 0x4 SLOAD PUSH1 0x1 PUSH1 0x1 PUSH1 0xA0 SHL SUB DUP6 AND PUSH1 0x0 DUP2 DUP2 MSTORE PUSH1 0xB PUSH1 0x20 SWAP1 DUP2 MSTORE PUSH1 0x40 SWAP2 DUP3 SWAP1 KECCAK256 DUP5 SWAP1 SSTORE DUP2 MLOAD PUSH1 0x60 DUP1 DUP3 MSTORE PUSH1 0x8 SWAP1 DUP3 ADD MSTORE PUSH8 0x2932BA30B4B632B9 PUSH1 0xC1 SHL PUSH1 0x80 DUP3 ADD MSTORE SWAP1 DUP2 ADD SWAP4 SWAP1 SWAP4 MSTORE TIMESTAMP SWAP1 DUP4 ADD MSTORE SWAP2 POP PUSH32 0x23A9F014965BA86132366AF52ECB128B27C75542A5B4659B6557D5CF25A2884C SWAP1 PUSH1 0xA0 ADD PUSH2 0x90B JUMP JUMPDEST PUSH1 0x0 DUP1 PUSH1 0x60 DUP1 PUSH1 0x0 DUP6 GT DUP1 ISZERO PUSH2 0x1493 JUMPI POP PUSH1 0x4 SLOAD DUP6 GT ISZERO JUMPDEST PUSH2 0x14D5 JUMPI PUSH1 0x40 MLOAD PUSH3 0x461BCD PUSH1 0xE5 SHL DUP2 MSTORE PUSH1 0x20 PUSH1 0x4 DUP3 ADD MSTORE PUSH1 0x13 PUSH1 0x24 DUP3 ADD MSTORE PUSH19 0x125B9D985B1A59081C995D185A5B195C881251 PUSH1 0x6A SHL PUSH1 0x44 DUP3 ADD MSTORE PUSH1 0x64 ADD PUSH2 0x5C5 JUMP JUMPDEST PUSH1 0x0 DUP6 DUP2 MSTORE PUSH1 0x8 PUSH1 0x20 SWAP1 DUP2 MSTORE PUSH1 0x40 DUP1 DUP4 KECCAK256 DUP2 MLOAD PUSH1 0x80 DUP2 ADD DUP4 MSTORE DUP2 SLOAD PUSH1 0x1 PUSH1 0x1 PUSH1 0xA0 SHL SUB AND DUP2 MSTORE PUSH1 0x1 DUP3 ADD SLOAD SWAP4 DUP2 ADD SWAP4 SWAP1 SWAP4 MSTORE PUSH1 0x2 DUP2 ADD DUP1 SLOAD SWAP2 SWAP3 DUP5 ADD SWAP2 PUSH2 0xE42 SWAP1 PUSH2 0x231F JUMP JUMPDEST PUSH1 0x0 DUP1 PUSH1 0x0 DUP1 PUSH1 0x0 DUP1 PUSH1 0x0 DUP1 PUSH1 0x0 DUP1 PUSH1 0x0 DUP12 GT DUP1 ISZERO PUSH2 0x153C JUMPI POP PUSH1 0x1 SLOAD DUP12 GT ISZERO JUMPDEST PUSH2 0x1558 JUMPI PUSH1 0x40 MLOAD PUSH3 0x461BCD PUSH1 0xE5 SHL DUP2 MSTORE PUSH1 0x4 ADD PUSH2 0x5C5 SWAP1 PUSH2 0x226F JUMP JUMPDEST PUSH1 0x0 DUP12 DUP2 MSTORE PUSH1 0x5 PUSH1 0x20 SWAP1 DUP2 MSTORE PUSH1 0x40 DUP1 DUP4 KECCAK256 DUP2 MLOAD PUSH2 0x140 DUP2 ADD DUP4 MSTORE DUP2 SLOAD DUP2 MSTORE PUSH1 0x1 DUP3 ADD SLOAD PUSH1 0x1 PUSH1 0x1 PUSH1 0xA0 SHL SUB SWAP1 DUP2 AND SWAP5 DUP3 ADD SWAP5 SWAP1 SWAP5 MSTORE PUSH1 0x2 DUP3 ADD SLOAD DUP5 AND SWAP3 DUP2 ADD SWAP3 SWAP1 SWAP3 MSTORE PUSH1 0x3 DUP2 ADD SLOAD SWAP3 DUP4 AND PUSH1 0x60 DUP4 ADD MSTORE SWAP1 SWAP2 PUSH1 0x80 DUP4 ADD SWAP1 PUSH1 0x1 PUSH1 0xA0 SHL SWAP1 DIV PUSH1 0xFF AND PUSH1 0x6 DUP2 GT ISZERO PUSH2 0x15CA JUMPI PUSH2 0x15CA PUSH2 0x214C JUMP JUMPDEST PUSH1 0x6 DUP2 GT ISZERO PUSH2 0x15DB JUMPI PUSH2 0x15DB PUSH2 0x214C JUMP JUMPDEST DUP2 MSTORE PUSH1 0x20 ADD PUSH1 0x4 DUP3 ADD SLOAD DUP2 MSTORE PUSH1 0x20 ADD PUSH1 0x5 DUP3 ADD SLOAD DUP2 MSTORE PUSH1 0x20 ADD PUSH1 0x6 DUP3 ADD SLOAD DUP2 MSTORE PUSH1 0x20 ADD PUSH1 0x7 DUP3 ADD SLOAD DUP2 MSTORE PUSH1 0x20 ADD PUSH1 0x8 DUP3 ADD SLOAD DUP2 MSTORE POP POP SWAP1 POP DUP1 PUSH1 0x0 ADD MLOAD DUP2 PUSH1 0x20 ADD MLOAD DUP3 PUSH1 0x40 ADD MLOAD DUP4 PUSH1 0x60 ADD MLOAD DUP5 PUSH1 0x80 ADD MLOAD DUP6 PUSH1 0xA0 ADD MLOAD DUP7 PUSH1 0xC0 ADD MLOAD DUP8 PUSH1 0xE0 ADD MLOAD DUP9 PUSH2 0x100 ADD MLOAD DUP10 PUSH2 0x120 ADD MLOAD SWAP11 POP SWAP11 POP SWAP11 POP SWAP11 POP SWAP11 POP SWAP11 POP SWAP11 POP SWAP11 POP SWAP11 POP SWAP11 POP POP SWAP2 SWAP4 SWAP6 SWAP8 SWAP10 POP SWAP2 SWAP4 SWAP6 SWAP8 SWAP10 JUMP JUMPDEST CALLER PUSH1 0x0 SWAP1 DUP2 MSTORE PUSH1 0xA PUSH1 0x20 MSTORE PUSH1 0x40 SWAP1 KECCAK256 SLOAD PUSH2 0x1695 JUMPI PUSH1 0x40 MLOAD PUSH3 0x461BCD PUSH1 0xE5 SHL DUP2 MSTORE PUSH1 0x4 ADD PUSH2 0x5C5 SWAP1 PUSH2 0x221C JUMP JUMPDEST PUSH1 0x0 DUP3 GT DUP1 ISZERO PUSH2 0x16A7 JUMPI POP PUSH1 0x1 SLOAD DUP3 GT ISZERO JUMPDEST PUSH2 0x16C3 JUMPI PUSH1 0x40 MLOAD PUSH3 0x461BCD PUSH1 0xE5 SHL DUP2 MSTORE PUSH1 0x4 ADD PUSH2 0x5C5 SWAP1 PUSH2 0x226F JUMP JUMPDEST PUSH1 0x3 PUSH1 0x0 DUP4 DUP2 MSTORE PUSH1 0x5 PUSH1 0x20 MSTORE PUSH1 0x40 SWAP1 KECCAK256 PUSH1 0x3 ADD SLOAD PUSH1 0x1 PUSH1 0xA0 SHL SWAP1 DIV PUSH1 0xFF AND PUSH1 0x6 DUP2 GT ISZERO PUSH2 0x16F2 JUMPI PUSH2 0x16F2 PUSH2 0x214C JUMP JUMPDEST EQ PUSH2 0x1757 JUMPI PUSH1 0x40 MLOAD PUSH3 0x461BCD PUSH1 0xE5 SHL DUP2 MSTORE PUSH1 0x20 PUSH1 0x4 DUP3 ADD MSTORE PUSH1 0x2F PUSH1 0x24 DUP3 ADD MSTORE PUSH32 0x4D65646963696E65206D75737420626520696E20526563656976656442794469 PUSH1 0x44 DUP3 ADD MSTORE PUSH15 0x737472696275746F72207374616765 PUSH1 0x88 SHL PUSH1 0x64 DUP3 ADD MSTORE PUSH1 0x84 ADD PUSH2 0x5C5 JUMP JUMPDEST PUSH1 0x0 DUP3 DUP2 MSTORE PUSH1 0x5 PUSH1 0x20 MSTORE PUSH1 0x40 SWAP1 KECCAK256 PUSH1 0x2 ADD SLOAD PUSH1 0x1 PUSH1 0x1 PUSH1 0xA0 SHL SUB AND CALLER EQ PUSH2 0x17D4 JUMPI PUSH1 0x40 MLOAD PUSH3 0x461BCD PUSH1 0xE5 SHL DUP2 MSTORE PUSH1 0x20 PUSH1 0x4 DUP3 ADD MSTORE PUSH1 0x2B PUSH1 0x24 DUP3 ADD MSTORE PUSH32 0x4F6E6C79207468652061737369676E6564206469737472696275746F72206361 PUSH1 0x44 DUP3 ADD MSTORE PUSH11 0x6E20736869702074686973 PUSH1 0xA8 SHL PUSH1 0x64 DUP3 ADD MSTORE PUSH1 0x84 ADD PUSH2 0x5C5 JUMP JUMPDEST PUSH1 0x0 DUP2 GT DUP1 ISZERO PUSH2 0x17E6 JUMPI POP PUSH1 0x4 SLOAD DUP2 GT ISZERO JUMPDEST PUSH2 0x1828 JUMPI PUSH1 0x40 MLOAD PUSH3 0x461BCD PUSH1 0xE5 SHL DUP2 MSTORE PUSH1 0x20 PUSH1 0x4 DUP3 ADD MSTORE PUSH1 0x13 PUSH1 0x24 DUP3 ADD MSTORE PUSH19 0x125B9D985B1A59081C995D185A5B195C881251 PUSH1 0x6A SHL PUSH1 0x44 DUP3 ADD MSTORE PUSH1 0x64 ADD PUSH2 0x5C5 JUMP JUMPDEST PUSH1 0x0 DUP3 DUP2 MSTORE PUSH1 0x5 PUSH1 0x20 DUP2 DUP2 MSTORE PUSH1 0x40 DUP1 DUP5 KECCAK256 PUSH1 0x3 DUP2 ADD DUP1 SLOAD PUSH1 0x1 PUSH1 0xA2 SHL PUSH1 0xFF PUSH1 0xA0 SHL NOT DUP3 AND DUP2 OR DUP4 SSTORE DUP9 DUP9 MSTORE PUSH1 0x8 DUP1 DUP8 MSTORE DUP6 DUP10 KECCAK256 SLOAD SWAP9 DUP12 SWAP1 MSTORE SWAP6 DUP8 SWAP1 MSTORE PUSH1 0x1 PUSH1 0x1 PUSH1 0xA0 SHL SUB SWAP1 SWAP8 AND PUSH1 0x1 PUSH1 0x1 PUSH1 0xA8 SHL SUB NOT SWAP1 SWAP2 AND OR SWAP1 SWAP6 OR SWAP1 SWAP5 SSTORE SWAP1 DUP4 ADD DUP5 SWAP1 SSTORE TIMESTAMP SWAP3 SWAP1 SWAP2 ADD DUP3 SWAP1 SSTORE MLOAD CALLER SWAP2 DUP5 SWAP2 PUSH1 0x0 DUP1 MLOAD PUSH1 0x20 PUSH2 0x250D DUP4 CODECOPY DUP2 MLOAD SWAP2 MSTORE SWAP2 PUSH2 0x18B2 SWAP2 PUSH1 0x4 SWAP2 SWAP1 PUSH2 0x229C JUMP JUMPDEST PUSH1 0x40 MLOAD DUP1 SWAP2 SUB SWAP1 LOG3 POP POP JUMP JUMPDEST PUSH1 0x0 DUP1 PUSH1 0x60 DUP1 PUSH1 0x0 DUP6 GT DUP1 ISZERO PUSH2 0x18D6 JUMPI POP PUSH1 0x2 SLOAD DUP6 GT ISZERO JUMPDEST PUSH2 0x1922 JUMPI PUSH1 0x40 MLOAD PUSH3 0x461BCD PUSH1 0xE5 SHL DUP2 MSTORE PUSH1 0x20 PUSH1 0x4 DUP3 ADD MSTORE PUSH1 0x17 PUSH1 0x24 DUP3 ADD MSTORE PUSH32 0x496E76616C6964206D616E756661637475726572204944000000000000000000 PUSH1 0x44 DUP3 ADD MSTORE PUSH1 0x64 ADD PUSH2 0x5C5 JUMP JUMPDEST PUSH1 0x0 DUP6 DUP2 MSTORE PUSH1 0x6 PUSH1 0x20 SWAP1 DUP2 MSTORE PUSH1 0x40 DUP1 DUP4 KECCAK256 DUP2 MLOAD PUSH1 0x80 DUP2 ADD DUP4 MSTORE DUP2 SLOAD PUSH1 0x1 PUSH1 0x1 PUSH1 0xA0 SHL SUB AND DUP2 MSTORE PUSH1 0x1 DUP3 ADD SLOAD SWAP4 DUP2 ADD SWAP4 SWAP1 SWAP4 MSTORE PUSH1 0x2 DUP2 ADD DUP1 SLOAD SWAP2 SWAP3 DUP5 ADD SWAP2 PUSH2 0xE42 SWAP1 PUSH2 0x231F JUMP JUMPDEST CALLER PUSH1 0x0 SWAP1 DUP2 MSTORE PUSH1 0xB PUSH1 0x20 MSTORE PUSH1 0x40 SWAP1 KECCAK256 SLOAD PUSH2 0x1994 JUMPI PUSH1 0x40 MLOAD PUSH3 0x461BCD PUSH1 0xE5 SHL DUP2 MSTORE PUSH1 0x4 ADD PUSH2 0x5C5 SWAP1 PUSH2 0x24BC JUMP JUMPDEST PUSH1 0x0 DUP2 GT DUP1 ISZERO PUSH2 0x19A6 JUMPI POP PUSH1 0x1 SLOAD DUP2 GT ISZERO JUMPDEST PUSH2 0x19C2 JUMPI PUSH1 0x40 MLOAD PUSH3 0x461BCD PUSH1 0xE5 SHL DUP2 MSTORE PUSH1 0x4 ADD PUSH2 0x5C5 SWAP1 PUSH2 0x226F JUMP JUMPDEST PUSH1 0x4 PUSH1 0x0 DUP3 DUP2 MSTORE PUSH1 0x5 PUSH1 0x20 MSTORE PUSH1 0x40 SWAP1 KECCAK256 PUSH1 0x3 ADD SLOAD PUSH1 0x1 PUSH1 0xA0 SHL SWAP1 DIV PUSH1 0xFF AND PUSH1 0x6 DUP2 GT ISZERO PUSH2 0x19F1 JUMPI PUSH2 0x19F1 PUSH2 0x214C JUMP JUMPDEST EQ PUSH2 0x1A52 JUMPI PUSH1 0x40 MLOAD PUSH3 0x461BCD PUSH1 0xE5 SHL DUP2 MSTORE PUSH1 0x20 PUSH1 0x4 DUP3 ADD MSTORE PUSH1 0x2B PUSH1 0x24 DUP3 ADD MSTORE PUSH32 0x4D65646963696E65206D75737420626520696E2053686970706564546F526574 PUSH1 0x44 DUP3 ADD MSTORE PUSH11 0x61696C6572207374616765 PUSH1 0xA8 SHL PUSH1 0x64 DUP3 ADD MSTORE PUSH1 0x84 ADD PUSH2 0x5C5 JUMP JUMPDEST PUSH1 0x0 DUP2 DUP2 MSTORE PUSH1 0x5 PUSH1 0x20 MSTORE PUSH1 0x40 SWAP1 KECCAK256 PUSH1 0x3 ADD SLOAD PUSH1 0x1 PUSH1 0x1 PUSH1 0xA0 SHL SUB AND CALLER EQ PUSH2 0x1ACF JUMPI PUSH1 0x40 MLOAD PUSH3 0x461BCD PUSH1 0xE5 SHL DUP2 MSTORE PUSH1 0x20 PUSH1 0x4 DUP3 ADD MSTORE PUSH1 0x2B PUSH1 0x24 DUP3 ADD MSTORE PUSH32 0x4F6E6C79207468652061737369676E65642072657461696C65722063616E2072 PUSH1 0x44 DUP3 ADD MSTORE PUSH11 0x6563656976652074686973 PUSH1 0xA8 SHL PUSH1 0x64 DUP3 ADD MSTORE PUSH1 0x84 ADD PUSH2 0x5C5 JUMP JUMPDEST PUSH1 0x0 DUP2 DUP2 MSTORE PUSH1 0x5 PUSH1 0x20 DUP2 SWAP1 MSTORE PUSH1 0x40 SWAP2 DUP3 SWAP1 KECCAK256 PUSH1 0x3 DUP2 ADD DUP1 SLOAD PUSH1 0xFF PUSH1 0xA0 SHL NOT AND PUSH1 0x5 PUSH1 0xA0 SHL OR SWAP1 SSTORE TIMESTAMP SWAP1 DUP3 ADD DUP2 SWAP1 SSTORE SWAP2 MLOAD CALLER SWAP3 DUP5 SWAP3 PUSH1 0x0 DUP1 MLOAD PUSH1 0x20 PUSH2 0x250D DUP4 CODECOPY DUP2 MLOAD SWAP2 MSTORE SWAP3 PUSH2 0x75F SWAP3 SWAP1 PUSH2 0x229C JUMP JUMPDEST PUSH1 0x6 PUSH1 0x20 MSTORE PUSH1 0x0 SWAP1 DUP2 MSTORE PUSH1 0x40 SWAP1 KECCAK256 DUP1 SLOAD PUSH1 0x1 DUP3 ADD SLOAD PUSH1 0x2 DUP4 ADD DUP1 SLOAD PUSH1 0x1 PUSH1 0x1 PUSH1 0xA0 SHL SUB SWAP1 SWAP4 AND SWAP4 SWAP2 SWAP3 PUSH2 0x94A SWAP1 PUSH2 0x231F JUMP JUMPDEST CALLER PUSH1 0x0 SWAP1 DUP2 MSTORE PUSH1 0xB PUSH1 0x20 MSTORE PUSH1 0x40 SWAP1 KECCAK256 SLOAD PUSH2 0x1B7B JUMPI PUSH1 0x40 MLOAD PUSH3 0x461BCD PUSH1 0xE5 SHL DUP2 MSTORE PUSH1 0x4 ADD PUSH2 0x5C5 SWAP1 PUSH2 0x24BC JUMP JUMPDEST PUSH1 0x0 DUP2 GT DUP1 ISZERO PUSH2 0x1B8D JUMPI POP PUSH1 0x1 SLOAD DUP2 GT ISZERO JUMPDEST PUSH2 0x1BA9 JUMPI PUSH1 0x40 MLOAD PUSH3 0x461BCD PUSH1 0xE5 SHL DUP2 MSTORE PUSH1 0x4 ADD PUSH2 0x5C5 SWAP1 PUSH2 0x226F JUMP JUMPDEST PUSH1 0x5 PUSH1 0x0 DUP3 DUP2 MSTORE PUSH1 0x5 PUSH1 0x20 MSTORE PUSH1 0x40 SWAP1 KECCAK256 PUSH1 0x3 ADD SLOAD PUSH1 0x1 PUSH1 0xA0 SHL SWAP1 DIV PUSH1 0xFF AND PUSH1 0x6 DUP2 GT ISZERO PUSH2 0x1BD8 JUMPI PUSH2 0x1BD8 PUSH2 0x214C JUMP JUMPDEST EQ PUSH2 0x1C3A JUMPI PUSH1 0x40 MLOAD PUSH3 0x461BCD PUSH1 0xE5 SHL DUP2 MSTORE PUSH1 0x20 PUSH1 0x4 DUP3 ADD MSTORE PUSH1 0x2C PUSH1 0x24 DUP3 ADD MSTORE PUSH32 0x4D65646963696E65206D75737420626520696E20526563656976656442795265 PUSH1 0x44 DUP3 ADD MSTORE PUSH12 0x7461696C6572207374616765 PUSH1 0xA0 SHL PUSH1 0x64 DUP3 ADD MSTORE PUSH1 0x84 ADD PUSH2 0x5C5 JUMP JUMPDEST PUSH1 0x0 DUP2 DUP2 MSTORE PUSH1 0x5 PUSH1 0x20 MSTORE PUSH1 0x40 SWAP1 KECCAK256 PUSH1 0x3 ADD SLOAD PUSH1 0x1 PUSH1 0x1 PUSH1 0xA0 SHL SUB AND CALLER EQ PUSH2 0x1CB4 JUMPI PUSH1 0x40 MLOAD PUSH3 0x461BCD PUSH1 0xE5 SHL DUP2 MSTORE PUSH1 0x20 PUSH1 0x4 DUP3 ADD MSTORE PUSH1 0x28 PUSH1 0x24 DUP3 ADD MSTORE PUSH32 0x4F6E6C79207468652061737369676E65642072657461696C65722063616E2073 PUSH1 0x44 DUP3 ADD MSTORE PUSH8 0x656C6C2074686973 PUSH1 0xC0 SHL PUSH1 0x64 DUP3 ADD MSTORE PUSH1 0x84 ADD PUSH2 0x5C5 JUMP JUMPDEST PUSH1 0x0 DUP2 DUP2 MSTORE PUSH1 0x5 PUSH1 0x20 DUP2 SWAP1 MSTORE PUSH1 0x40 SWAP2 DUP3 SWAP1 KECCAK256 PUSH1 0x3 DUP2 ADD DUP1 SLOAD PUSH1 0xFF PUSH1 0xA0 SHL NOT AND PUSH1 0x3 PUSH1 0xA1 SHL OR SWAP1 SSTORE TIMESTAMP SWAP2 ADD DUP2 SWAP1 SSTORE SWAP1 MLOAD CALLER SWAP2 DUP4 SWAP2 PUSH1 0x0 DUP1 MLOAD PUSH1 0x20 PUSH2 0x250D DUP4 CODECOPY DUP2 MLOAD SWAP2 MSTORE SWAP2 PUSH2 0x75F SWAP2 PUSH1 0x6 SWAP2 SWAP1 PUSH2 0x229C JUMP JUMPDEST CALLER PUSH1 0x0 SWAP1 DUP2 MSTORE PUSH1 0x9 PUSH1 0x20 MSTORE PUSH1 0x40 SWAP1 KECCAK256 SLOAD PUSH2 0x1D30 JUMPI PUSH1 0x40 MLOAD PUSH3 0x461BCD PUSH1 0xE5 SHL DUP2 MSTORE PUSH1 0x4 ADD PUSH2 0x5C5 SWAP1 PUSH2 0x2468 JUMP JUMPDEST PUSH1 0x0 DUP3 GT DUP1 ISZERO PUSH2 0x1D42 JUMPI POP PUSH1 0x1 SLOAD DUP3 GT ISZERO JUMPDEST PUSH2 0x1D5E JUMPI PUSH1 0x40 MLOAD PUSH3 0x461BCD PUSH1 0xE5 SHL DUP2 MSTORE PUSH1 0x4 ADD PUSH2 0x5C5 SWAP1 PUSH2 0x226F JUMP JUMPDEST PUSH1 0x1 PUSH1 0x0 DUP4 DUP2 MSTORE PUSH1 0x5 PUSH1 0x20 MSTORE PUSH1 0x40 SWAP1 KECCAK256 PUSH1 0x3 ADD SLOAD PUSH1 0x1 PUSH1 0xA0 SHL SWAP1 DIV PUSH1 0xFF AND PUSH1 0x6 DUP2 GT ISZERO PUSH2 0x1D8D JUMPI PUSH2 0x1D8D PUSH2 0x214C JUMP JUMPDEST EQ PUSH2 0x1DDA JUMPI PUSH1 0x40 MLOAD PUSH3 0x461BCD PUSH1 0xE5 SHL DUP2 MSTORE PUSH1 0x20 PUSH1 0x4 DUP3 ADD DUP2 SWAP1 MSTORE PUSH1 0x24 DUP3 ADD MSTORE PUSH32 0x4D65646963696E65206D75737420626520696E205061636B6564207374616765 PUSH1 0x44 DUP3 ADD MSTORE PUSH1 0x64 ADD PUSH2 0x5C5 JUMP JUMPDEST PUSH1 0x0 DUP3 DUP2 MSTORE PUSH1 0x5 PUSH1 0x20 MSTORE PUSH1 0x40 SWAP1 KECCAK256 PUSH1 0x1 ADD SLOAD PUSH1 0x1 PUSH1 0x1 PUSH1 0xA0 SHL SUB AND CALLER EQ PUSH2 0x1E5E JUMPI PUSH1 0x40 MLOAD PUSH3 0x461BCD PUSH1 0xE5 SHL DUP2 MSTORE PUSH1 0x20 PUSH1 0x4 DUP3 ADD MSTORE PUSH1 0x32 PUSH1 0x24 DUP3 ADD MSTORE PUSH32 0x4F6E6C7920746865206D616E7566616374757265722077686F20637265617465 PUSH1 0x44 DUP3 ADD MSTORE PUSH18 0x19081D1A1A5CC818D85B881CDA1A5C081A5D PUSH1 0x72 SHL PUSH1 0x64 DUP3 ADD MSTORE PUSH1 0x84 ADD PUSH2 0x5C5 JUMP JUMPDEST PUSH1 0x0 DUP2 GT DUP1 ISZERO PUSH2 0x1E70 JUMPI POP PUSH1 0x3 SLOAD DUP2 GT ISZERO JUMPDEST PUSH2 0x1EB5 JUMPI PUSH1 0x40 MLOAD PUSH3 0x461BCD PUSH1 0xE5 SHL DUP2 MSTORE PUSH1 0x20 PUSH1 0x4 DUP3 ADD MSTORE PUSH1 0x16 PUSH1 0x24 DUP3 ADD MSTORE PUSH22 0x125B9D985B1A5908191A5CDD1C9A589D5D1BDC881251 PUSH1 0x52 SHL PUSH1 0x44 DUP3 ADD MSTORE PUSH1 0x64 ADD PUSH2 0x5C5 JUMP JUMPDEST PUSH1 0x0 DUP3 DUP2 MSTORE PUSH1 0x5 PUSH1 0x20 DUP2 DUP2 MSTORE PUSH1 0x40 DUP1 DUP5 KECCAK256 PUSH1 0x3 DUP2 ADD DUP1 SLOAD PUSH1 0xFF PUSH1 0xA0 SHL NOT AND PUSH1 0x1 PUSH1 0xA1 SHL OR SWAP1 SSTORE DUP6 DUP6 MSTORE PUSH1 0x7 DUP1 DUP5 MSTORE DUP3 DUP7 KECCAK256 SLOAD SWAP6 DUP9 SWAP1 MSTORE SWAP3 DUP5 SWAP1 MSTORE PUSH1 0x2 DUP1 DUP3 ADD DUP1 SLOAD PUSH1 0x1 PUSH1 0x1 PUSH1 0xA0 SHL SUB NOT AND PUSH1 0x1 PUSH1 0x1 PUSH1 0xA0 SHL SUB SWAP1 SWAP8 AND SWAP7 SWAP1 SWAP7 OR SWAP1 SWAP6 SSTORE SWAP2 DUP3 ADD DUP6 SWAP1 SSTORE TIMESTAMP SWAP2 SWAP1 SWAP3 ADD DUP2 SWAP1 SSTORE SWAP1 MLOAD CALLER SWAP3 DUP6 SWAP3 PUSH1 0x0 DUP1 MLOAD PUSH1 0x20 PUSH2 0x250D DUP4 CODECOPY DUP2 MLOAD SWAP2 MSTORE SWAP3 PUSH2 0x18B2 SWAP3 SWAP2 SWAP1 PUSH2 0x229C JUMP JUMPDEST PUSH1 0x0 PUSH1 0x20 DUP3 DUP5 SUB SLT ISZERO PUSH2 0x1F53 JUMPI PUSH1 0x0 DUP1 REVERT JUMPDEST POP CALLDATALOAD SWAP2 SWAP1 POP JUMP JUMPDEST DUP1 CALLDATALOAD PUSH1 0x1 PUSH1 0x1 PUSH1 0xA0 SHL SUB DUP2 AND DUP2 EQ PUSH2 0x1F71 JUMPI PUSH1 0x0 DUP1 REVERT JUMPDEST SWAP2 SWAP1 POP JUMP JUMPDEST PUSH1 0x0 PUSH1 0x20 DUP3 DUP5 SUB SLT ISZERO PUSH2 0x1F88 JUMPI PUSH1 0x0 DUP1 REVERT JUMPDEST PUSH2 0x1F91 DUP3 PUSH2 0x1F5A JUMP JUMPDEST SWAP4 SWAP3 POP POP POP JUMP JUMPDEST PUSH4 0x4E487B71 PUSH1 0xE0 SHL PUSH1 0x0 MSTORE PUSH1 0x41 PUSH1 0x4 MSTORE PUSH1 0x24 PUSH1 0x0 REVERT JUMPDEST PUSH1 0x0 DUP3 PUSH1 0x1F DUP4 ADD SLT PUSH2 0x1FBF JUMPI PUSH1 0x0 DUP1 REVERT JUMPDEST DUP2 CALLDATALOAD PUSH8 0xFFFFFFFFFFFFFFFF DUP1 DUP3 GT ISZERO PUSH2 0x1FDA JUMPI PUSH2 0x1FDA PUSH2 0x1F98 JUMP JUMPDEST PUSH1 0x40 MLOAD PUSH1 0x1F DUP4 ADD PUSH1 0x1F NOT SWAP1 DUP2 AND PUSH1 0x3F ADD AND DUP2 ADD SWAP1 DUP3 DUP3 GT DUP2 DUP4 LT OR ISZERO PUSH2 0x2002 JUMPI PUSH2 0x2002 PUSH2 0x1F98 JUMP JUMPDEST DUP2 PUSH1 0x40 MSTORE DUP4 DUP2 MSTORE DUP7 PUSH1 0x20 DUP6 DUP9 ADD ADD GT ISZERO PUSH2 0x201B JUMPI PUSH1 0x0 DUP1 REVERT JUMPDEST DUP4 PUSH1 0x20 DUP8 ADD PUSH1 0x20 DUP4 ADD CALLDATACOPY PUSH1 0x0 PUSH1 0x20 DUP6 DUP4 ADD ADD MSTORE DUP1 SWAP5 POP POP POP POP POP SWAP3 SWAP2 POP POP JUMP JUMPDEST PUSH1 0x0 DUP1 PUSH1 0x0 PUSH1 0x60 DUP5 DUP7 SUB SLT ISZERO PUSH2 0x2050 JUMPI PUSH1 0x0 DUP1 REVERT JUMPDEST PUSH2 0x2059 DUP5 PUSH2 0x1F5A JUMP JUMPDEST SWAP3 POP PUSH1 0x20 DUP5 ADD CALLDATALOAD PUSH8 0xFFFFFFFFFFFFFFFF DUP1 DUP3 GT ISZERO PUSH2 0x2076 JUMPI PUSH1 0x0 DUP1 REVERT JUMPDEST PUSH2 0x2082 DUP8 DUP4 DUP9 ADD PUSH2 0x1FAE JUMP JUMPDEST SWAP4 POP PUSH1 0x40 DUP7 ADD CALLDATALOAD SWAP2 POP DUP1 DUP3 GT ISZERO PUSH2 0x2098 JUMPI PUSH1 0x0 DUP1 REVERT JUMPDEST POP PUSH2 0x20A5 DUP7 DUP3 DUP8 ADD PUSH2 0x1FAE JUMP JUMPDEST SWAP2 POP POP SWAP3 POP SWAP3 POP SWAP3 JUMP JUMPDEST PUSH1 0x0 DUP2 MLOAD DUP1 DUP5 MSTORE PUSH1 0x0 JUMPDEST DUP2 DUP2 LT ISZERO PUSH2 0x20D5 JUMPI PUSH1 0x20 DUP2 DUP6 ADD DUP2 ADD MLOAD DUP7 DUP4 ADD DUP3 ADD MSTORE ADD PUSH2 0x20B9 JUMP JUMPDEST POP PUSH1 0x0 PUSH1 0x20 DUP3 DUP7 ADD ADD MSTORE PUSH1 0x20 PUSH1 0x1F NOT PUSH1 0x1F DUP4 ADD AND DUP6 ADD ADD SWAP2 POP POP SWAP3 SWAP2 POP POP JUMP JUMPDEST PUSH1 0x1 DUP1 PUSH1 0xA0 SHL SUB DUP6 AND DUP2 MSTORE DUP4 PUSH1 0x20 DUP3 ADD MSTORE PUSH1 0x80 PUSH1 0x40 DUP3 ADD MSTORE PUSH1 0x0 PUSH2 0x211C PUSH1 0x80 DUP4 ADD DUP6 PUSH2 0x20AF JUMP JUMPDEST DUP3 DUP2 SUB PUSH1 0x60 DUP5 ADD MSTORE PUSH2 0x212E DUP2 DUP6 PUSH2 0x20AF JUMP JUMPDEST SWAP8 SWAP7 POP POP POP POP POP POP POP JUMP JUMPDEST PUSH1 0x20 DUP2 MSTORE PUSH1 0x0 PUSH2 0x1F91 PUSH1 0x20 DUP4 ADD DUP5 PUSH2 0x20AF JUMP JUMPDEST PUSH4 0x4E487B71 PUSH1 0xE0 SHL PUSH1 0x0 MSTORE PUSH1 0x21 PUSH1 0x4 MSTORE PUSH1 0x24 PUSH1 0x0 REVERT JUMPDEST PUSH1 0x7 DUP2 LT PUSH2 0x2180 JUMPI PUSH4 0x4E487B71 PUSH1 0xE0 SHL PUSH1 0x0 MSTORE PUSH1 0x21 PUSH1 0x4 MSTORE PUSH1 0x24 PUSH1 0x0 REVERT JUMPDEST SWAP1 MSTORE JUMP JUMPDEST PUSH1 0x20 DUP2 ADD PUSH2 0x2192 DUP3 DUP5 PUSH2 0x2162 JUMP JUMPDEST SWAP3 SWAP2 POP POP JUMP JUMPDEST DUP11 DUP2 MSTORE PUSH1 0x1 PUSH1 0x1 PUSH1 0xA0 SHL SUB DUP11 DUP2 AND PUSH1 0x20 DUP4 ADD MSTORE DUP10 DUP2 AND PUSH1 0x40 DUP4 ADD MSTORE DUP9 AND PUSH1 0x60 DUP3 ADD MSTORE PUSH2 0x140 DUP2 ADD PUSH2 0x21CC PUSH1 0x80 DUP4 ADD DUP10 PUSH2 0x2162 JUMP JUMPDEST PUSH1 0xA0 DUP3 ADD SWAP7 SWAP1 SWAP7 MSTORE PUSH1 0xC0 DUP2 ADD SWAP5 SWAP1 SWAP5 MSTORE PUSH1 0xE0 DUP5 ADD SWAP3 SWAP1 SWAP3 MSTORE PUSH2 0x100 DUP4 ADD MSTORE PUSH2 0x120 SWAP1 SWAP2 ADD MSTORE SWAP6 SWAP5 POP POP POP POP POP JUMP JUMPDEST PUSH1 0x0 DUP1 PUSH1 0x40 DUP4 DUP6 SUB SLT ISZERO PUSH2 0x220D JUMPI PUSH1 0x0 DUP1 REVERT JUMPDEST POP POP DUP1 CALLDATALOAD SWAP3 PUSH1 0x20 SWAP1 SWAP2 ADD CALLDATALOAD SWAP2 POP JUMP JUMPDEST PUSH1 0x20 DUP1 DUP3 MSTORE PUSH1 0x33 SWAP1 DUP3 ADD MSTORE PUSH32 0x4F6E6C792072656769737465726564206469737472696275746F72732063616E PUSH1 0x40 DUP3 ADD MSTORE PUSH19 0x1031B0B636103A3434B990333AB731BA34B7B7 PUSH1 0x69 SHL PUSH1 0x60 DUP3 ADD MSTORE PUSH1 0x80 ADD SWAP1 JUMP JUMPDEST PUSH1 0x20 DUP1 DUP3 MSTORE PUSH1 0x13 SWAP1 DUP3 ADD MSTORE PUSH19 0x125B9D985B1A59081B59591A58DA5B99481251 PUSH1 0x6A SHL PUSH1 0x40 DUP3 ADD MSTORE PUSH1 0x60 ADD SWAP1 JUMP JUMPDEST PUSH1 0x40 DUP2 ADD PUSH2 0x22AA DUP3 DUP6 PUSH2 0x2162 JUMP JUMPDEST DUP3 PUSH1 0x20 DUP4 ADD MSTORE SWAP4 SWAP3 POP POP POP JUMP JUMPDEST PUSH1 0x20 DUP1 DUP3 MSTORE PUSH1 0x21 SWAP1 DUP3 ADD MSTORE PUSH32 0x4F6E6C79206F776E65722063616E2063616C6C20746869732066756E6374696F PUSH1 0x40 DUP3 ADD MSTORE PUSH1 0x37 PUSH1 0xF9 SHL PUSH1 0x60 DUP3 ADD MSTORE PUSH1 0x80 ADD SWAP1 JUMP JUMPDEST PUSH1 0x0 PUSH1 0x1 DUP3 ADD PUSH2 0x2318 JUMPI PUSH4 0x4E487B71 PUSH1 0xE0 SHL PUSH1 0x0 MSTORE PUSH1 0x11 PUSH1 0x4 MSTORE PUSH1 0x24 PUSH1 0x0 REVERT JUMPDEST POP PUSH1 0x1 ADD SWAP1 JUMP JUMPDEST PUSH1 0x1 DUP2 DUP2 SHR SWAP1 DUP3 AND DUP1 PUSH2 0x2333 JUMPI PUSH1 0x7F DUP3 AND SWAP2 POP JUMPDEST PUSH1 0x20 DUP3 LT DUP2 SUB PUSH2 0x2353 JUMPI PUSH4 0x4E487B71 PUSH1 0xE0 SHL PUSH1 0x0 MSTORE PUSH1 0x22 PUSH1 0x4 MSTORE PUSH1 0x24 PUSH1 0x0 REVERT JUMPDEST POP SWAP2 SWAP1 POP JUMP JUMPDEST PUSH1 0x1F DUP3 GT ISZERO PUSH2 0x23A3 JUMPI PUSH1 0x0 DUP2 DUP2 MSTORE PUSH1 0x20 DUP2 KECCAK256 PUSH1 0x1F DUP6 ADD PUSH1 0x5 SHR DUP2 ADD PUSH1 0x20 DUP7 LT ISZERO PUSH2 0x2380 JUMPI POP DUP1 JUMPDEST PUSH1 0x1F DUP6 ADD PUSH1 0x5 SHR DUP3 ADD SWAP2 POP JUMPDEST DUP2 DUP2 LT ISZERO PUSH2 0x239F JUMPI DUP3 DUP2 SSTORE PUSH1 0x1 ADD PUSH2 0x238C JUMP JUMPDEST POP POP POP JUMPDEST POP POP POP JUMP JUMPDEST DUP2 MLOAD PUSH8 0xFFFFFFFFFFFFFFFF DUP2 GT ISZERO PUSH2 0x23C2 JUMPI PUSH2 0x23C2 PUSH2 0x1F98 JUMP JUMPDEST PUSH2 0x23D6 DUP2 PUSH2 0x23D0 DUP5 SLOAD PUSH2 0x231F JUMP JUMPDEST DUP5 PUSH2 0x2359 JUMP JUMPDEST PUSH1 0x20 DUP1 PUSH1 0x1F DUP4 GT PUSH1 0x1 DUP2 EQ PUSH2 0x240B JUMPI PUSH1 0x0 DUP5 ISZERO PUSH2 0x23F3 JUMPI POP DUP6 DUP4 ADD MLOAD JUMPDEST PUSH1 0x0 NOT PUSH1 0x3 DUP7 SWAP1 SHL SHR NOT AND PUSH1 0x1 DUP6 SWAP1 SHL OR DUP6 SSTORE PUSH2 0x239F JUMP JUMPDEST PUSH1 0x0 DUP6 DUP2 MSTORE PUSH1 0x20 DUP2 KECCAK256 PUSH1 0x1F NOT DUP7 AND SWAP2 JUMPDEST DUP3 DUP2 LT ISZERO PUSH2 0x243A JUMPI DUP9 DUP7 ADD MLOAD DUP3 SSTORE SWAP5 DUP5 ADD SWAP5 PUSH1 0x1 SWAP1 SWAP2 ADD SWAP1 DUP5 ADD PUSH2 0x241B JUMP JUMPDEST POP DUP6 DUP3 LT ISZERO PUSH2 0x2458 JUMPI DUP8 DUP6 ADD MLOAD PUSH1 0x0 NOT PUSH1 0x3 DUP9 SWAP1 SHL PUSH1 0xF8 AND SHR NOT AND DUP2 SSTORE JUMPDEST POP POP POP POP POP PUSH1 0x1 SWAP1 DUP2 SHL ADD SWAP1 SSTORE POP JUMP JUMPDEST PUSH1 0x20 DUP1 DUP3 MSTORE PUSH1 0x34 SWAP1 DUP3 ADD MSTORE PUSH32 0x4F6E6C792072656769737465726564206D616E75666163747572657273206361 PUSH1 0x40 DUP3 ADD MSTORE PUSH20 0x371031B0B636103A3434B990333AB731BA34B7B7 PUSH1 0x61 SHL PUSH1 0x60 DUP3 ADD MSTORE PUSH1 0x80 ADD SWAP1 JUMP JUMPDEST PUSH1 0x20 DUP1 DUP3 MSTORE PUSH1 0x30 SWAP1 DUP3 ADD MSTORE PUSH32 0x4F6E6C7920726567697374657265642072657461696C6572732063616E206361 PUSH1 0x40 DUP3 ADD MSTORE PUSH16 0x3636103A3434B990333AB731BA34B7B7 PUSH1 0x81 SHL PUSH1 0x60 DUP3 ADD MSTORE PUSH1 0x80 ADD SWAP1 JUMP INVALID 0xD3 POP PUSH26 0xBD9F0D87556B38C1165117CCD975A6B3C2DD3C85342D8C02343B 0xDE SAR SWAP16 LOG2 PUSH5 0x6970667358 0x22 SLT KECCAK256 0xD2 0xF6 PUSH5 0x3402B4E00E CALLDATALOAD 0xC0 SWAP12 0xE0 0xAB 0xD6 PUSH2 0xAE59 SWAP3 SWAP12 DUP11 PUSH15 0xDB503C4E9E7284EB12CDFB64736F6C PUSH4 0x43000813 STOP CALLER "},"methodIdentifiers":{"DIS(uint256)":"2b0187ac","MAN(uint256)":"cc403069","MedicineStock(uint256)":"eb1a06b5","Owner()":"b4a99a4e","RET(uint256)":"59bf286f","addDistributor(address,string,string)":"2a4af440","addManufacturer(address,string,string)":"6a992c9f","addMedicine()":"51542bd4","addRetailer(address,string,string)":"857ddb04","disAddressToId(address)":"ed0b6d9c","disCtr()":"2bdb2e6b","getDistributor(uint256)":"60166fe3","getDistributorCount()":"f6edf18c","getManufacturer(uint256)":"b527fb79","getManufacturerCount()":"a9416c9e","getMedicine(uint256)":"a6742265","getMedicineCount()":"eadeb84c","getMedicineStage(uint256)":"5cf723a3","getRetailer(uint256)":"89d86c5d","getRetailerCount()":"994cac90","getRole(address)":"44276733","isDistributor(address)":"8f0c86fa","isManufacturer(address)":"17d4a491","isRetailer(address)":"5da09b88","manAddressToId(address)":"221aa352","manCtr()":"438e9c4d","medicineCtr()":"a95f29d9","pack(uint256)":"6ea42555","receiveByDistributor(uint256)":"02d82c55","receiveByRetailer(uint256)":"baf6430d","retAddressToId(address)":"f5e967f8","retCtr()":"7e43d94d","sell(uint256)":"e4849b32","shipToDistributor(uint256,uint256)":"e797313f","shipToRetailer(uint256,uint256)":"a888a684"}}}}}