{"contracts/SupplyChain.sol":{"SupplyChain":{"abi":[{"inputs":[],"stateMutability":"nonpayable","type":"constructor"},{"anonymous":false,"inputs":[{"indexed":true,"internalType":"uint256","name":"id","type":"uint256"},{"indexed":true,"internalType":"address","name":"manufacturer","type":"address"},{"indexed":false,"internalType":"uint256","name":"timestamp","type":"uint256"}],"name":"MedicineCreated","type":"event"},{"anonymous":false,"inputs":[{"indexed":false,"internalType":"string","name":"role","type":"string"},{"indexed":true,"internalType":"address","name":"participant","type":"address"},{"indexed":false,"internalType":"uint256","name":"id","type":"uint256"},{"indexed":false,"internalType":"uint256","name":"timestamp","type":"uint256"}],"name":"ParticipantRegistered","type":"event"},{"anonymous":false,"inputs":[{"indexed":true,"internalType":"uint256","name":"id","type":"uint256"},{"indexed":false,"internalType":"enum SupplyChain.STAGE","name":"stage","type":"uint8"},{"indexed":true,"internalType":"address","name":"updatedBy","type":"address"},{"indexed":false,"internalType":"uint256","name":"timestamp","type":"uint256"}],"name":"StageUpdated","type":"event"},{"inputs":[{"internalType":"uint256","name":"","type":"uint256"}],"name":"DIS","outputs":[{"internalType":"address","name":"addr","type":"address"},{"internalType":"uint256","name":"id","type":"uint256"},{"internalType":"uint256","name":"registeredAt","type":"uint256"},{"internalType":"bool","name":"active","type":"bool"}],"stateMutability":"view","type":"function"},{"inputs":[{"internalType":"uint256","name":"","type":"uint256"}],"name":"MAN","outputs":[{"internalType":"address","name":"addr","type":"address"},{"internalType":"uint256","name":"id","type":"uint256"},{"internalType":"uint256","name":"registeredAt","type":"uint256"},{"internalType":"bool","name":"active","type":"bool"}],"stateMutability":"view","type":"function"},{"inputs":[{"internalType":"uint256","name":"","type":"uint256"}],"name":"MedicineStock","outputs":[{"internalType":"uint256","name":"id","type":"uint256"},{"internalType":"address","name":"manufacturer","type":"address"},{"internalType":"address","name":"distributor","type":"address"},{"internalType":"address","name":"retailer","type":"address"},{"internalType":"enum SupplyChain.STAGE","name":"stage","type":"uint8"},{"internalType":"uint256","name":"createdAt","type":"uint256"},{"internalType":"uint256","name":"updatedAt","type":"uint256"},{"internalType":"uint256","name":"MANid","type":"uint256"},{"internalType":"uint256","name":"DISid","type":"uint256"},{"internalType":"uint256","name":"RETid","type":"uint256"}],"stateMutability":"view","type":"function"},{"inputs":[],"name":"Owner","outputs":[{"internalType":"address","name":"","type":"address"}],"stateMutability":"view","type":"function"},{"inputs":[{"internalType":"uint256","name":"","type":"uint256"}],"name":"RET","outputs":[{"internalType":"address","name":"addr","type":"address"},{"internalType":"uint256","name":"id","type":"uint256"},{"internalType":"uint256","name":"registeredAt","type":"uint256"},{"internalType":"bool","name":"active","type":"bool"}],"stateMutability":"view","type":"function"},{"inputs":[{"internalType":"address","name":"_address","type":"address"}],"name":"addDistributor","outputs":[],"stateMutability":"nonpayable","type":"function"},{"inputs":[{"internalType":"address","name":"_address","type":"address"}],"name":"addManufacturer","outputs":[],"stateMutability":"nonpayable","type":"function"},{"inputs":[],"name":"addMedicine","outputs":[{"internalType":"uint256","name":"","type":"uint256"}],"stateMutability":"nonpayable","type":"function"},{"inputs":[{"internalType":"address","name":"_address","type":"address"}],"name":"addRetailer","outputs":[],"stateMutability":"nonpayable","type":"function"},{"inputs":[{"internalType":"address","name":"","type":"address"}],"name":"disAddressToId","outputs":[{"internalType":"uint256","name":"","type":"uint256"}],"stateMutability":"view","type":"function"},{"inputs":[],"name":"disCtr","outputs":[{"internalType":"uint256","name":"","type":"uint256"}],"stateMutability":"view","type":"function"},{"inputs":[],"name":"getAllDistributors","outputs":[{"internalType":"address[]","name":"","type":"address[]"}],"stateMutability":"view","type":"function"},{"inputs":[],"name":"getAllRetailers","outputs":[{"internalType":"address[]","name":"","type":"address[]"}],"stateMutability":"view","type":"function"},{"inputs":[],"name":"getDistributorCount","outputs":[{"internalType":"uint256","name":"","type":"uint256"}],"stateMutability":"view","type":"function"},{"inputs":[],"name":"getManufacturerCount","outputs":[{"internalType":"uint256","name":"","type":"uint256"}],"stateMutability":"view","type":"function"},{"inputs":[{"internalType":"uint256","name":"_id","type":"uint256"}],"name":"getMedicine","outputs":[{"internalType":"uint256","name":"id","type":"uint256"},{"internalType":"address","name":"manufacturer","type":"address"},{"internalType":"address","name":"distributor","type":"address"},{"internalType":"address","name":"retailer","type":"address"},{"internalType":"enum SupplyChain.STAGE","name":"stage","type":"uint8"},{"internalType":"uint256","name":"createdAt","type":"uint256"},{"internalType":"uint256","name":"updatedAt","type":"uint256"}],"stateMutability":"view","type":"function"},{"inputs":[],"name":"getMedicineCount","outputs":[{"internalType":"uint256","name":"","type":"uint256"}],"stateMutability":"view","type":"function"},{"inputs":[{"internalType":"address","name":"_distributor","type":"address"}],"name":"getMedicinesByDistributor","outputs":[{"internalType":"uint256[]","name":"","type":"uint256[]"}],"stateMutability":"view","type":"function"},{"inputs":[{"internalType":"address","name":"_manufacturer","type":"address"}],"name":"getMedicinesByManufacturer","outputs":[{"internalType":"uint256[]","name":"","type":"uint256[]"}],"stateMutability":"view","type":"function"},{"inputs":[{"internalType":"address","name":"_retailer","type":"address"}],"name":"getMedicinesByRetailer","outputs":[{"internalType":"uint256[]","name":"","type":"uint256[]"}],"stateMutability":"view","type":"function"},{"inputs":[{"internalType":"address","name":"_distributor","type":"address"}],"name":"getPendingForDistributor","outputs":[{"internalType":"uint256[]","name":"","type":"uint256[]"}],"stateMutability":"view","type":"function"},{"inputs":[{"internalType":"address","name":"_retailer","type":"address"}],"name":"getPendingForRetailer","outputs":[{"internalType":"uint256[]","name":"","type":"uint256[]"}],"stateMutability":"view","type":"function"},{"inputs":[],"name":"getRetailerCount","outputs":[{"internalType":"uint256","name":"","type":"uint256"}],"stateMutability":"view","type":"function"},{"inputs":[{"internalType":"address","name":"_addr","type":"address"}],"name":"getRole","outputs":[{"internalType":"string","name":"","type":"string"}],"stateMutability":"view","type":"function"},{"inputs":[{"internalType":"uint256","name":"_medicineID","type":"uint256"}],"name":"getStage","outputs":[{"internalType":"enum SupplyChain.STAGE","name":"","type":"uint8"}],"stateMutability":"view","type":"function"},{"inputs":[{"internalType":"address","name":"_addr","type":"address"}],"name":"isDistributor","outputs":[{"internalType":"bool","name":"","type":"bool"}],"stateMutability":"view","type":"function"},{"inputs":[{"internalType":"address","name":"_addr","type":"address"}],"name":"isManufacturer","outputs":[{"internalType":"bool","name":"","type":"bool"}],"stateMutability":"view","type":"function"},{"inputs":[{"internalType":"address","name":"_addr","type":"address"}],"name":"isOwner","outputs":[{"internalType":"bool","name":"","type":"bool"}],"stateMutability":"view","type":"function"},{"inputs":[{"internalType":"address","name":"_addr","type":"address"}],"name":"isRetailer","outputs":[{"internalType":"bool","name":"","type":"bool"}],"stateMutability":"view","type":"function"},{"inputs":[{"internalType":"address","name":"","type":"address"}],"name":"manAddressToId","outputs":[{"internalType":"uint256","name":"","type":"uint256"}],"stateMutability":"view","type":"function"},{"inputs":[],"name":"manCtr","outputs":[{"internalType":"uint256","name":"","type":"uint256"}],"stateMutability":"view","type":"function"},{"inputs":[],"name":"medicineCtr","outputs":[{"internalType":"uint256","name":"","type":"uint256"}],"stateMutability":"view","type":"function"},{"inputs":[{"internalType":"uint256","name":"_medicineID","type":"uint256"}],"name":"packMedicine","outputs":[],"stateMutability":"nonpayable","type":"function"},{"inputs":[{"internalType":"uint256","name":"_medicineID","type":"uint256"}],"name":"receiveByDistributor","outputs":[],"stateMutability":"nonpayable","type":"function"},{"inputs":[{"internalType":"uint256","name":"_medicineID","type":"uint256"}],"name":"receiveByRetailer","outputs":[],"stateMutability":"nonpayable","type":"function"},{"inputs":[{"internalType":"address","name":"","type":"address"}],"name":"retAddressToId","outputs":[{"internalType":"uint256","name":"","type":"uint256"}],"stateMutability":"view","type":"function"},{"inputs":[],"name":"retCtr","outputs":[{"internalType":"uint256","name":"","type":"uint256"}],"stateMutability":"view","type":"function"},{"inputs":[{"internalType":"uint256","name":"_medicineID","type":"uint256"}],"name":"sellMedicine","outputs":[],"stateMutability":"nonpayable","type":"function"},{"inputs":[{"internalType":"uint256","name":"_medicineID","type":"uint256"},{"internalType":"address","name":"_distributor","type":"address"}],"name":"shipToDistributor","outputs":[],"stateMutability":"nonpayable","type":"function"},{"inputs":[{"internalType":"uint256","name":"_medicineID","type":"uint256"},{"internalType":"address","name":"_retailer","type":"address"}],"name":"shipToRetailer","outputs":[],"stateMutability":"nonpayable","type":"function"},{"inputs":[{"internalType":"uint256","name":"_medicineID","type":"uint256"}],"name":"showStage","outputs":[{"internalType":"string","name":"","type":"string"}],"stateMutability":"view","type":"function"}],"evm":{"bytecode":{"linkReferences":{},"object":"6080604052600060015560006002556000600355600060045534801561002457600080fd5b50600080546001600160a01b03191633179055612b12806100466000396000f3fe608060405234801561001057600080fd5b50600436106102535760003560e01c80638f0c86fa11610146578063b6a3ead6116100c3578063e101a2e011610087578063e101a2e014610633578063eadeb84c14610646578063eb1a06b51461064e578063ed0b6d9c146106d4578063f5e967f8146106f4578063f6edf18c1461071457600080fd5b8063b6a3ead6146105b0578063baf6430d146105c3578063c934bc82146105d6578063cc403069146105e9578063d889a8481461062b57600080fd5b8063a9416c9e1161010a578063a9416c9e1461054e578063a95f29d914610556578063a9c584341461055f578063acb9b2dd14610572578063b4a99a4e1461058557600080fd5b80638f0c86fa146104cf57806391341f90146104fa578063994cac901461050d5780639a1e339e14610515578063a67422651461052857600080fd5b806351542bd4116101d45780637a3b970b116101985780637a3b970b1461046b5780637e43d94d1461048b5780638e24c34b146104945780638ec4f505146104a95780638f001323146104bc57600080fd5b806351542bd4146103d057806359bf286f146103d85780635da09b881461041a5780635f8a5afa146104455780637250e2241461045857600080fd5b80632e3250201161021b5780632e325020146103525780632f54bf6e146103725780633b7e1e8614610394578063438e9c4d146103a757806344276733146103b057600080fd5b806302d82c551461025857806317d4a4911461026d578063221aa352146102ad5780632b0187ac146102db5780632bdb2e6b14610349575b600080fd5b61026b6102663660046125ee565b61071c565b005b61029861027b366004612623565b6001600160a01b0316600090815260096020526040902054151590565b60405190151581526020015b60405180910390f35b6102cd6102bb366004612623565b60096020526000908152604090205481565b6040519081526020016102a4565b61031d6102e93660046125ee565b60076020526000908152604090208054600182015460028301546003909301546001600160a01b0390921692909160ff1684565b604080516001600160a01b039095168552602085019390935291830152151560608201526080016102a4565b6102cd60035481565b6103656103603660046125ee565b6108b5565b6040516102a4919061267d565b610298610380366004612623565b6000546001600160a01b0391821691161490565b61026b6103a23660046125ee565b610904565b6102cd60025481565b6103c36103be366004612623565b610a71565b6040516102a49190612691565b6102cd610ba0565b61031d6103e63660046125ee565b60086020526000908152604090208054600182015460028301546003909301546001600160a01b0390921692909160ff1684565b610298610428366004612623565b6001600160a01b03166000908152600b6020526040902054151590565b61026b610453366004612623565b610d4a565b61026b610466366004612623565b610fce565b61047e610479366004612623565b611219565b6040516102a491906126df565b6102cd60045481565b61049c61132f565b6040516102a49190612723565b61026b6104b7366004612623565b6113ea565b61026b6104ca3660046125ee565b61163b565b6102986104dd366004612623565b6001600160a01b03166000908152600a6020526040902054151590565b61026b610508366004612764565b61178f565b6004546102cd565b61047e610523366004612623565b611998565b61053b6105363660046125ee565b611b16565b6040516102a49796959493929190612790565b6002546102cd565b6102cd60015481565b61047e61056d366004612623565b611ba6565b61026b610580366004612764565b611cb2565b600054610598906001600160a01b031681565b6040516001600160a01b0390911681526020016102a4565b61047e6105be366004612623565b611ecb565b61026b6105d13660046125ee565b612049565b61047e6105e4366004612623565b6121cc565b61031d6105f73660046125ee565b60066020526000908152604090208054600182015460028301546003909301546001600160a01b0390921692909160ff1684565b61049c6122d8565b6103c36106413660046125ee565b61238d565b6001546102cd565b6106be61065c3660046125ee565b600560208190526000918252604090912080546001820154600283015460038401546004850154958501546006860154600787015460089097015495976001600160a01b03958616979486169695841695600160a01b90940460ff169490938a565b6040516102a49a999897969594939291906127d8565b6102cd6106e2366004612623565b600a6020526000908152604090205481565b6102cd610702366004612623565b600b6020526000908152604090205481565b6003546102cd565b336000908152600a60205260409020546107515760405162461bcd60e51b81526004016107489061283a565b60405180910390fd5b60008111801561076357506001548111155b61077f5760405162461bcd60e51b81526004016107489061288d565b6000818152600560205260409020600201546001600160a01b031633146107de5760405162461bcd60e51b81526020600482015260136024820152724e6f742061737369676e656420746f20796f7560681b6044820152606401610748565b6002600082815260056020526040902060030154600160a01b900460ff16600681111561080d5761080d612645565b1461085a5760405162461bcd60e51b815260206004820152601f60248201527f4d65646963696e65206e6f74207368697070656420746f20796f7520796574006044820152606401610748565b6000818152600560208190526040918290206003808201805460ff60a01b1916600360a01b1790554291909201819055915133928492600080516020612abd833981519152926108aa92906128ba565b60405180910390a350565b600080821180156108c857506001548211155b6108e45760405162461bcd60e51b81526004016107489061288d565b50600090815260056020526040902060030154600160a01b900460ff1690565b336000908152600960205260409020546109305760405162461bcd60e51b8152600401610748906128d5565b60008111801561094257506001548111155b61095e5760405162461bcd60e51b81526004016107489061288d565b6000818152600560205260409020600101546001600160a01b031633146109975760405162461bcd60e51b815260040161074890612929565b60008082815260056020526040902060030154600160a01b900460ff1660068111156109c5576109c5612645565b14610a215760405162461bcd60e51b815260206004820152602660248201527f4d65646963696e65206d75737420626520696e204d616e75666163747572656460448201526520737461676560d01b6064820152608401610748565b60008181526005602081905260409182902060038101805460ff60a01b1916600160a01b179055429101819055905133918391600080516020612abd833981519152916108aa91600191906128ba565b6000546060906001600160a01b0390811690831603610aab57505060408051808201909152600581526427bbb732b960d91b602082015290565b6001600160a01b03821660009081526009602052604090205415610af157505060408051808201909152600c81526b26b0b73ab330b1ba3ab932b960a11b602082015290565b6001600160a01b0382166000908152600a602052604090205415610b3657505060408051808201909152600b81526a2234b9ba3934b13aba37b960a91b602082015290565b6001600160a01b0382166000908152600b602052604090205415610b785750506040805180820190915260088152672932ba30b4b632b960c11b602082015290565b505060408051808201909152600c81526b155b9c9959da5cdd195c995960a21b602082015290565b33600090815260096020526040812054610bcc5760405162461bcd60e51b8152600401610748906128d5565b60018054906000610bdc83612969565b9091555050336000818152600960209081526040808320548151610140810183526001805480835282860197885282850187815260608401888152608085018981524260a0870181905260c0870181905260e0870188905261010087018b905261012087018b9052938a5260059098529590972083518155975191880180546001600160a01b03199081166001600160a01b0394851617909155965160028901805489169184169190911790559351600388018054978816919092169081178255945193969295919492939290916001600160a81b03191617600160a01b836006811115610ccc57610ccc612645565b021790555060a0820151600482015560c0820151600582015560e082015160068201556101008201516007820155610120909101516008909101556001546040518381523391907f6ac99a0d37fc8f971d56b54fd2cb2aa9a5f6ef52eb1ea570ca7ee2f8e8e7e0059060200160405180910390a36001549250505090565b6000546001600160a01b03163314610d745760405162461bcd60e51b815260040161074890612982565b6001600160a01b038116610d9a5760405162461bcd60e51b8152600401610748906129c3565b6001600160a01b03811660009081526009602052604090205415610e005760405162461bcd60e51b815260206004820152601f60248201527f4d616e75666163747572657220616c72656164792072656769737465726564006044820152606401610748565b6001600160a01b0381166000908152600a602052604090205415610e665760405162461bcd60e51b815260206004820181905260248201527f4164647265737320697320616c72656164792061204469737472696275746f726044820152606401610748565b6001600160a01b0381166000908152600b602052604090205415610ecc5760405162461bcd60e51b815260206004820152601d60248201527f4164647265737320697320616c726561647920612052657461696c65720000006044820152606401610748565b60028054906000610edc83612969565b909155505060408051608080820183526001600160a01b0384811680845260028054602080870182815242888a0181815260016060808c018281526000978852600687528d88209c518d546001600160a01b0319169b169a909a178c559351908b0155518986015595516003909801805460ff191698151598909817909755915483825260098352908790208190558651868152600c968101969096526b26b0b73ab330b1ba3ab932b960a11b94860194909452840192909252928201929092527f23a9f014965ba86132366af52ecb128b27c75542a5b4659b6557d5cf25a2884c9060a0015b60405180910390a250565b6000546001600160a01b03163314610ff85760405162461bcd60e51b815260040161074890612982565b6001600160a01b03811661101e5760405162461bcd60e51b8152600401610748906129c3565b6001600160a01b0381166000908152600a6020526040902054156110845760405162461bcd60e51b815260206004820152601e60248201527f4469737472696275746f7220616c7265616479207265676973746572656400006044820152606401610748565b6001600160a01b038116600090815260096020526040902054156110ba5760405162461bcd60e51b8152600401610748906129ec565b6001600160a01b0381166000908152600b6020526040902054156111205760405162461bcd60e51b815260206004820152601d60248201527f4164647265737320697320616c726561647920612052657461696c65720000006044820152606401610748565b6003805490600061113083612969565b909155505060408051608080820183526001600160a01b0384811680845260038054602080870182815242888a0181815260016060808c018281526000978852600787528d88209c518d546001600160a01b0319169b169a909a178c559351908b01555160028a01559551978401805460ff1916981515989098179097559154838252600a8352908790208190558651868152600b968101969096526a2234b9ba3934b13aba37b960a91b94860194909452840192909252928201929092527f23a9f014965ba86132366af52ecb128b27c75542a5b4659b6557d5cf25a2884c9060a001610fc3565b6060600060015b600154811161126d576000818152600560205260409020600301546001600160a01b0380861691160361125b578161125781612969565b9250505b8061126581612969565b915050611220565b5060008167ffffffffffffffff81111561128957611289612a2d565b6040519080825280602002602001820160405280156112b2578160200160208202803683370190505b509050600060015b6001548111611325576000818152600560205260409020600301546001600160a01b0380881691160361131357808383815181106112fa576112fa612a43565b60209081029190910101528161130f81612969565b9250505b8061131d81612969565b9150506112ba565b5090949350505050565b6060600060035467ffffffffffffffff81111561134e5761134e612a2d565b604051908082528060200260200182016040528015611377578160200160208202803683370190505b50905060015b60035481116113e4576000818152600760205260409020546001600160a01b0316826113aa600184612a59565b815181106113ba576113ba612a43565b6001600160a01b0390921660209283029190910190910152806113dc81612969565b91505061137d565b50919050565b6000546001600160a01b031633146114145760405162461bcd60e51b815260040161074890612982565b6001600160a01b03811661143a5760405162461bcd60e51b8152600401610748906129c3565b6001600160a01b0381166000908152600b6020526040902054156114a05760405162461bcd60e51b815260206004820152601b60248201527f52657461696c657220616c7265616479207265676973746572656400000000006044820152606401610748565b6001600160a01b038116600090815260096020526040902054156114d65760405162461bcd60e51b8152600401610748906129ec565b6001600160a01b0381166000908152600a60205260409020541561153c5760405162461bcd60e51b815260206004820181905260248201527f4164647265737320697320616c72656164792061204469737472696275746f726044820152606401610748565b6004805490600061154c83612969565b9091555050604080516080810182526001600160a01b0380841680835260048054602080860182815242878901818152600160608a018181526000968752600886528b87209a518b549a166001600160a01b0319909a16999099178a559251928901929092559051600288015594516003909601805496151560ff19909716969096179095559054828252600b90945284902083905592517f23a9f014965ba86132366af52ecb128b27c75542a5b4659b6557d5cf25a2884c92610fc39290916060808252600890820152672932ba30b4b632b960c11b60808201526020810192909252604082015260a00190565b336000908152600b60205260409020546116675760405162461bcd60e51b815260040161074890612a6c565b60008111801561167957506001548111155b6116955760405162461bcd60e51b81526004016107489061288d565b6000818152600560205260409020600301546001600160a01b031633146116ce5760405162461bcd60e51b815260040161074890612929565b6005600082815260056020526040902060030154600160a01b900460ff1660068111156116fd576116fd612645565b1461173f5760405162461bcd60e51b8152602060048201526012602482015271135d5cdd081c9958d95a5d9948199a5c9cdd60721b6044820152606401610748565b60008181526005602081905260409182902060038101805460ff60a01b1916600360a11b179055429101819055905133918391600080516020612abd833981519152916108aa91600691906128ba565b336000908152600960205260409020546117bb5760405162461bcd60e51b8152600401610748906128d5565b6000821180156117cd57506001548211155b6117e95760405162461bcd60e51b81526004016107489061288d565b6000828152600560205260409020600101546001600160a01b031633146118225760405162461bcd60e51b815260040161074890612929565b6001600083815260056020526040902060030154600160a01b900460ff16600681111561185157611851612645565b1461189e5760405162461bcd60e51b815260206004820152601d60248201527f4d65646963696e65206d757374206265205061636b65642066697273740000006044820152606401610748565b6001600160a01b0381166000908152600a60205260409020546119035760405162461bcd60e51b815260206004820152601b60248201527f496e76616c6964206469737472696275746f72206164647265737300000000006044820152606401610748565b6000828152600560208181526040808420600280820180546001600160a01b0319166001600160a01b0389169081179091558652600a8452828620549588905292849052600781019490945560038401805460ff60a01b1916600160a11b1790554293909201839055905133928592600080516020612abd8339815191529261198c92906128ba565b60405180910390a35050565b6060600060015b6001548111611a25576000818152600560205260409020600201546001600160a01b038581169116148015611a0057506002600082815260056020526040902060030154600160a01b900460ff1660068111156119fe576119fe612645565b145b15611a135781611a0f81612969565b9250505b80611a1d81612969565b91505061199f565b5060008167ffffffffffffffff811115611a4157611a41612a2d565b604051908082528060200260200182016040528015611a6a578160200160208202803683370190505b509050600060015b6001548111611325576000818152600560205260409020600201546001600160a01b038781169116148015611ad357506002600082815260056020526040902060030154600160a01b900460ff166006811115611ad157611ad1612645565b145b15611b045780838381518110611aeb57611aeb612a43565b602090810291909101015281611b0081612969565b9250505b80611b0e81612969565b915050611a72565b60008060008060008060008088118015611b3257506001548811155b611b4e5760405162461bcd60e51b81526004016107489061288d565b5050506000948552505060056020819052604090932080546001820154600283015460038401546004850154949097015492976001600160a01b039283169791831696509181169450600160a01b900460ff16929190565b6060600060015b6001548111611bfa576000818152600560205260409020600101546001600160a01b03808616911603611be85781611be481612969565b9250505b80611bf281612969565b915050611bad565b5060008167ffffffffffffffff811115611c1657611c16612a2d565b604051908082528060200260200182016040528015611c3f578160200160208202803683370190505b509050600060015b6001548111611325576000818152600560205260409020600101546001600160a01b03808816911603611ca05780838381518110611c8757611c87612a43565b602090810291909101015281611c9c81612969565b9250505b80611caa81612969565b915050611c47565b336000908152600a6020526040902054611cde5760405162461bcd60e51b81526004016107489061283a565b600082118015611cf057506001548211155b611d0c5760405162461bcd60e51b81526004016107489061288d565b6000828152600560205260409020600201546001600160a01b03163314611d695760405162461bcd60e51b8152602060048201526011602482015270139bdd081e5bdd5c881cda1a5c1b595b9d607a1b6044820152606401610748565b6003600083815260056020526040902060030154600160a01b900460ff166006811115611d9857611d98612645565b14611dda5760405162461bcd60e51b8152602060048201526012602482015271135d5cdd081c9958d95a5d9948199a5c9cdd60721b6044820152606401610748565b6001600160a01b0381166000908152600b6020526040902054611e3f5760405162461bcd60e51b815260206004820152601860248201527f496e76616c69642072657461696c6572206164647265737300000000000000006044820152606401610748565b60008281526005602081815260408084206003810180546001600160a01b0388166001600160a01b0319821681178355808852600b865284882054978a90529486905260088301969096556001600160a81b0319909516909217600160a21b17909355429101819055905133918491600080516020612abd8339815191529161198c91600491906128ba565b6060600060015b6001548111611f58576000818152600560205260409020600301546001600160a01b038581169116148015611f3357506004600082815260056020526040902060030154600160a01b900460ff166006811115611f3157611f31612645565b145b15611f465781611f4281612969565b9250505b80611f5081612969565b915050611ed2565b5060008167ffffffffffffffff811115611f7457611f74612a2d565b604051908082528060200260200182016040528015611f9d578160200160208202803683370190505b509050600060015b6001548111611325576000818152600560205260409020600301546001600160a01b03878116911614801561200657506004600082815260056020526040902060030154600160a01b900460ff16600681111561200457612004612645565b145b15612037578083838151811061201e5761201e612a43565b60209081029190910101528161203381612969565b9250505b8061204181612969565b915050611fa5565b336000908152600b60205260409020546120755760405162461bcd60e51b815260040161074890612a6c565b60008111801561208757506001548111155b6120a35760405162461bcd60e51b81526004016107489061288d565b6000818152600560205260409020600301546001600160a01b031633146121025760405162461bcd60e51b81526020600482015260136024820152724e6f742061737369676e656420746f20796f7560681b6044820152606401610748565b6004600082815260056020526040902060030154600160a01b900460ff16600681111561213157612131612645565b1461217e5760405162461bcd60e51b815260206004820152601f60248201527f4d65646963696e65206e6f74207368697070656420746f20796f7520796574006044820152606401610748565b60008181526005602081905260409182902060038101805460ff60a01b1916600560a01b17905542908201819055915133928492600080516020612abd833981519152926108aa92906128ba565b6060600060015b6001548111612220576000818152600560205260409020600201546001600160a01b0380861691160361220e578161220a81612969565b9250505b8061221881612969565b9150506121d3565b5060008167ffffffffffffffff81111561223c5761223c612a2d565b604051908082528060200260200182016040528015612265578160200160208202803683370190505b509050600060015b6001548111611325576000818152600560205260409020600201546001600160a01b038088169116036122c657808383815181106122ad576122ad612a43565b6020908102919091010152816122c281612969565b9250505b806122d081612969565b91505061226d565b6060600060045467ffffffffffffffff8111156122f7576122f7612a2d565b604051908082528060200260200182016040528015612320578160200160208202803683370190505b50905060015b60045481116113e4576000818152600860205260409020546001600160a01b031682612353600184612a59565b8151811061236357612363612a43565b6001600160a01b03909216602092830291909101909101528061238581612969565b915050612326565b60606000821180156123a157506001548211155b6123bd5760405162461bcd60e51b81526004016107489061288d565b600082815260056020526040812060030154600160a01b900460ff16908160068111156123ec576123ec612645565b0361241b57505060408051808201909152600c81526b13585b9d599858dd1d5c995960a21b6020820152919050565b600181600681111561242f5761242f612645565b03612458575050604080518082019091526006815265141858dad95960d21b6020820152919050565b600281600681111561246c5761246c612645565b036124a557505060408051808201909152601681527529b434b83832b2103a37902234b9ba3934b13aba37b960511b6020820152919050565b60038160068111156124b9576124b9612645565b036124f957505060408051808201909152601781527f5265636569766564206279204469737472696275746f720000000000000000006020820152919050565b600481600681111561250d5761250d612645565b0361254357505060408051808201909152601381527229b434b83832b2103a37902932ba30b4b632b960691b6020820152919050565b600581600681111561255757612557612645565b0361258e5750506040805180820190915260148152732932b1b2b4bb32b210313c902932ba30b4b632b960611b6020820152919050565b60068160068111156125a2576125a2612645565b036125c957505060408051808201909152600481526314dbdb1960e21b6020820152919050565b50506040805180820190915260078152662ab735b737bbb760c91b6020820152919050565b60006020828403121561260057600080fd5b5035919050565b80356001600160a01b038116811461261e57600080fd5b919050565b60006020828403121561263557600080fd5b61263e82612607565b9392505050565b634e487b7160e01b600052602160045260246000fd5b6007811061267957634e487b7160e01b600052602160045260246000fd5b9052565b6020810161268b828461265b565b92915050565b600060208083528351808285015260005b818110156126be578581018301518582016040015282016126a2565b506000604082860101526040601f19601f8301168501019250505092915050565b6020808252825182820181905260009190848201906040850190845b81811015612717578351835292840192918401916001016126fb565b50909695505050505050565b6020808252825182820181905260009190848201906040850190845b818110156127175783516001600160a01b03168352928401929184019160010161273f565b6000806040838503121561277757600080fd5b8235915061278760208401612607565b90509250929050565b8781526001600160a01b03878116602083015286811660408301528516606082015260e081016127c3608083018661265b565b60a082019390935260c0015295945050505050565b8a81526001600160a01b038a81166020830152898116604083015288166060820152610140810161280c608083018961265b565b60a082019690965260c081019490945260e08401929092526101008301526101209091015295945050505050565b60208082526033908201527f4f6e6c792072656769737465726564206469737472696275746f72732063616e6040820152721031b0b636103a3434b990333ab731ba34b7b760691b606082015260800190565b602080825260139082015272125b9d985b1a59081b59591a58da5b99481251606a1b604082015260600190565b604081016128c8828561265b565b8260208301529392505050565b60208082526034908201527f4f6e6c792072656769737465726564206d616e75666163747572657273206361604082015273371031b0b636103a3434b990333ab731ba34b7b760611b606082015260800190565b60208082526010908201526f139bdd081e5bdd5c881c1c9bd91d58dd60821b604082015260600190565b634e487b7160e01b600052601160045260246000fd5b60006001820161297b5761297b612953565b5060010190565b60208082526021908201527f4f6e6c79206f776e65722063616e2063616c6c20746869732066756e6374696f6040820152603760f91b606082015260800190565b6020808252600f908201526e496e76616c6964206164647265737360881b604082015260600190565b60208082526021908201527f4164647265737320697320616c72656164792061204d616e75666163747572656040820152603960f91b606082015260800190565b634e487b7160e01b600052604160045260246000fd5b634e487b7160e01b600052603260045260246000fd5b8181038181111561268b5761268b612953565b60208082526030908201527f4f6e6c7920726567697374657265642072657461696c6572732063616e20636160408201526f3636103a3434b990333ab731ba34b7b760811b60608201526080019056fed35079bd9f0d87556b38c1165117ccd975a6b3c2dd3c85342d8c02343bde1d9fa2646970667358221220457728ab2e83723e9cdd03a02021e8c5dc988d2ce9d86960fd7540a9a0b5190264736f6c63430008130033","opcodes":"PUSH1 0x80 PUSH1 0x40 MSTORE PUSH1 0x0 PUSH1 0x1 SSTORE PUSH1 0x0 PUSH1 0x2 SSTORE PUSH1 0x0 PUSH1 0x3 SSTORE PUSH1 0x0 PUSH1 0x4 SSTORE CALLVALUE DUP1 ISZERO PUSH2 0x24 JUMPI PUSH1 0x0 DUP1 REVERT JUMPDEST POP PUSH1 0x0 DUP1 SLOAD PUSH1 0x1 PUSH1 0x1 PUSH1 0xA0 SHL SUB NOT AND CALLER OR SWAP1 SSTORE PUSH2 0x2B12 DUP1 PUSH2 0x46 PUSH1 0x0 CODECOPY PUSH1 0x0 RETURN INVALID PUSH1 0x80 PUSH1 0x40 MSTORE CALLVALUE DUP1 ISZERO PUSH2 0x10 JUMPI PUSH1 0x0 DUP1 REVERT JUMPDEST POP PUSH1 0x4 CALLDATASIZE LT PUSH2 0x253 JUMPI PUSH1 0x0 CALLDATALOAD PUSH1 0xE0 SHR DUP1 PUSH4 0x8F0C86FA GT PUSH2 0x146 JUMPI DUP1 PUSH4 0xB6A3EAD6 GT PUSH2 0xC3 JUMPI DUP1 PUSH4 0xE101A2E0 GT PUSH2 0x87 JUMPI DUP1 PUSH4 0xE101A2E0 EQ PUSH2 0x633 JUMPI DUP1 PUSH4 0xEADEB84C EQ PUSH2 0x646 JUMPI DUP1 PUSH4 0xEB1A06B5 EQ PUSH2 0x64E JUMPI DUP1 PUSH4 0xED0B6D9C EQ PUSH2 0x6D4 JUMPI DUP1 PUSH4 0xF5E967F8 EQ PUSH2 0x6F4 JUMPI DUP1 PUSH4 0xF6EDF18C EQ PUSH2 0x714 JUMPI PUSH1 0x0 DUP1 REVERT JUMPDEST DUP1 PUSH4 0xB6A3EAD6 EQ PUSH2 0x5B0 JUMPI DUP1 PUSH4 0xBAF6430D EQ PUSH2 0x5C3 JUMPI DUP1 PUSH4 0xC934BC82 EQ PUSH2 0x5D6 JUMPI DUP1 PUSH4 0xCC403069 EQ PUSH2 0x5E9 JUMPI DUP1 PUSH4 0xD889A848 EQ PUSH2 0x62B JUMPI PUSH1 0x0 DUP1 REVERT JUMPDEST DUP1 PUSH4 0xA9416C9E GT PUSH2 0x10A JUMPI DUP1 PUSH4 0xA9416C9E EQ PUSH2 0x54E JUMPI DUP1 PUSH4 0xA95F29D9 EQ PUSH2 0x556 JUMPI DUP1 PUSH4 0xA9C58434 EQ PUSH2 0x55F JUMPI DUP1 PUSH4 0xACB9B2DD EQ PUSH2 0x572 JUMPI DUP1 PUSH4 0xB4A99A4E EQ PUSH2 0x585 JUMPI PUSH1 0x0 DUP1 REVERT JUMPDEST DUP1 PUSH4 0x8F0C86FA EQ PUSH2 0x4CF JUMPI DUP1 PUSH4 0x91341F90 EQ PUSH2 0x4FA JUMPI DUP1 PUSH4 0x994CAC90 EQ PUSH2 0x50D JUMPI DUP1 PUSH4 0x9A1E339E EQ PUSH2 0x515 JUMPI DUP1 PUSH4 0xA6742265 EQ PUSH2 0x528 JUMPI PUSH1 0x0 DUP1 REVERT JUMPDEST DUP1 PUSH4 0x51542BD4 GT PUSH2 0x1D4 JUMPI DUP1 PUSH4 0x7A3B970B GT PUSH2 0x198 JUMPI DUP1 PUSH4 0x7A3B970B EQ PUSH2 0x46B JUMPI DUP1 PUSH4 0x7E43D94D EQ PUSH2 0x48B JUMPI DUP1 PUSH4 0x8E24C34B EQ PUSH2 0x494 JUMPI DUP1 PUSH4 0x8EC4F505 EQ PUSH2 0x4A9 JUMPI DUP1 PUSH4 0x8F001323 EQ PUSH2 0x4BC JUMPI PUSH1 0x0 DUP1 REVERT JUMPDEST DUP1 PUSH4 0x51542BD4 EQ PUSH2 0x3D0 JUMPI DUP1 PUSH4 0x59BF286F EQ PUSH2 0x3D8 JUMPI DUP1 PUSH4 0x5DA09B88 EQ PUSH2 0x41A JUMPI DUP1 PUSH4 0x5F8A5AFA EQ PUSH2 0x445 JUMPI DUP1 PUSH4 0x7250E224 EQ PUSH2 0x458 JUMPI PUSH1 0x0 DUP1 REVERT JUMPDEST DUP1 PUSH4 0x2E325020 GT PUSH2 0x21B JUMPI DUP1 PUSH4 0x2E325020 EQ PUSH2 0x352 JUMPI DUP1 PUSH4 0x2F54BF6E EQ PUSH2 0x372 JUMPI DUP1 PUSH4 0x3B7E1E86 EQ PUSH2 0x394 JUMPI DUP1 PUSH4 0x438E9C4D EQ PUSH2 0x3A7 JUMPI DUP1 PUSH4 0x44276733 EQ PUSH2 0x3B0 JUMPI PUSH1 0x0 DUP1 REVERT JUMPDEST DUP1 PUSH4 0x2D82C55 EQ PUSH2 0x258 JUMPI DUP1 PUSH4 0x17D4A491 EQ PUSH2 0x26D JUMPI DUP1 PUSH4 0x221AA352 EQ PUSH2 0x2AD JUMPI DUP1 PUSH4 0x2B0187AC EQ PUSH2 0x2DB JUMPI DUP1 PUSH4 0x2BDB2E6B EQ PUSH2 0x349 JUMPI JUMPDEST PUSH1 0x0 DUP1 REVERT JUMPDEST PUSH2 0x26B PUSH2 0x266 CALLDATASIZE PUSH1 0x4 PUSH2 0x25EE JUMP JUMPDEST PUSH2 0x71C JUMP JUMPDEST STOP JUMPDEST PUSH2 0x298 PUSH2 0x27B CALLDATASIZE PUSH1 0x4 PUSH2 0x2623 JUMP JUMPDEST PUSH1 0x1 PUSH1 0x1 PUSH1 0xA0 SHL SUB AND PUSH1 0x0 SWAP1 DUP2 MSTORE PUSH1 0x9 PUSH1 0x20 MSTORE PUSH1 0x40 SWAP1 KECCAK256 SLOAD ISZERO ISZERO SWAP1 JUMP JUMPDEST PUSH1 0x40 MLOAD SWAP1 ISZERO ISZERO DUP2 MSTORE PUSH1 0x20 ADD JUMPDEST PUSH1 0x40 MLOAD DUP1 SWAP2 SUB SWAP1 RETURN JUMPDEST PUSH2 0x2CD PUSH2 0x2BB CALLDATASIZE PUSH1 0x4 PUSH2 0x2623 JUMP JUMPDEST PUSH1 0x9 PUSH1 0x20 MSTORE PUSH1 0x0 SWAP1 DUP2 MSTORE PUSH1 0x40 SWAP1 KECCAK256 SLOAD DUP2 JUMP JUMPDEST PUSH1 0x40 MLOAD SWAP1 DUP2 MSTORE PUSH1 0x20 ADD PUSH2 0x2A4 JUMP JUMPDEST PUSH2 0x31D PUSH2 0x2E9 CALLDATASIZE PUSH1 0x4 PUSH2 0x25EE JUMP JUMPDEST PUSH1 0x7 PUSH1 0x20 MSTORE PUSH1 0x0 SWAP1 DUP2 MSTORE PUSH1 0x40 SWAP1 KECCAK256 DUP1 SLOAD PUSH1 0x1 DUP3 ADD SLOAD PUSH1 0x2 DUP4 ADD SLOAD PUSH1 0x3 SWAP1 SWAP4 ADD SLOAD PUSH1 0x1 PUSH1 0x1 PUSH1 0xA0 SHL SUB SWAP1 SWAP3 AND SWAP3 SWAP1 SWAP2 PUSH1 0xFF AND DUP5 JUMP JUMPDEST PUSH1 0x40 DUP1 MLOAD PUSH1 0x1 PUSH1 0x1 PUSH1 0xA0 SHL SUB SWAP1 SWAP6 AND DUP6 MSTORE PUSH1 0x20 DUP6 ADD SWAP4 SWAP1 SWAP4 MSTORE SWAP2 DUP4 ADD MSTORE ISZERO ISZERO PUSH1 0x60 DUP3 ADD MSTORE PUSH1 0x80 ADD PUSH2 0x2A4 JUMP JUMPDEST PUSH2 0x2CD PUSH1 0x3 SLOAD DUP2 JUMP JUMPDEST PUSH2 0x365 PUSH2 0x360 CALLDATASIZE PUSH1 0x4 PUSH2 0x25EE JUMP JUMPDEST PUSH2 0x8B5 JUMP JUMPDEST PUSH1 0x40 MLOAD PUSH2 0x2A4 SWAP2 SWAP1 PUSH2 0x267D JUMP JUMPDEST PUSH2 0x298 PUSH2 0x380 CALLDATASIZE PUSH1 0x4 PUSH2 0x2623 JUMP JUMPDEST PUSH1 0x0 SLOAD PUSH1 0x1 PUSH1 0x1 PUSH1 0xA0 SHL SUB SWAP2 DUP3 AND SWAP2 AND EQ SWAP1 JUMP JUMPDEST PUSH2 0x26B PUSH2 0x3A2 CALLDATASIZE PUSH1 0x4 PUSH2 0x25EE JUMP JUMPDEST PUSH2 0x904 JUMP JUMPDEST PUSH2 0x2CD PUSH1 0x2 SLOAD DUP2 JUMP JUMPDEST PUSH2 0x3C3 PUSH2 0x3BE CALLDATASIZE PUSH1 0x4 PUSH2 0x2623 JUMP JUMPDEST PUSH2 0xA71 JUMP JUMPDEST PUSH1 0x40 MLOAD PUSH2 0x2A4 SWAP2 SWAP1 PUSH2 0x2691 JUMP JUMPDEST PUSH2 0x2CD PUSH2 0xBA0 JUMP JUMPDEST PUSH2 0x31D PUSH2 0x3E6 CALLDATASIZE PUSH1 0x4 PUSH2 0x25EE JUMP JUMPDEST PUSH1 0x8 PUSH1 0x20 MSTORE PUSH1 0x0 SWAP1 DUP2 MSTORE PUSH1 0x40 SWAP1 KECCAK256 DUP1 SLOAD PUSH1 0x1 DUP3 ADD SLOAD PUSH1 0x2 DUP4 ADD SLOAD PUSH1 0x3 SWAP1 SWAP4 ADD SLOAD PUSH1 0x1 PUSH1 0x1 PUSH1 0xA0 SHL SUB SWAP1 SWAP3 AND SWAP3 SWAP1 SWAP2 PUSH1 0xFF AND DUP5 JUMP JUMPDEST PUSH2 0x298 PUSH2 0x428 CALLDATASIZE PUSH1 0x4 PUSH2 0x2623 JUMP JUMPDEST PUSH1 0x1 PUSH1 0x1 PUSH1 0xA0 SHL SUB AND PUSH1 0x0 SWAP1 DUP2 MSTORE PUSH1 0xB PUSH1 0x20 MSTORE PUSH1 0x40 SWAP1 KECCAK256 SLOAD ISZERO ISZERO SWAP1 JUMP JUMPDEST PUSH2 0x26B PUSH2 0x453 CALLDATASIZE PUSH1 0x4 PUSH2 0x2623 JUMP JUMPDEST PUSH2 0xD4A JUMP JUMPDEST PUSH2 0x26B PUSH2 0x466 CALLDATASIZE PUSH1 0x4 PUSH2 0x2623 JUMP JUMPDEST PUSH2 0xFCE JUMP JUMPDEST PUSH2 0x47E PUSH2 0x479 CALLDATASIZE PUSH1 0x4 PUSH2 0x2623 JUMP JUMPDEST PUSH2 0x1219 JUMP JUMPDEST PUSH1 0x40 MLOAD PUSH2 0x2A4 SWAP2 SWAP1 PUSH2 0x26DF JUMP JUMPDEST PUSH2 0x2CD PUSH1 0x4 SLOAD DUP2 JUMP JUMPDEST PUSH2 0x49C PUSH2 0x132F JUMP JUMPDEST PUSH1 0x40 MLOAD PUSH2 0x2A4 SWAP2 SWAP1 PUSH2 0x2723 JUMP JUMPDEST PUSH2 0x26B PUSH2 0x4B7 CALLDATASIZE PUSH1 0x4 PUSH2 0x2623 JUMP JUMPDEST PUSH2 0x13EA JUMP JUMPDEST PUSH2 0x26B PUSH2 0x4CA CALLDATASIZE PUSH1 0x4 PUSH2 0x25EE JUMP JUMPDEST PUSH2 0x163B JUMP JUMPDEST PUSH2 0x298 PUSH2 0x4DD CALLDATASIZE PUSH1 0x4 PUSH2 0x2623 JUMP JUMPDEST PUSH1 0x1 PUSH1 0x1 PUSH1 0xA0 SHL SUB AND PUSH1 0x0 SWAP1 DUP2 MSTORE PUSH1 0xA PUSH1 0x20 MSTORE PUSH1 0x40 SWAP1 KECCAK256 SLOAD ISZERO ISZERO SWAP1 JUMP JUMPDEST PUSH2 0x26B PUSH2 0x508 CALLDATASIZE PUSH1 0x4 PUSH2 0x2764 JUMP JUMPDEST PUSH2 0x178F JUMP JUMPDEST PUSH1 0x4 SLOAD PUSH2 0x2CD JUMP JUMPDEST PUSH2 0x47E PUSH2 0x523 CALLDATASIZE PUSH1 0x4 PUSH2 0x2623 JUMP JUMPDEST PUSH2 0x1998 JUMP JUMPDEST PUSH2 0x53B PUSH2 0x536 CALLDATASIZE PUSH1 0x4 PUSH2 0x25EE JUMP JUMPDEST PUSH2 0x1B16 JUMP JUMPDEST PUSH1 0x40 MLOAD PUSH2 0x2A4 SWAP8 SWAP7 SWAP6 SWAP5 SWAP4 SWAP3 SWAP2 SWAP1 PUSH2 0x2790 JUMP JUMPDEST PUSH1 0x2 SLOAD PUSH2 0x2CD JUMP JUMPDEST PUSH2 0x2CD PUSH1 0x1 SLOAD DUP2 JUMP JUMPDEST PUSH2 0x47E PUSH2 0x56D CALLDATASIZE PUSH1 0x4 PUSH2 0x2623 JUMP JUMPDEST PUSH2 0x1BA6 JUMP JUMPDEST PUSH2 0x26B PUSH2 0x580 CALLDATASIZE PUSH1 0x4 PUSH2 0x2764 JUMP JUMPDEST PUSH2 0x1CB2 JUMP JUMPDEST PUSH1 0x0 SLOAD PUSH2 0x598 SWAP1 PUSH1 0x1 PUSH1 0x1 PUSH1 0xA0 SHL SUB AND DUP2 JUMP JUMPDEST PUSH1 0x40 MLOAD PUSH1 0x1 PUSH1 0x1 PUSH1 0xA0 SHL SUB SWAP1 SWAP2 AND DUP2 MSTORE PUSH1 0x20 ADD PUSH2 0x2A4 JUMP JUMPDEST PUSH2 0x47E PUSH2 0x5BE CALLDATASIZE PUSH1 0x4 PUSH2 0x2623 JUMP JUMPDEST PUSH2 0x1ECB JUMP JUMPDEST PUSH2 0x26B PUSH2 0x5D1 CALLDATASIZE PUSH1 0x4 PUSH2 0x25EE JUMP JUMPDEST PUSH2 0x2049 JUMP JUMPDEST PUSH2 0x47E PUSH2 0x5E4 CALLDATASIZE PUSH1 0x4 PUSH2 0x2623 JUMP JUMPDEST PUSH2 0x21CC JUMP JUMPDEST PUSH2 0x31D PUSH2 0x5F7 CALLDATASIZE PUSH1 0x4 PUSH2 0x25EE JUMP JUMPDEST PUSH1 0x6 PUSH1 0x20 MSTORE PUSH1 0x0 SWAP1 DUP2 MSTORE PUSH1 0x40 SWAP1 KECCAK256 DUP1 SLOAD PUSH1 0x1 DUP3 ADD SLOAD PUSH1 0x2 DUP4 ADD SLOAD PUSH1 0x3 SWAP1 SWAP4 ADD SLOAD PUSH1 0x1 PUSH1 0x1 PUSH1 0xA0 SHL SUB SWAP1 SWAP3 AND SWAP3 SWAP1 SWAP2 PUSH1 0xFF AND DUP5 JUMP JUMPDEST PUSH2 0x49C PUSH2 0x22D8 JUMP JUMPDEST PUSH2 0x3C3 PUSH2 0x641 CALLDATASIZE PUSH1 0x4 PUSH2 0x25EE JUMP JUMPDEST PUSH2 0x238D JUMP JUMPDEST PUSH1 0x1 SLOAD PUSH2 0x2CD JUMP JUMPDEST PUSH2 0x6BE PUSH2 0x65C CALLDATASIZE PUSH1 0x4 PUSH2 0x25EE JUMP JUMPDEST PUSH1 0x5 PUSH1 0x20 DUP2 SWAP1 MSTORE PUSH1 0x0 SWAP2 DUP3 MSTORE PUSH1 0x40 SWAP1 SWAP2 KECCAK256 DUP1 SLOAD PUSH1 0x1 DUP3 ADD SLOAD PUSH1 0x2 DUP4 ADD SLOAD PUSH1 0x3 DUP5 ADD SLOAD PUSH1 0x4 DUP6 ADD SLOAD SWAP6 DUP6 ADD SLOAD PUSH1 0x6 DUP7 ADD SLOAD PUSH1 0x7 DUP8 ADD SLOAD PUSH1 0x8 SWAP1 SWAP8 ADD SLOAD SWAP6 SWAP8 PUSH1 0x1 PUSH1 0x1 PUSH1 0xA0 SHL SUB SWAP6 DUP7 AND SWAP8 SWAP5 DUP7 AND SWAP7 SWAP6 DUP5 AND SWAP6 PUSH1 0x1 PUSH1 0xA0 SHL SWAP1 SWAP5 DIV PUSH1 0xFF AND SWAP5 SWAP1 SWAP4 DUP11 JUMP JUMPDEST PUSH1 0x40 MLOAD PUSH2 0x2A4 SWAP11 SWAP10 SWAP9 SWAP8 SWAP7 SWAP6 SWAP5 SWAP4 SWAP3 SWAP2 SWAP1 PUSH2 0x27D8 JUMP JUMPDEST PUSH2 0x2CD PUSH2 0x6E2 CALLDATASIZE PUSH1 0x4 PUSH2 0x2623 JUMP JUMPDEST PUSH1 0xA PUSH1 0x20 MSTORE PUSH1 0x0 SWAP1 DUP2 MSTORE PUSH1 0x40 SWAP1 KECCAK256 SLOAD DUP2 JUMP JUMPDEST PUSH2 0x2CD PUSH2 0x702 CALLDATASIZE PUSH1 0x4 PUSH2 0x2623 JUMP JUMPDEST PUSH1 0xB PUSH1 0x20 MSTORE PUSH1 0x0 SWAP1 DUP2 MSTORE PUSH1 0x40 SWAP1 KECCAK256 SLOAD DUP2 JUMP JUMPDEST PUSH1 0x3 SLOAD PUSH2 0x2CD JUMP JUMPDEST CALLER PUSH1 0x0 SWAP1 DUP2 MSTORE PUSH1 0xA PUSH1 0x20 MSTORE PUSH1 0x40 SWAP1 KECCAK256 SLOAD PUSH2 0x751 JUMPI PUSH1 0x40 MLOAD PUSH3 0x461BCD PUSH1 0xE5 SHL DUP2 MSTORE PUSH1 0x4 ADD PUSH2 0x748 SWAP1 PUSH2 0x283A JUMP JUMPDEST PUSH1 0x40 MLOAD DUP1 SWAP2 SUB SWAP1 REVERT JUMPDEST PUSH1 0x0 DUP2 GT DUP1 ISZERO PUSH2 0x763 JUMPI POP PUSH1 0x1 SLOAD DUP2 GT ISZERO JUMPDEST PUSH2 0x77F JUMPI PUSH1 0x40 MLOAD PUSH3 0x461BCD PUSH1 0xE5 SHL DUP2 MSTORE PUSH1 0x4 ADD PUSH2 0x748 SWAP1 PUSH2 0x288D JUMP JUMPDEST PUSH1 0x0 DUP2 DUP2 MSTORE PUSH1 0x5 PUSH1 0x20 MSTORE PUSH1 0x40 SWAP1 KECCAK256 PUSH1 0x2 ADD SLOAD PUSH1 0x1 PUSH1 0x1 PUSH1 0xA0 SHL SUB AND CALLER EQ PUSH2 0x7DE JUMPI PUSH1 0x40 MLOAD PUSH3 0x461BCD PUSH1 0xE5 SHL DUP2 MSTORE PUSH1 0x20 PUSH1 0x4 DUP3 ADD MSTORE PUSH1 0x13 PUSH1 0x24 DUP3 ADD MSTORE PUSH19 0x4E6F742061737369676E656420746F20796F75 PUSH1 0x68 SHL PUSH1 0x44 DUP3 ADD MSTORE PUSH1 0x64 ADD PUSH2 0x748 JUMP JUMPDEST PUSH1 0x2 PUSH1 0x0 DUP3 DUP2 MSTORE PUSH1 0x5 PUSH1 0x20 MSTORE PUSH1 0x40 SWAP1 KECCAK256 PUSH1 0x3 ADD SLOAD PUSH1 0x1 PUSH1 0xA0 SHL SWAP1 DIV PUSH1 0xFF AND PUSH1 0x6 DUP2 GT ISZERO PUSH2 0x80D JUMPI PUSH2 0x80D PUSH2 0x2645 JUMP JUMPDEST EQ PUSH2 0x85A JUMPI PUSH1 0x40 MLOAD PUSH3 0x461BCD PUSH1 0xE5 SHL DUP2 MSTORE PUSH1 0x20 PUSH1 0x4 DUP3 ADD MSTORE PUSH1 0x1F PUSH1 0x24 DUP3 ADD MSTORE PUSH32 0x4D65646963696E65206E6F74207368697070656420746F20796F752079657400 PUSH1 0x44 DUP3 ADD MSTORE PUSH1 0x64 ADD PUSH2 0x748 JUMP JUMPDEST PUSH1 0x0 DUP2 DUP2 MSTORE PUSH1 0x5 PUSH1 0x20 DUP2 SWAP1 MSTORE PUSH1 0x40 SWAP2 DUP3 SWAP1 KECCAK256 PUSH1 0x3 DUP1 DUP3 ADD DUP1 SLOAD PUSH1 0xFF PUSH1 0xA0 SHL NOT AND PUSH1 0x3 PUSH1 0xA0 SHL OR SWAP1 SSTORE TIMESTAMP SWAP2 SWAP1 SWAP3 ADD DUP2 SWAP1 SSTORE SWAP2 MLOAD CALLER SWAP3 DUP5 SWAP3 PUSH1 0x0 DUP1 MLOAD PUSH1 0x20 PUSH2 0x2ABD DUP4 CODECOPY DUP2 MLOAD SWAP2 MSTORE SWAP3 PUSH2 0x8AA SWAP3 SWAP1 PUSH2 0x28BA JUMP JUMPDEST PUSH1 0x40 MLOAD DUP1 SWAP2 SUB SWAP1 LOG3 POP JUMP JUMPDEST PUSH1 0x0 DUP1 DUP3 GT DUP1 ISZERO PUSH2 0x8C8 JUMPI POP PUSH1 0x1 SLOAD DUP3 GT ISZERO JUMPDEST PUSH2 0x8E4 JUMPI PUSH1 0x40 MLOAD PUSH3 0x461BCD PUSH1 0xE5 SHL DUP2 MSTORE PUSH1 0x4 ADD PUSH2 0x748 SWAP1 PUSH2 0x288D JUMP JUMPDEST POP PUSH1 0x0 SWAP1 DUP2 MSTORE PUSH1 0x5 PUSH1 0x20 MSTORE PUSH1 0x40 SWAP1 KECCAK256 PUSH1 0x3 ADD SLOAD PUSH1 0x1 PUSH1 0xA0 SHL SWAP1 DIV PUSH1 0xFF AND SWAP1 JUMP JUMPDEST CALLER PUSH1 0x0 SWAP1 DUP2 MSTORE PUSH1 0x9 PUSH1 0x20 MSTORE PUSH1 0x40 SWAP1 KECCAK256 SLOAD PUSH2 0x930 JUMPI PUSH1 0x40 MLOAD PUSH3 0x461BCD PUSH1 0xE5 SHL DUP2 MSTORE PUSH1 0x4 ADD PUSH2 0x748 SWAP1 PUSH2 0x28D5 JUMP JUMPDEST PUSH1 0x0 DUP2 GT DUP1 ISZERO PUSH2 0x942 JUMPI POP PUSH1 0x1 SLOAD DUP2 GT ISZERO JUMPDEST PUSH2 0x95E JUMPI PUSH1 0x40 MLOAD PUSH3 0x461BCD PUSH1 0xE5 SHL DUP2 MSTORE PUSH1 0x4 ADD PUSH2 0x748 SWAP1 PUSH2 0x288D JUMP JUMPDEST PUSH1 0x0 DUP2 DUP2 MSTORE PUSH1 0x5 PUSH1 0x20 MSTORE PUSH1 0x40 SWAP1 KECCAK256 PUSH1 0x1 ADD SLOAD PUSH1 0x1 PUSH1 0x1 PUSH1 0xA0 SHL SUB AND CALLER EQ PUSH2 0x997 JUMPI PUSH1 0x40 MLOAD PUSH3 0x461BCD PUSH1 0xE5 SHL DUP2 MSTORE PUSH1 0x4 ADD PUSH2 0x748 SWAP1 PUSH2 0x2929 JUMP JUMPDEST PUSH1 0x0 DUP1 DUP3 DUP2 MSTORE PUSH1 0x5 PUSH1 0x20 MSTORE PUSH1 0x40 SWAP1 KECCAK256 PUSH1 0x3 ADD SLOAD PUSH1 0x1 PUSH1 0xA0 SHL SWAP1 DIV PUSH1 0xFF AND PUSH1 0x6 DUP2 GT ISZERO PUSH2 0x9C5 JUMPI PUSH2 0x9C5 PUSH2 0x2645 JUMP JUMPDEST EQ PUSH2 0xA21 JUMPI PUSH1 0x40 MLOAD PUSH3 0x461BCD PUSH1 0xE5 SHL DUP2 MSTORE PUSH1 0x20 PUSH1 0x4 DUP3 ADD MSTORE PUSH1 0x26 PUSH1 0x24 DUP3 ADD MSTORE PUSH32 0x4D65646963696E65206D75737420626520696E204D616E756661637475726564 PUSH1 0x44 DUP3 ADD MSTORE PUSH6 0x207374616765 PUSH1 0xD0 SHL PUSH1 0x64 DUP3 ADD MSTORE PUSH1 0x84 ADD PUSH2 0x748 JUMP JUMPDEST PUSH1 0x0 DUP2 DUP2 MSTORE PUSH1 0x5 PUSH1 0x20 DUP2 SWAP1 MSTORE PUSH1 0x40 SWAP2 DUP3 SWAP1 KECCAK256 PUSH1 0x3 DUP2 ADD DUP1 SLOAD PUSH1 0xFF PUSH1 0xA0 SHL NOT AND PUSH1 0x1 PUSH1 0xA0 SHL OR SWAP1 SSTORE TIMESTAMP SWAP2 ADD DUP2 SWAP1 SSTORE SWAP1 MLOAD CALLER SWAP2 DUP4 SWAP2 PUSH1 0x0 DUP1 MLOAD PUSH1 0x20 PUSH2 0x2ABD DUP4 CODECOPY DUP2 MLOAD SWAP2 MSTORE SWAP2 PUSH2 0x8AA SWAP2 PUSH1 0x1 SWAP2 SWAP1 PUSH2 0x28BA JUMP JUMPDEST PUSH1 0x0 SLOAD PUSH1 0x60 SWAP1 PUSH1 0x1 PUSH1 0x1 PUSH1 0xA0 SHL SUB SWAP1 DUP2 AND SWAP1 DUP4 AND SUB PUSH2 0xAAB JUMPI POP POP PUSH1 0x40 DUP1 MLOAD DUP1 DUP3 ADD SWAP1 SWAP2 MSTORE PUSH1 0x5 DUP2 MSTORE PUSH5 0x27BBB732B9 PUSH1 0xD9 SHL PUSH1 0x20 DUP3 ADD MSTORE SWAP1 JUMP JUMPDEST PUSH1 0x1 PUSH1 0x1 PUSH1 0xA0 SHL SUB DUP3 AND PUSH1 0x0 SWAP1 DUP2 MSTORE PUSH1 0x9 PUSH1 0x20 MSTORE PUSH1 0x40 SWAP1 KECCAK256 SLOAD ISZERO PUSH2 0xAF1 JUMPI POP POP PUSH1 0x40 DUP1 MLOAD DUP1 DUP3 ADD SWAP1 SWAP2 MSTORE PUSH1 0xC DUP2 MSTORE PUSH12 0x26B0B73AB330B1BA3AB932B9 PUSH1 0xA1 SHL PUSH1 0x20 DUP3 ADD MSTORE SWAP1 JUMP JUMPDEST PUSH1 0x1 PUSH1 0x1 PUSH1 0xA0 SHL SUB DUP3 AND PUSH1 0x0 SWAP1 DUP2 MSTORE PUSH1 0xA PUSH1 0x20 MSTORE PUSH1 0x40 SWAP1 KECCAK256 SLOAD ISZERO PUSH2 0xB36 JUMPI POP POP PUSH1 0x40 DUP1 MLOAD DUP1 DUP3 ADD SWAP1 SWAP2 MSTORE PUSH1 0xB DUP2 MSTORE PUSH11 0x2234B9BA3934B13ABA37B9 PUSH1 0xA9 SHL PUSH1 0x20 DUP3 ADD MSTORE SWAP1 JUMP JUMPDEST PUSH1 0x1 PUSH1 0x1 PUSH1 0xA0 SHL SUB DUP3 AND PUSH1 0x0 SWAP1 DUP2 MSTORE PUSH1 0xB PUSH1 0x20 MSTORE PUSH1 0x40 SWAP1 KECCAK256 SLOAD ISZERO PUSH2 0xB78 JUMPI POP POP PUSH1 0x40 DUP1 MLOAD DUP1 DUP3 ADD SWAP1 SWAP2 MSTORE PUSH1 0x8 DUP2 MSTORE PUSH8 0x2932BA30B4B632B9 PUSH1 0xC1 SHL PUSH1 0x20 DUP3 ADD MSTORE SWAP1 JUMP JUMPDEST POP POP PUSH1 0x40 DUP1 MLOAD DUP1 DUP3 ADD SWAP1 SWAP2 MSTORE PUSH1 0xC DUP2 MSTORE PUSH12 0x155B9C9959DA5CDD195C9959 PUSH1 0xA2 SHL PUSH1 0x20 DUP3 ADD MSTORE SWAP1 JUMP JUMPDEST CALLER PUSH1 0x0 SWAP1 DUP2 MSTORE PUSH1 0x9 PUSH1 0x20 MSTORE PUSH1 0x40 DUP2 KECCAK256 SLOAD PUSH2 0xBCC JUMPI PUSH1 0x40 MLOAD PUSH3 0x461BCD PUSH1 0xE5 SHL DUP2 MSTORE PUSH1 0x4 ADD PUSH2 0x748 SWAP1 PUSH2 0x28D5 JUMP JUMPDEST PUSH1 0x1 DUP1 SLOAD SWAP1 PUSH1 0x0 PUSH2 0xBDC DUP4 PUSH2 0x2969 JUMP JUMPDEST SWAP1 SWAP2 SSTORE POP POP CALLER PUSH1 0x0 DUP2 DUP2 MSTORE PUSH1 0x9 PUSH1 0x20 SWAP1 DUP2 MSTORE PUSH1 0x40 DUP1 DUP4 KECCAK256 SLOAD DUP2 MLOAD PUSH2 0x140 DUP2 ADD DUP4 MSTORE PUSH1 0x1 DUP1 SLOAD DUP1 DUP4 MSTORE DUP3 DUP7 ADD SWAP8 DUP9 MSTORE DUP3 DUP6 ADD DUP8 DUP2 MSTORE PUSH1 0x60 DUP5 ADD DUP9 DUP2 MSTORE PUSH1 0x80 DUP6 ADD DUP10 DUP2 MSTORE TIMESTAMP PUSH1 0xA0 DUP8 ADD DUP2 SWAP1 MSTORE PUSH1 0xC0 DUP8 ADD DUP2 SWAP1 MSTORE PUSH1 0xE0 DUP8 ADD DUP9 SWAP1 MSTORE PUSH2 0x100 DUP8 ADD DUP12 SWAP1 MSTORE PUSH2 0x120 DUP8 ADD DUP12 SWAP1 MSTORE SWAP4 DUP11 MSTORE PUSH1 0x5 SWAP1 SWAP9 MSTORE SWAP6 SWAP1 SWAP8 KECCAK256 DUP4 MLOAD DUP2 SSTORE SWAP8 MLOAD SWAP2 DUP9 ADD DUP1 SLOAD PUSH1 0x1 PUSH1 0x1 PUSH1 0xA0 SHL SUB NOT SWAP1 DUP2 AND PUSH1 0x1 PUSH1 0x1 PUSH1 0xA0 SHL SUB SWAP5 DUP6 AND OR SWAP1 SWAP2 SSTORE SWAP7 MLOAD PUSH1 0x2 DUP10 ADD DUP1 SLOAD DUP10 AND SWAP2 DUP5 AND SWAP2 SWAP1 SWAP2 OR SWAP1 SSTORE SWAP4 MLOAD PUSH1 0x3 DUP9 ADD DUP1 SLOAD SWAP8 DUP9 AND SWAP2 SWAP1 SWAP3 AND SWAP1 DUP2 OR DUP3 SSTORE SWAP5 MLOAD SWAP4 SWAP7 SWAP3 SWAP6 SWAP2 SWAP5 SWAP3 SWAP4 SWAP3 SWAP1 SWAP2 PUSH1 0x1 PUSH1 0x1 PUSH1 0xA8 SHL SUB NOT AND OR PUSH1 0x1 PUSH1 0xA0 SHL DUP4 PUSH1 0x6 DUP2 GT ISZERO PUSH2 0xCCC JUMPI PUSH2 0xCCC PUSH2 0x2645 JUMP JUMPDEST MUL OR SWAP1 SSTORE POP PUSH1 0xA0 DUP3 ADD MLOAD PUSH1 0x4 DUP3 ADD SSTORE PUSH1 0xC0 DUP3 ADD MLOAD PUSH1 0x5 DUP3 ADD SSTORE PUSH1 0xE0 DUP3 ADD MLOAD PUSH1 0x6 DUP3 ADD SSTORE PUSH2 0x100 DUP3 ADD MLOAD PUSH1 0x7 DUP3 ADD SSTORE PUSH2 0x120 SWAP1 SWAP2 ADD MLOAD PUSH1 0x8 SWAP1 SWAP2 ADD SSTORE PUSH1 0x1 SLOAD PUSH1 0x40 MLOAD DUP4 DUP2 MSTORE CALLER SWAP2 SWAP1 PUSH32 0x6AC99A0D37FC8F971D56B54FD2CB2AA9A5F6EF52EB1EA570CA7EE2F8E8E7E005 SWAP1 PUSH1 0x20 ADD PUSH1 0x40 MLOAD DUP1 SWAP2 SUB SWAP1 LOG3 PUSH1 0x1 SLOAD SWAP3 POP POP POP SWAP1 JUMP JUMPDEST PUSH1 0x0 SLOAD PUSH1 0x1 PUSH1 0x1 PUSH1 0xA0 SHL SUB AND CALLER EQ PUSH2 0xD74 JUMPI PUSH1 0x40 MLOAD PUSH3 0x461BCD PUSH1 0xE5 SHL DUP2 MSTORE PUSH1 0x4 ADD PUSH2 0x748 SWAP1 PUSH2 0x2982 JUMP JUMPDEST PUSH1 0x1 PUSH1 0x1 PUSH1 0xA0 SHL SUB DUP2 AND PUSH2 0xD9A JUMPI PUSH1 0x40 MLOAD PUSH3 0x461BCD PUSH1 0xE5 SHL DUP2 MSTORE PUSH1 0x4 ADD PUSH2 0x748 SWAP1 PUSH2 0x29C3 JUMP JUMPDEST PUSH1 0x1 PUSH1 0x1 PUSH1 0xA0 SHL SUB DUP2 AND PUSH1 0x0 SWAP1 DUP2 MSTORE PUSH1 0x9 PUSH1 0x20 MSTORE PUSH1 0x40 SWAP1 KECCAK256 SLOAD ISZERO PUSH2 0xE00 JUMPI PUSH1 0x40 MLOAD PUSH3 0x461BCD PUSH1 0xE5 SHL DUP2 MSTORE PUSH1 0x20 PUSH1 0x4 DUP3 ADD MSTORE PUSH1 0x1F PUSH1 0x24 DUP3 ADD MSTORE PUSH32 0x4D616E75666163747572657220616C7265616479207265676973746572656400 PUSH1 0x44 DUP3 ADD MSTORE PUSH1 0x64 ADD PUSH2 0x748 JUMP JUMPDEST PUSH1 0x1 PUSH1 0x1 PUSH1 0xA0 SHL SUB DUP2 AND PUSH1 0x0 SWAP1 DUP2 MSTORE PUSH1 0xA PUSH1 0x20 MSTORE PUSH1 0x40 SWAP1 KECCAK256 SLOAD ISZERO PUSH2 0xE66 JUMPI PUSH1 0x40 MLOAD PUSH3 0x461BCD PUSH1 0xE5 SHL DUP2 MSTORE PUSH1 0x20 PUSH1 0x4 DUP3 ADD DUP2 SWAP1 MSTORE PUSH1 0x24 DUP3 ADD MSTORE PUSH32 0x4164647265737320697320616C72656164792061204469737472696275746F72 PUSH1 0x44 DUP3 ADD MSTORE PUSH1 0x64 ADD PUSH2 0x748 JUMP JUMPDEST PUSH1 0x1 PUSH1 0x1 PUSH1 0xA0 SHL SUB DUP2 AND PUSH1 0x0 SWAP1 DUP2 MSTORE PUSH1 0xB PUSH1 0x20 MSTORE PUSH1 0x40 SWAP1 KECCAK256 SLOAD ISZERO PUSH2 0xECC JUMPI PUSH1 0x40 MLOAD PUSH3 0x461BCD PUSH1 0xE5 SHL DUP2 MSTORE PUSH1 0x20 PUSH1 0x4 DUP3 ADD MSTORE PUSH1 0x1D PUSH1 0x24 DUP3 ADD MSTORE PUSH32 0x4164647265737320697320616C726561647920612052657461696C6572000000 PUSH1 0x44 DUP3 ADD MSTORE PUSH1 0x64 ADD PUSH2 0x748 JUMP JUMPDEST PUSH1 0x2 DUP1 SLOAD SWAP1 PUSH1 0x0 PUSH2 0xEDC DUP4 PUSH2 0x2969 JUMP JUMPDEST SWAP1 SWAP2 SSTORE POP POP PUSH1 0x40 DUP1 MLOAD PUSH1 0x80 DUP1 DUP3 ADD DUP4 MSTORE PUSH1 0x1 PUSH1 0x1 PUSH1 0xA0 SHL SUB DUP5 DUP2 AND DUP1 DUP5 MSTORE PUSH1 0x2 DUP1 SLOAD PUSH1 0x20 DUP1 DUP8 ADD DUP3 DUP2 MSTORE TIMESTAMP DUP9 DUP11 ADD DUP2 DUP2 MSTORE PUSH1 0x1 PUSH1 0x60 DUP1 DUP13 ADD DUP3 DUP2 MSTORE PUSH1 0x0 SWAP8 DUP9 MSTORE PUSH1 0x6 DUP8 MSTORE DUP14 DUP9 KECCAK256 SWAP13 MLOAD DUP14 SLOAD PUSH1 0x1 PUSH1 0x1 PUSH1 0xA0 SHL SUB NOT AND SWAP12 AND SWAP11 SWAP1 SWAP11 OR DUP13 SSTORE SWAP4 MLOAD SWAP1 DUP12 ADD SSTORE MLOAD DUP10 DUP7 ADD SSTORE SWAP6 MLOAD PUSH1 0x3 SWAP1 SWAP9 ADD DUP1 SLOAD PUSH1 0xFF NOT AND SWAP9 ISZERO ISZERO SWAP9 SWAP1 SWAP9 OR SWAP1 SWAP8 SSTORE SWAP2 SLOAD DUP4 DUP3 MSTORE PUSH1 0x9 DUP4 MSTORE SWAP1 DUP8 SWAP1 KECCAK256 DUP2 SWAP1 SSTORE DUP7 MLOAD DUP7 DUP2 MSTORE PUSH1 0xC SWAP7 DUP2 ADD SWAP7 SWAP1 SWAP7 MSTORE PUSH12 0x26B0B73AB330B1BA3AB932B9 PUSH1 0xA1 SHL SWAP5 DUP7 ADD SWAP5 SWAP1 SWAP5 MSTORE DUP5 ADD SWAP3 SWAP1 SWAP3 MSTORE SWAP3 DUP3 ADD SWAP3 SWAP1 SWAP3 MSTORE PUSH32 0x23A9F014965BA86132366AF52ECB128B27C75542A5B4659B6557D5CF25A2884C SWAP1 PUSH1 0xA0 ADD JUMPDEST PUSH1 0x40 MLOAD DUP1 SWAP2 SUB SWAP1 LOG2 POP JUMP JUMPDEST PUSH1 0x0 SLOAD PUSH1 0x1 PUSH1 0x1 PUSH1 0xA0 SHL SUB AND CALLER EQ PUSH2 0xFF8 JUMPI PUSH1 0x40 MLOAD PUSH3 0x461BCD PUSH1 0xE5 SHL DUP2 MSTORE PUSH1 0x4 ADD PUSH2 0x748 SWAP1 PUSH2 0x2982 JUMP JUMPDEST PUSH1 0x1 PUSH1 0x1 PUSH1 0xA0 SHL SUB DUP2 AND PUSH2 0x101E JUMPI PUSH1 0x40 MLOAD PUSH3 0x461BCD PUSH1 0xE5 SHL DUP2 MSTORE PUSH1 0x4 ADD PUSH2 0x748 SWAP1 PUSH2 0x29C3 JUMP JUMPDEST PUSH1 0x1 PUSH1 0x1 PUSH1 0xA0 SHL SUB DUP2 AND PUSH1 0x0 SWAP1 DUP2 MSTORE PUSH1 0xA PUSH1 0x20 MSTORE PUSH1 0x40 SWAP1 KECCAK256 SLOAD ISZERO PUSH2 0x1084 JUMPI PUSH1 0x40 MLOAD PUSH3 0x461BCD PUSH1 0xE5 SHL DUP2 MSTORE PUSH1 0x20 PUSH1 0x4 DUP3 ADD MSTORE PUSH1 0x1E PUSH1 0x24 DUP3 ADD MSTORE PUSH32 0x4469737472696275746F7220616C726561647920726567697374657265640000 PUSH1 0x44 DUP3 ADD MSTORE PUSH1 0x64 ADD PUSH2 0x748 JUMP JUMPDEST PUSH1 0x1 PUSH1 0x1 PUSH1 0xA0 SHL SUB DUP2 AND PUSH1 0x0 SWAP1 DUP2 MSTORE PUSH1 0x9 PUSH1 0x20 MSTORE PUSH1 0x40 SWAP1 KECCAK256 SLOAD ISZERO PUSH2 0x10BA JUMPI PUSH1 0x40 MLOAD PUSH3 0x461BCD PUSH1 0xE5 SHL DUP2 MSTORE PUSH1 0x4 ADD PUSH2 0x748 SWAP1 PUSH2 0x29EC JUMP JUMPDEST PUSH1 0x1 PUSH1 0x1 PUSH1 0xA0 SHL SUB DUP2 AND PUSH1 0x0 SWAP1 DUP2 MSTORE PUSH1 0xB PUSH1 0x20 MSTORE PUSH1 0x40 SWAP1 KECCAK256 SLOAD ISZERO PUSH2 0x1120 JUMPI PUSH1 0x40 MLOAD PUSH3 0x461BCD PUSH1 0xE5 SHL DUP2 MSTORE PUSH1 0x20 PUSH1 0x4 DUP3 ADD MSTORE PUSH1 0x1D PUSH1 0x24 DUP3 ADD MSTORE PUSH32 0x4164647265737320697320616C726561647920612052657461696C6572000000 PUSH1 0x44 DUP3 ADD MSTORE PUSH1 0x64 ADD PUSH2 0x748 JUMP JUMPDEST PUSH1 0x3 DUP1 SLOAD SWAP1 PUSH1 0x0 PUSH2 0x1130 DUP4 PUSH2 0x2969 JUMP JUMPDEST SWAP1 SWAP2 SSTORE POP POP PUSH1 0x40 DUP1 MLOAD PUSH1 0x80 DUP1 DUP3 ADD DUP4 MSTORE PUSH1 0x1 PUSH1 0x1 PUSH1 0xA0 SHL SUB DUP5 DUP2 AND DUP1 DUP5 MSTORE PUSH1 0x3 DUP1 SLOAD PUSH1 0x20 DUP1 DUP8 ADD DUP3 DUP2 MSTORE TIMESTAMP DUP9 DUP11 ADD DUP2 DUP2 MSTORE PUSH1 0x1 PUSH1 0x60 DUP1 DUP13 ADD DUP3 DUP2 MSTORE PUSH1 0x0 SWAP8 DUP9 MSTORE PUSH1 0x7 DUP8 MSTORE DUP14 DUP9 KECCAK256 SWAP13 MLOAD DUP14 SLOAD PUSH1 0x1 PUSH1 0x1 PUSH1 0xA0 SHL SUB NOT AND SWAP12 AND SWAP11 SWAP1 SWAP11 OR DUP13 SSTORE SWAP4 MLOAD SWAP1 DUP12 ADD SSTORE MLOAD PUSH1 0x2 DUP11 ADD SSTORE SWAP6 MLOAD SWAP8 DUP5 ADD DUP1 SLOAD PUSH1 0xFF NOT AND SWAP9 ISZERO ISZERO SWAP9 SWAP1 SWAP9 OR SWAP1 SWAP8 SSTORE SWAP2 SLOAD DUP4 DUP3 MSTORE PUSH1 0xA DUP4 MSTORE SWAP1 DUP8 SWAP1 KECCAK256 DUP2 SWAP1 SSTORE DUP7 MLOAD DUP7 DUP2 MSTORE PUSH1 0xB SWAP7 DUP2 ADD SWAP7 SWAP1 SWAP7 MSTORE PUSH11 0x2234B9BA3934B13ABA37B9 PUSH1 0xA9 SHL SWAP5 DUP7 ADD SWAP5 SWAP1 SWAP5 MSTORE DUP5 ADD SWAP3 SWAP1 SWAP3 MSTORE SWAP3 DUP3 ADD SWAP3 SWAP1 SWAP3 MSTORE PUSH32 0x23A9F014965BA86132366AF52ECB128B27C75542A5B4659B6557D5CF25A2884C SWAP1 PUSH1 0xA0 ADD PUSH2 0xFC3 JUMP JUMPDEST PUSH1 0x60 PUSH1 0x0 PUSH1 0x1 JUMPDEST PUSH1 0x1 SLOAD DUP2 GT PUSH2 0x126D JUMPI PUSH1 0x0 DUP2 DUP2 MSTORE PUSH1 0x5 PUSH1 0x20 MSTORE PUSH1 0x40 SWAP1 KECCAK256 PUSH1 0x3 ADD SLOAD PUSH1 0x1 PUSH1 0x1 PUSH1 0xA0 SHL SUB DUP1 DUP7 AND SWAP2 AND SUB PUSH2 0x125B JUMPI DUP2 PUSH2 0x1257 DUP2 PUSH2 0x2969 JUMP JUMPDEST SWAP3 POP POP JUMPDEST DUP1 PUSH2 0x1265 DUP2 PUSH2 0x2969 JUMP JUMPDEST SWAP2 POP POP PUSH2 0x1220 JUMP JUMPDEST POP PUSH1 0x0 DUP2 PUSH8 0xFFFFFFFFFFFFFFFF DUP2 GT ISZERO PUSH2 0x1289 JUMPI PUSH2 0x1289 PUSH2 0x2A2D JUMP JUMPDEST PUSH1 0x40 MLOAD SWAP1 DUP1 DUP3 MSTORE DUP1 PUSH1 0x20 MUL PUSH1 0x20 ADD DUP3 ADD PUSH1 0x40 MSTORE DUP1 ISZERO PUSH2 0x12B2 JUMPI DUP2 PUSH1 0x20 ADD PUSH1 0x20 DUP3 MUL DUP1 CALLDATASIZE DUP4 CALLDATACOPY ADD SWAP1 POP JUMPDEST POP SWAP1 POP PUSH1 0x0 PUSH1 0x1 JUMPDEST PUSH1 0x1 SLOAD DUP2 GT PUSH2 0x1325 JUMPI PUSH1 0x0 DUP2 DUP2 MSTORE PUSH1 0x5 PUSH1 0x20 MSTORE PUSH1 0x40 SWAP1 KECCAK256 PUSH1 0x3 ADD SLOAD PUSH1 0x1 PUSH1 0x1 PUSH1 0xA0 SHL SUB DUP1 DUP9 AND SWAP2 AND SUB PUSH2 0x1313 JUMPI DUP1 DUP4 DUP4 DUP2 MLOAD DUP2 LT PUSH2 0x12FA JUMPI PUSH2 0x12FA PUSH2 0x2A43 JUMP JUMPDEST PUSH1 0x20 SWAP1 DUP2 MUL SWAP2 SWAP1 SWAP2 ADD ADD MSTORE DUP2 PUSH2 0x130F DUP2 PUSH2 0x2969 JUMP JUMPDEST SWAP3 POP POP JUMPDEST DUP1 PUSH2 0x131D DUP2 PUSH2 0x2969 JUMP JUMPDEST SWAP2 POP POP PUSH2 0x12BA JUMP JUMPDEST POP SWAP1 SWAP5 SWAP4 POP POP POP POP JUMP JUMPDEST PUSH1 0x60 PUSH1 0x0 PUSH1 0x3 SLOAD PUSH8 0xFFFFFFFFFFFFFFFF DUP2 GT ISZERO PUSH2 0x134E JUMPI PUSH2 0x134E PUSH2 0x2A2D JUMP JUMPDEST PUSH1 0x40 MLOAD SWAP1 DUP1 DUP3 MSTORE DUP1 PUSH1 0x20 MUL PUSH1 0x20 ADD DUP3 ADD PUSH1 0x40 MSTORE DUP1 ISZERO PUSH2 0x1377 JUMPI DUP2 PUSH1 0x20 ADD PUSH1 0x20 DUP3 MUL DUP1 CALLDATASIZE DUP4 CALLDATACOPY ADD SWAP1 POP JUMPDEST POP SWAP1 POP PUSH1 0x1 JUMPDEST PUSH1 0x3 SLOAD DUP2 GT PUSH2 0x13E4 JUMPI PUSH1 0x0 DUP2 DUP2 MSTORE PUSH1 0x7 PUSH1 0x20 MSTORE PUSH1 0x40 SWAP1 KECCAK256 SLOAD PUSH1 0x1 PUSH1 0x1 PUSH1 0xA0 SHL SUB AND DUP3 PUSH2 0x13AA PUSH1 0x1 DUP5 PUSH2 0x2A59 JUMP JUMPDEST DUP2 MLOAD DUP2 LT PUSH2 0x13BA JUMPI PUSH2 0x13BA PUSH2 0x2A43 JUMP JUMPDEST PUSH1 0x1 PUSH1 0x1 PUSH1 0xA0 SHL SUB SWAP1 SWAP3 AND PUSH1 0x20 SWAP3 DUP4 MUL SWAP2 SWAP1 SWAP2 ADD SWAP1 SWAP2 ADD MSTORE DUP1 PUSH2 0x13DC DUP2 PUSH2 0x2969 JUMP JUMPDEST SWAP2 POP POP PUSH2 0x137D JUMP JUMPDEST POP SWAP2 SWAP1 POP JUMP JUMPDEST PUSH1 0x0 SLOAD PUSH1 0x1 PUSH1 0x1 PUSH1 0xA0 SHL SUB AND CALLER EQ PUSH2 0x1414 JUMPI PUSH1 0x40 MLOAD PUSH3 0x461BCD PUSH1 0xE5 SHL DUP2 MSTORE PUSH1 0x4 ADD PUSH2 0x748 SWAP1 PUSH2 0x2982 JUMP JUMPDEST PUSH1 0x1 PUSH1 0x1 PUSH1 0xA0 SHL SUB DUP2 AND PUSH2 0x143A JUMPI PUSH1 0x40 MLOAD PUSH3 0x461BCD PUSH1 0xE5 SHL DUP2 MSTORE PUSH1 0x4 ADD PUSH2 0x748 SWAP1 PUSH2 0x29C3 JUMP JUMPDEST PUSH1 0x1 PUSH1 0x1 PUSH1 0xA0 SHL SUB DUP2 AND PUSH1 0x0 SWAP1 DUP2 MSTORE PUSH1 0xB PUSH1 0x20 MSTORE PUSH1 0x40 SWAP1 KECCAK256 SLOAD ISZERO PUSH2 0x14A0 JUMPI PUSH1 0x40 MLOAD PUSH3 0x461BCD PUSH1 0xE5 SHL DUP2 MSTORE PUSH1 0x20 PUSH1 0x4 DUP3 ADD MSTORE PUSH1 0x1B PUSH1 0x24 DUP3 ADD MSTORE PUSH32 0x52657461696C657220616C726561647920726567697374657265640000000000 PUSH1 0x44 DUP3 ADD MSTORE PUSH1 0x64 ADD PUSH2 0x748 JUMP JUMPDEST PUSH1 0x1 PUSH1 0x1 PUSH1 0xA0 SHL SUB DUP2 AND PUSH1 0x0 SWAP1 DUP2 MSTORE PUSH1 0x9 PUSH1 0x20 MSTORE PUSH1 0x40 SWAP1 KECCAK256 SLOAD ISZERO PUSH2 0x14D6 JUMPI PUSH1 0x40 MLOAD PUSH3 0x461BCD PUSH1 0xE5 SHL DUP2 MSTORE PUSH1 0x4 ADD PUSH2 0x748 SWAP1 PUSH2 0x29EC JUMP JUMPDEST PUSH1 0x1 PUSH1 0x1 PUSH1 0xA0 SHL SUB DUP2 AND PUSH1 0x0 SWAP1 DUP2 MSTORE PUSH1 0xA PUSH1 0x20 MSTORE PUSH1 0x40 SWAP1 KECCAK256 SLOAD ISZERO PUSH2 0x153C JUMPI PUSH1 0x40 MLOAD PUSH3 0x461BCD PUSH1 0xE5 SHL DUP2 MSTORE PUSH1 0x20 PUSH1 0x4 DUP3 ADD DUP2 SWAP1 MSTORE PUSH1 0x24 DUP3 ADD MSTORE PUSH32 0x4164647265737320697320616C72656164792061204469737472696275746F72 PUSH1 0x44 DUP3 ADD MSTORE PUSH1 0x64 ADD PUSH2 0x748 JUMP JUMPDEST PUSH1 0x4 DUP1 SLOAD SWAP1 PUSH1 0x0 PUSH2 0x154C DUP4 PUSH2 0x2969 JUMP JUMPDEST SWAP1 SWAP2 SSTORE POP POP PUSH1 0x40 DUP1 MLOAD PUSH1 0x80 DUP2 ADD DUP3 MSTORE PUSH1 0x1 PUSH1 0x1 PUSH1 0xA0 SHL SUB DUP1 DUP5 AND DUP1 DUP4 MSTORE PUSH1 0x4 DUP1 SLOAD PUSH1 0x20 DUP1 DUP7 ADD DUP3 DUP2 MSTORE TIMESTAMP DUP8 DUP10 ADD DUP2 DUP2 MSTORE PUSH1 0x1 PUSH1 0x60 DUP11 ADD DUP2 DUP2 MSTORE PUSH1 0x0 SWAP7 DUP8 MSTORE PUSH1 0x8 DUP7 MSTORE DUP12 DUP8 KECCAK256 SWAP11 MLOAD DUP12 SLOAD SWAP11 AND PUSH1 0x1 PUSH1 0x1 PUSH1 0xA0 SHL SUB NOT SWAP1 SWAP11 AND SWAP10 SWAP1 SWAP10 OR DUP11 SSTORE SWAP3 MLOAD SWAP3 DUP10 ADD SWAP3 SWAP1 SWAP3 SSTORE SWAP1 MLOAD PUSH1 0x2 DUP9 ADD SSTORE SWAP5 MLOAD PUSH1 0x3 SWAP1 SWAP7 ADD DUP1 SLOAD SWAP7 ISZERO ISZERO PUSH1 0xFF NOT SWAP1 SWAP8 AND SWAP7 SWAP1 SWAP7 OR SWAP1 SWAP6 SSTORE SWAP1 SLOAD DUP3 DUP3 MSTORE PUSH1 0xB SWAP1 SWAP5 MSTORE DUP5 SWAP1 KECCAK256 DUP4 SWAP1 SSTORE SWAP3 MLOAD PUSH32 0x23A9F014965BA86132366AF52ECB128B27C75542A5B4659B6557D5CF25A2884C SWAP3 PUSH2 0xFC3 SWAP3 SWAP1 SWAP2 PUSH1 0x60 DUP1 DUP3 MSTORE PUSH1 0x8 SWAP1 DUP3 ADD MSTORE PUSH8 0x2932BA30B4B632B9 PUSH1 0xC1 SHL PUSH1 0x80 DUP3 ADD MSTORE PUSH1 0x20 DUP2 ADD SWAP3 SWAP1 SWAP3 MSTORE PUSH1 0x40 DUP3 ADD MSTORE PUSH1 0xA0 ADD SWAP1 JUMP JUMPDEST CALLER PUSH1 0x0 SWAP1 DUP2 MSTORE PUSH1 0xB PUSH1 0x20 MSTORE PUSH1 0x40 SWAP1 KECCAK256 SLOAD PUSH2 0x1667 JUMPI PUSH1 0x40 MLOAD PUSH3 0x461BCD PUSH1 0xE5 SHL DUP2 MSTORE PUSH1 0x4 ADD PUSH2 0x748 SWAP1 PUSH2 0x2A6C JUMP JUMPDEST PUSH1 0x0 DUP2 GT DUP1 ISZERO PUSH2 0x1679 JUMPI POP PUSH1 0x1 SLOAD DUP2 GT ISZERO JUMPDEST PUSH2 0x1695 JUMPI PUSH1 0x40 MLOAD PUSH3 0x461BCD PUSH1 0xE5 SHL DUP2 MSTORE PUSH1 0x4 ADD PUSH2 0x748 SWAP1 PUSH2 0x288D JUMP JUMPDEST PUSH1 0x0 DUP2 DUP2 MSTORE PUSH1 0x5 PUSH1 0x20 MSTORE PUSH1 0x40 SWAP1 KECCAK256 PUSH1 0x3 ADD SLOAD PUSH1 0x1 PUSH1 0x1 PUSH1 0xA0 SHL SUB AND CALLER EQ PUSH2 0x16CE JUMPI PUSH1 0x40 MLOAD PUSH3 0x461BCD PUSH1 0xE5 SHL DUP2 MSTORE PUSH1 0x4 ADD PUSH2 0x748 SWAP1 PUSH2 0x2929 JUMP JUMPDEST PUSH1 0x5 PUSH1 0x0 DUP3 DUP2 MSTORE PUSH1 0x5 PUSH1 0x20 MSTORE PUSH1 0x40 SWAP1 KECCAK256 PUSH1 0x3 ADD SLOAD PUSH1 0x1 PUSH1 0xA0 SHL SWAP1 DIV PUSH1 0xFF AND PUSH1 0x6 DUP2 GT ISZERO PUSH2 0x16FD JUMPI PUSH2 0x16FD PUSH2 0x2645 JUMP JUMPDEST EQ PUSH2 0x173F JUMPI PUSH1 0x40 MLOAD PUSH3 0x461BCD PUSH1 0xE5 SHL DUP2 MSTORE PUSH1 0x20 PUSH1 0x4 DUP3 ADD MSTORE PUSH1 0x12 PUSH1 0x24 DUP3 ADD MSTORE PUSH18 0x135D5CDD081C9958D95A5D9948199A5C9CDD PUSH1 0x72 SHL PUSH1 0x44 DUP3 ADD MSTORE PUSH1 0x64 ADD PUSH2 0x748 JUMP JUMPDEST PUSH1 0x0 DUP2 DUP2 MSTORE PUSH1 0x5 PUSH1 0x20 DUP2 SWAP1 MSTORE PUSH1 0x40 SWAP2 DUP3 SWAP1 KECCAK256 PUSH1 0x3 DUP2 ADD DUP1 SLOAD PUSH1 0xFF PUSH1 0xA0 SHL NOT AND PUSH1 0x3 PUSH1 0xA1 SHL OR SWAP1 SSTORE TIMESTAMP SWAP2 ADD DUP2 SWAP1 SSTORE SWAP1 MLOAD CALLER SWAP2 DUP4 SWAP2 PUSH1 0x0 DUP1 MLOAD PUSH1 0x20 PUSH2 0x2ABD DUP4 CODECOPY DUP2 MLOAD SWAP2 MSTORE SWAP2 PUSH2 0x8AA SWAP2 PUSH1 0x6 SWAP2 SWAP1 PUSH2 0x28BA JUMP JUMPDEST CALLER PUSH1 0x0 SWAP1 DUP2 MSTORE PUSH1 0x9 PUSH1 0x20 MSTORE PUSH1 0x40 SWAP1 KECCAK256 SLOAD PUSH2 0x17BB JUMPI PUSH1 0x40 MLOAD PUSH3 0x461BCD PUSH1 0xE5 SHL DUP2 MSTORE PUSH1 0x4 ADD PUSH2 0x748 SWAP1 PUSH2 0x28D5 JUMP JUMPDEST PUSH1 0x0 DUP3 GT DUP1 ISZERO PUSH2 0x17CD JUMPI POP PUSH1 0x1 SLOAD DUP3 GT ISZERO JUMPDEST PUSH2 0x17E9 JUMPI PUSH1 0x40 MLOAD PUSH3 0x461BCD PUSH1 0xE5 SHL DUP2 MSTORE PUSH1 0x4 ADD PUSH2 0x748 SWAP1 PUSH2 0x288D JUMP JUMPDEST PUSH1 0x0 DUP3 DUP2 MSTORE PUSH1 0x5 PUSH1 0x20 MSTORE PUSH1 0x40 SWAP1 KECCAK256 PUSH1 0x1 ADD SLOAD PUSH1 0x1 PUSH1 0x1 PUSH1 0xA0 SHL SUB AND CALLER EQ PUSH2 0x1822 JUMPI PUSH1 0x40 MLOAD PUSH3 0x461BCD PUSH1 0xE5 SHL DUP2 MSTORE PUSH1 0x4 ADD PUSH2 0x748 SWAP1 PUSH2 0x2929 JUMP JUMPDEST PUSH1 0x1 PUSH1 0x0 DUP4 DUP2 MSTORE PUSH1 0x5 PUSH1 0x20 MSTORE PUSH1 0x40 SWAP1 KECCAK256 PUSH1 0x3 ADD SLOAD PUSH1 0x1 PUSH1 0xA0 SHL SWAP1 DIV PUSH1 0xFF AND PUSH1 0x6 DUP2 GT ISZERO PUSH2 0x1851 JUMPI PUSH2 0x1851 PUSH2 0x2645 JUMP JUMPDEST EQ PUSH2 0x189E JUMPI PUSH1 0x40 MLOAD PUSH3 0x461BCD PUSH1 0xE5 SHL DUP2 MSTORE PUSH1 0x20 PUSH1 0x4 DUP3 ADD MSTORE PUSH1 0x1D PUSH1 0x24 DUP3 ADD MSTORE PUSH32 0x4D65646963696E65206D757374206265205061636B6564206669727374000000 PUSH1 0x44 DUP3 ADD MSTORE PUSH1 0x64 ADD PUSH2 0x748 JUMP JUMPDEST PUSH1 0x1 PUSH1 0x1 PUSH1 0xA0 SHL SUB DUP2 AND PUSH1 0x0 SWAP1 DUP2 MSTORE PUSH1 0xA PUSH1 0x20 MSTORE PUSH1 0x40 SWAP1 KECCAK256 SLOAD PUSH2 0x1903 JUMPI PUSH1 0x40 MLOAD PUSH3 0x461BCD PUSH1 0xE5 SHL DUP2 MSTORE PUSH1 0x20 PUSH1 0x4 DUP3 ADD MSTORE PUSH1 0x1B PUSH1 0x24 DUP3 ADD MSTORE PUSH32 0x496E76616C6964206469737472696275746F7220616464726573730000000000 PUSH1 0x44 DUP3 ADD MSTORE PUSH1 0x64 ADD PUSH2 0x748 JUMP JUMPDEST PUSH1 0x0 DUP3 DUP2 MSTORE PUSH1 0x5 PUSH1 0x20 DUP2 DUP2 MSTORE PUSH1 0x40 DUP1 DUP5 KECCAK256 PUSH1 0x2 DUP1 DUP3 ADD DUP1 SLOAD PUSH1 0x1 PUSH1 0x1 PUSH1 0xA0 SHL SUB NOT AND PUSH1 0x1 PUSH1 0x1 PUSH1 0xA0 SHL SUB DUP10 AND SWAP1 DUP2 OR SWAP1 SWAP2 SSTORE DUP7 MSTORE PUSH1 0xA DUP5 MSTORE DUP3 DUP7 KECCAK256 SLOAD SWAP6 DUP9 SWAP1 MSTORE SWAP3 DUP5 SWAP1 MSTORE PUSH1 0x7 DUP2 ADD SWAP5 SWAP1 SWAP5 SSTORE PUSH1 0x3 DUP5 ADD DUP1 SLOAD PUSH1 0xFF PUSH1 0xA0 SHL NOT AND PUSH1 0x1 PUSH1 0xA1 SHL OR SWAP1 SSTORE TIMESTAMP SWAP4 SWAP1 SWAP3 ADD DUP4 SWAP1 SSTORE SWAP1 MLOAD CALLER SWAP3 DUP6 SWAP3 PUSH1 0x0 DUP1 MLOAD PUSH1 0x20 PUSH2 0x2ABD DUP4 CODECOPY DUP2 MLOAD SWAP2 MSTORE SWAP3 PUSH2 0x198C SWAP3 SWAP1 PUSH2 0x28BA JUMP JUMPDEST PUSH1 0x40 MLOAD DUP1 SWAP2 SUB SWAP1 LOG3 POP POP JUMP JUMPDEST PUSH1 0x60 PUSH1 0x0 PUSH1 0x1 JUMPDEST PUSH1 0x1 SLOAD DUP2 GT PUSH2 0x1A25 JUMPI PUSH1 0x0 DUP2 DUP2 MSTORE PUSH1 0x5 PUSH1 0x20 MSTORE PUSH1 0x40 SWAP1 KECCAK256 PUSH1 0x2 ADD SLOAD PUSH1 0x1 PUSH1 0x1 PUSH1 0xA0 SHL SUB DUP6 DUP2 AND SWAP2 AND EQ DUP1 ISZERO PUSH2 0x1A00 JUMPI POP PUSH1 0x2 PUSH1 0x0 DUP3 DUP2 MSTORE PUSH1 0x5 PUSH1 0x20 MSTORE PUSH1 0x40 SWAP1 KECCAK256 PUSH1 0x3 ADD SLOAD PUSH1 0x1 PUSH1 0xA0 SHL SWAP1 DIV PUSH1 0xFF AND PUSH1 0x6 DUP2 GT ISZERO PUSH2 0x19FE JUMPI PUSH2 0x19FE PUSH2 0x2645 JUMP JUMPDEST EQ JUMPDEST ISZERO PUSH2 0x1A13 JUMPI DUP2 PUSH2 0x1A0F DUP2 PUSH2 0x2969 JUMP JUMPDEST SWAP3 POP POP JUMPDEST DUP1 PUSH2 0x1A1D DUP2 PUSH2 0x2969 JUMP JUMPDEST SWAP2 POP POP PUSH2 0x199F JUMP JUMPDEST POP PUSH1 0x0 DUP2 PUSH8 0xFFFFFFFFFFFFFFFF DUP2 GT ISZERO PUSH2 0x1A41 JUMPI PUSH2 0x1A41 PUSH2 0x2A2D JUMP JUMPDEST PUSH1 0x40 MLOAD SWAP1 DUP1 DUP3 MSTORE DUP1 PUSH1 0x20 MUL PUSH1 0x20 ADD DUP3 ADD PUSH1 0x40 MSTORE DUP1 ISZERO PUSH2 0x1A6A JUMPI DUP2 PUSH1 0x20 ADD PUSH1 0x20 DUP3 MUL DUP1 CALLDATASIZE DUP4 CALLDATACOPY ADD SWAP1 POP JUMPDEST POP SWAP1 POP PUSH1 0x0 PUSH1 0x1 JUMPDEST PUSH1 0x1 SLOAD DUP2 GT PUSH2 0x1325 JUMPI PUSH1 0x0 DUP2 DUP2 MSTORE PUSH1 0x5 PUSH1 0x20 MSTORE PUSH1 0x40 SWAP1 KECCAK256 PUSH1 0x2 ADD SLOAD PUSH1 0x1 PUSH1 0x1 PUSH1 0xA0 SHL SUB DUP8 DUP2 AND SWAP2 AND EQ DUP1 ISZERO PUSH2 0x1AD3 JUMPI POP PUSH1 0x2 PUSH1 0x0 DUP3 DUP2 MSTORE PUSH1 0x5 PUSH1 0x20 MSTORE PUSH1 0x40 SWAP1 KECCAK256 PUSH1 0x3 ADD SLOAD PUSH1 0x1 PUSH1 0xA0 SHL SWAP1 DIV PUSH1 0xFF AND PUSH1 0x6 DUP2 GT ISZERO PUSH2 0x1AD1 JUMPI PUSH2 0x1AD1 PUSH2 0x2645 JUMP JUMPDEST EQ JUMPDEST ISZERO PUSH2 0x1B04 JUMPI DUP1 DUP4 DUP4 DUP2 MLOAD DUP2 LT PUSH2 0x1AEB JUMPI PUSH2 0x1AEB PUSH2 0x2A43 JUMP JUMPDEST PUSH1 0x20 SWAP1 DUP2 MUL SWAP2 SWAP1 SWAP2 ADD ADD MSTORE DUP2 PUSH2 0x1B00 DUP2 PUSH2 0x2969 JUMP JUMPDEST SWAP3 POP POP JUMPDEST DUP1 PUSH2 0x1B0E DUP2 PUSH2 0x2969 JUMP JUMPDEST SWAP2 POP POP PUSH2 0x1A72 JUMP JUMPDEST PUSH1 0x0 DUP1 PUSH1 0x0 DUP1 PUSH1 0x0 DUP1 PUSH1 0x0 DUP1 DUP9 GT DUP1 ISZERO PUSH2 0x1B32 JUMPI POP PUSH1 0x1 SLOAD DUP9 GT ISZERO JUMPDEST PUSH2 0x1B4E JUMPI PUSH1 0x40 MLOAD PUSH3 0x461BCD PUSH1 0xE5 SHL DUP2 MSTORE PUSH1 0x4 ADD PUSH2 0x748 SWAP1 PUSH2 0x288D JUMP JUMPDEST POP POP POP PUSH1 0x0 SWAP5 DUP6 MSTORE POP POP PUSH1 0x5 PUSH1 0x20 DUP2 SWAP1 MSTORE PUSH1 0x40 SWAP1 SWAP4 KECCAK256 DUP1 SLOAD PUSH1 0x1 DUP3 ADD SLOAD PUSH1 0x2 DUP4 ADD SLOAD PUSH1 0x3 DUP5 ADD SLOAD PUSH1 0x4 DUP6 ADD SLOAD SWAP5 SWAP1 SWAP8 ADD SLOAD SWAP3 SWAP8 PUSH1 0x1 PUSH1 0x1 PUSH1 0xA0 SHL SUB SWAP3 DUP4 AND SWAP8 SWAP2 DUP4 AND SWAP7 POP SWAP2 DUP2 AND SWAP5 POP PUSH1 0x1 PUSH1 0xA0 SHL SWAP1 DIV PUSH1 0xFF AND SWAP3 SWAP2 SWAP1 JUMP JUMPDEST PUSH1 0x60 PUSH1 0x0 PUSH1 0x1 JUMPDEST PUSH1 0x1 SLOAD DUP2 GT PUSH2 0x1BFA JUMPI PUSH1 0x0 DUP2 DUP2 MSTORE PUSH1 0x5 PUSH1 0x20 MSTORE PUSH1 0x40 SWAP1 KECCAK256 PUSH1 0x1 ADD SLOAD PUSH1 0x1 PUSH1 0x1 PUSH1 0xA0 SHL SUB DUP1 DUP7 AND SWAP2 AND SUB PUSH2 0x1BE8 JUMPI DUP2 PUSH2 0x1BE4 DUP2 PUSH2 0x2969 JUMP JUMPDEST SWAP3 POP POP JUMPDEST DUP1 PUSH2 0x1BF2 DUP2 PUSH2 0x2969 JUMP JUMPDEST SWAP2 POP POP PUSH2 0x1BAD JUMP JUMPDEST POP PUSH1 0x0 DUP2 PUSH8 0xFFFFFFFFFFFFFFFF DUP2 GT ISZERO PUSH2 0x1C16 JUMPI PUSH2 0x1C16 PUSH2 0x2A2D JUMP JUMPDEST PUSH1 0x40 MLOAD SWAP1 DUP1 DUP3 MSTORE DUP1 PUSH1 0x20 MUL PUSH1 0x20 ADD DUP3 ADD PUSH1 0x40 MSTORE DUP1 ISZERO PUSH2 0x1C3F JUMPI DUP2 PUSH1 0x20 ADD PUSH1 0x20 DUP3 MUL DUP1 CALLDATASIZE DUP4 CALLDATACOPY ADD SWAP1 POP JUMPDEST POP SWAP1 POP PUSH1 0x0 PUSH1 0x1 JUMPDEST PUSH1 0x1 SLOAD DUP2 GT PUSH2 0x1325 JUMPI PUSH1 0x0 DUP2 DUP2 MSTORE PUSH1 0x5 PUSH1 0x20 MSTORE PUSH1 0x40 SWAP1 KECCAK256 PUSH1 0x1 ADD SLOAD PUSH1 0x1 PUSH1 0x1 PUSH1 0xA0 SHL SUB DUP1 DUP9 AND SWAP2 AND SUB PUSH2 0x1CA0 JUMPI DUP1 DUP4 DUP4 DUP2 MLOAD DUP2 LT PUSH2 0x1C87 JUMPI PUSH2 0x1C87 PUSH2 0x2A43 JUMP JUMPDEST PUSH1 0x20 SWAP1 DUP2 MUL SWAP2 SWAP1 SWAP2 ADD ADD MSTORE DUP2 PUSH2 0x1C9C DUP2 PUSH2 0x2969 JUMP JUMPDEST SWAP3 POP POP JUMPDEST DUP1 PUSH2 0x1CAA DUP2 PUSH2 0x2969 JUMP JUMPDEST SWAP2 POP POP PUSH2 0x1C47 JUMP JUMPDEST CALLER PUSH1 0x0 SWAP1 DUP2 MSTORE PUSH1 0xA PUSH1 0x20 MSTORE PUSH1 0x40 SWAP1 KECCAK256 SLOAD PUSH2 0x1CDE JUMPI PUSH1 0x40 MLOAD PUSH3 0x461BCD PUSH1 0xE5 SHL DUP2 MSTORE PUSH1 0x4 ADD PUSH2 0x748 SWAP1 PUSH2 0x283A JUMP JUMPDEST PUSH1 0x0 DUP3 GT DUP1 ISZERO PUSH2 0x1CF0 JUMPI POP PUSH1 0x1 SLOAD DUP3 GT ISZERO JUMPDEST PUSH2 0x1D0C JUMPI PUSH1 0x40 MLOAD PUSH3 0x461BCD PUSH1 0xE5 SHL DUP2 MSTORE PUSH1 0x4 ADD PUSH2 0x748 SWAP1 PUSH2 0x288D JUMP JUMPDEST PUSH1 0x0 DUP3 DUP2 MSTORE PUSH1 0x5 PUSH1 0x20 MSTORE PUSH1 0x40 SWAP1 KECCAK256 PUSH1 0x2 ADD SLOAD PUSH1 0x1 PUSH1 0x1 PUSH1 0xA0 SHL SUB AND CALLER EQ PUSH2 0x1D69 JUMPI PUSH1 0x40 MLOAD PUSH3 0x461BCD PUSH1 0xE5 SHL DUP2 MSTORE PUSH1 0x20 PUSH1 0x4 DUP3 ADD MSTORE PUSH1 0x11 PUSH1 0x24 DUP3 ADD MSTORE PUSH17 0x139BDD081E5BDD5C881CDA1A5C1B595B9D PUSH1 0x7A SHL PUSH1 0x44 DUP3 ADD MSTORE PUSH1 0x64 ADD PUSH2 0x748 JUMP JUMPDEST PUSH1 0x3 PUSH1 0x0 DUP4 DUP2 MSTORE PUSH1 0x5 PUSH1 0x20 MSTORE PUSH1 0x40 SWAP1 KECCAK256 PUSH1 0x3 ADD SLOAD PUSH1 0x1 PUSH1 0xA0 SHL SWAP1 DIV PUSH1 0xFF AND PUSH1 0x6 DUP2 GT ISZERO PUSH2 0x1D98 JUMPI PUSH2 0x1D98 PUSH2 0x2645 JUMP JUMPDEST EQ PUSH2 0x1DDA JUMPI PUSH1 0x40 MLOAD PUSH3 0x461BCD PUSH1 0xE5 SHL DUP2 MSTORE PUSH1 0x20 PUSH1 0x4 DUP3 ADD MSTORE PUSH1 0x12 PUSH1 0x24 DUP3 ADD MSTORE PUSH18 0x135D5CDD081C9958D95A5D9948199A5C9CDD PUSH1 0x72 SHL PUSH1 0x44 DUP3 ADD MSTORE PUSH1 0x64 ADD PUSH2 0x748 JUMP JUMPDEST PUSH1 0x1 PUSH1 0x1 PUSH1 0xA0 SHL SUB DUP2 AND PUSH1 0x0 SWAP1 DUP2 MSTORE PUSH1 0xB PUSH1 0x20 MSTORE PUSH1 0x40 SWAP1 KECCAK256 SLOAD PUSH2 0x1E3F JUMPI PUSH1 0x40 MLOAD PUSH3 0x461BCD PUSH1 0xE5 SHL DUP2 MSTORE PUSH1 0x20 PUSH1 0x4 DUP3 ADD MSTORE PUSH1 0x18 PUSH1 0x24 DUP3 ADD MSTORE PUSH32 0x496E76616C69642072657461696C657220616464726573730000000000000000 PUSH1 0x44 DUP3 ADD MSTORE PUSH1 0x64 ADD PUSH2 0x748 JUMP JUMPDEST PUSH1 0x0 DUP3 DUP2 MSTORE PUSH1 0x5 PUSH1 0x20 DUP2 DUP2 MSTORE PUSH1 0x40 DUP1 DUP5 KECCAK256 PUSH1 0x3 DUP2 ADD DUP1 SLOAD PUSH1 0x1 PUSH1 0x1 PUSH1 0xA0 SHL SUB DUP9 AND PUSH1 0x1 PUSH1 0x1 PUSH1 0xA0 SHL SUB NOT DUP3 AND DUP2 OR DUP4 SSTORE DUP1 DUP9 MSTORE PUSH1 0xB DUP7 MSTORE DUP5 DUP9 KECCAK256 SLOAD SWAP8 DUP11 SWAP1 MSTORE SWAP5 DUP7 SWAP1 MSTORE PUSH1 0x8 DUP4 ADD SWAP7 SWAP1 SWAP7 SSTORE PUSH1 0x1 PUSH1 0x1 PUSH1 0xA8 SHL SUB NOT SWAP1 SWAP6 AND SWAP1 SWAP3 OR PUSH1 0x1 PUSH1 0xA2 SHL OR SWAP1 SWAP4 SSTORE TIMESTAMP SWAP2 ADD DUP2 SWAP1 SSTORE SWAP1 MLOAD CALLER SWAP2 DUP5 SWAP2 PUSH1 0x0 DUP1 MLOAD PUSH1 0x20 PUSH2 0x2ABD DUP4 CODECOPY DUP2 MLOAD SWAP2 MSTORE SWAP2 PUSH2 0x198C SWAP2 PUSH1 0x4 SWAP2 SWAP1 PUSH2 0x28BA JUMP JUMPDEST PUSH1 0x60 PUSH1 0x0 PUSH1 0x1 JUMPDEST PUSH1 0x1 SLOAD DUP2 GT PUSH2 0x1F58 JUMPI PUSH1 0x0 DUP2 DUP2 MSTORE PUSH1 0x5 PUSH1 0x20 MSTORE PUSH1 0x40 SWAP1 KECCAK256 PUSH1 0x3 ADD SLOAD PUSH1 0x1 PUSH1 0x1 PUSH1 0xA0 SHL SUB DUP6 DUP2 AND SWAP2 AND EQ DUP1 ISZERO PUSH2 0x1F33 JUMPI POP PUSH1 0x4 PUSH1 0x0 DUP3 DUP2 MSTORE PUSH1 0x5 PUSH1 0x20 MSTORE PUSH1 0x40 SWAP1 KECCAK256 PUSH1 0x3 ADD SLOAD PUSH1 0x1 PUSH1 0xA0 SHL SWAP1 DIV PUSH1 0xFF AND PUSH1 0x6 DUP2 GT ISZERO PUSH2 0x1F31 JUMPI PUSH2 0x1F31 PUSH2 0x2645 JUMP JUMPDEST EQ JUMPDEST ISZERO PUSH2 0x1F46 JUMPI DUP2 PUSH2 0x1F42 DUP2 PUSH2 0x2969 JUMP JUMPDEST SWAP3 POP POP JUMPDEST DUP1 PUSH2 0x1F50 DUP2 PUSH2 0x2969 JUMP JUMPDEST SWAP2 POP POP PUSH2 0x1ED2 JUMP JUMPDEST POP PUSH1 0x0 DUP2 PUSH8 0xFFFFFFFFFFFFFFFF DUP2 GT ISZERO PUSH2 0x1F74 JUMPI PUSH2 0x1F74 PUSH2 0x2A2D JUMP JUMPDEST PUSH1 0x40 MLOAD SWAP1 DUP1 DUP3 MSTORE DUP1 PUSH1 0x20 MUL PUSH1 0x20 ADD DUP3 ADD PUSH1 0x40 MSTORE DUP1 ISZERO PUSH2 0x1F9D JUMPI DUP2 PUSH1 0x20 ADD PUSH1 0x20 DUP3 MUL DUP1 CALLDATASIZE DUP4 CALLDATACOPY ADD SWAP1 POP JUMPDEST POP SWAP1 POP PUSH1 0x0 PUSH1 0x1 JUMPDEST PUSH1 0x1 SLOAD DUP2 GT PUSH2 0x1325 JUMPI PUSH1 0x0 DUP2 DUP2 MSTORE PUSH1 0x5 PUSH1 0x20 MSTORE PUSH1 0x40 SWAP1 KECCAK256 PUSH1 0x3 ADD SLOAD PUSH1 0x1 PUSH1 0x1 PUSH1 0xA0 SHL SUB DUP8 DUP2 AND SWAP2 AND EQ DUP1 ISZERO PUSH2 0x2006 JUMPI POP PUSH1 0x4 PUSH1 0x0 DUP3 DUP2 MSTORE PUSH1 0x5 PUSH1 0x20 MSTORE PUSH1 0x40 SWAP1 KECCAK256 PUSH1 0x3 ADD SLOAD PUSH1 0x1 PUSH1 0xA0 SHL SWAP1 DIV PUSH1 0xFF AND PUSH1 0x6 DUP2 GT ISZERO PUSH2 0x2004 JUMPI PUSH2 0x2004 PUSH2 0x2645 JUMP JUMPDEST EQ JUMPDEST ISZERO PUSH2 0x2037 JUMPI DUP1 DUP4 DUP4 DUP2 MLOAD DUP2 LT PUSH2 0x201E JUMPI PUSH2 0x201E PUSH2 0x2A43 JUMP JUMPDEST PUSH1 0x20 SWAP1 DUP2 MUL SWAP2 SWAP1 SWAP2 ADD ADD MSTORE DUP2 PUSH2 0x2033 DUP2 PUSH2 0x2969 JUMP JUMPDEST SWAP3 POP POP JUMPDEST DUP1 PUSH2 0x2041 DUP2 PUSH2 0x2969 JUMP JUMPDEST SWAP2 POP POP PUSH2 0x1FA5 JUMP JUMPDEST CALLER PUSH1 0x0 SWAP1 DUP2 MSTORE PUSH1 0xB PUSH1 0x20 MSTORE PUSH1 0x40 SWAP1 KECCAK256 SLOAD PUSH2 0x2075 JUMPI PUSH1 0x40 MLOAD PUSH3 0x461BCD PUSH1 0xE5 SHL DUP2 MSTORE PUSH1 0x4 ADD PUSH2 0x748 SWAP1 PUSH2 0x2A6C JUMP JUMPDEST PUSH1 0x0 DUP2 GT DUP1 ISZERO PUSH2 0x2087 JUMPI POP PUSH1 0x1 SLOAD DUP2 GT ISZERO JUMPDEST PUSH2 0x20A3 JUMPI PUSH1 0x40 MLOAD PUSH3 0x461BCD PUSH1 0xE5 SHL DUP2 MSTORE PUSH1 0x4 ADD PUSH2 0x748 SWAP1 PUSH2 0x288D JUMP JUMPDEST PUSH1 0x0 DUP2 DUP2 MSTORE PUSH1 0x5 PUSH1 0x20 MSTORE PUSH1 0x40 SWAP1 KECCAK256 PUSH1 0x3 ADD SLOAD PUSH1 0x1 PUSH1 0x1 PUSH1 0xA0 SHL SUB AND CALLER EQ PUSH2 0x2102 JUMPI PUSH1 0x40 MLOAD PUSH3 0x461BCD PUSH1 0xE5 SHL DUP2 MSTORE PUSH1 0x20 PUSH1 0x4 DUP3 ADD MSTORE PUSH1 0x13 PUSH1 0x24 DUP3 ADD MSTORE PUSH19 0x4E6F742061737369676E656420746F20796F75 PUSH1 0x68 SHL PUSH1 0x44 DUP3 ADD MSTORE PUSH1 0x64 ADD PUSH2 0x748 JUMP JUMPDEST PUSH1 0x4 PUSH1 0x0 DUP3 DUP2 MSTORE PUSH1 0x5 PUSH1 0x20 MSTORE PUSH1 0x40 SWAP1 KECCAK256 PUSH1 0x3 ADD SLOAD PUSH1 0x1 PUSH1 0xA0 SHL SWAP1 DIV PUSH1 0xFF AND PUSH1 0x6 DUP2 GT ISZERO PUSH2 0x2131 JUMPI PUSH2 0x2131 PUSH2 0x2645 JUMP JUMPDEST EQ PUSH2 0x217E JUMPI PUSH1 0x40 MLOAD PUSH3 0x461BCD PUSH1 0xE5 SHL DUP2 MSTORE PUSH1 0x20 PUSH1 0x4 DUP3 ADD MSTORE PUSH1 0x1F PUSH1 0x24 DUP3 ADD MSTORE PUSH32 0x4D65646963696E65206E6F74207368697070656420746F20796F752079657400 PUSH1 0x44 DUP3 ADD MSTORE PUSH1 0x64 ADD PUSH2 0x748 JUMP JUMPDEST PUSH1 0x0 DUP2 DUP2 MSTORE PUSH1 0x5 PUSH1 0x20 DUP2 SWAP1 MSTORE PUSH1 0x40 SWAP2 DUP3 SWAP1 KECCAK256 PUSH1 0x3 DUP2 ADD DUP1 SLOAD PUSH1 0xFF PUSH1 0xA0 SHL NOT AND PUSH1 0x5 PUSH1 0xA0 SHL OR SWAP1 SSTORE TIMESTAMP SWAP1 DUP3 ADD DUP2 SWAP1 SSTORE SWAP2 MLOAD CALLER SWAP3 DUP5 SWAP3 PUSH1 0x0 DUP1 MLOAD PUSH1 0x20 PUSH2 0x2ABD DUP4 CODECOPY DUP2 MLOAD SWAP2 MSTORE SWAP3 PUSH2 0x8AA SWAP3 SWAP1 PUSH2 0x28BA JUMP JUMPDEST PUSH1 0x60 PUSH1 0x0 PUSH1 0x1 JUMPDEST PUSH1 0x1 SLOAD DUP2 GT PUSH2 0x2220 JUMPI PUSH1 0x0 DUP2 DUP2 MSTORE PUSH1 0x5 PUSH1 0x20 MSTORE PUSH1 0x40 SWAP1 KECCAK256 PUSH1 0x2 ADD SLOAD PUSH1 0x1 PUSH1 0x1 PUSH1 0xA0 SHL SUB DUP1 DUP7 AND SWAP2 AND SUB PUSH2 0x220E JUMPI DUP2 PUSH2 0x220A DUP2 PUSH2 0x2969 JUMP JUMPDEST SWAP3 POP POP JUMPDEST DUP1 PUSH2 0x2218 DUP2 PUSH2 0x2969 JUMP JUMPDEST SWAP2 POP POP PUSH2 0x21D3 JUMP JUMPDEST POP PUSH1 0x0 DUP2 PUSH8 0xFFFFFFFFFFFFFFFF DUP2 GT ISZERO PUSH2 0x223C JUMPI PUSH2 0x223C PUSH2 0x2A2D JUMP JUMPDEST PUSH1 0x40 MLOAD SWAP1 DUP1 DUP3 MSTORE DUP1 PUSH1 0x20 MUL PUSH1 0x20 ADD DUP3 ADD PUSH1 0x40 MSTORE DUP1 ISZERO PUSH2 0x2265 JUMPI DUP2 PUSH1 0x20 ADD PUSH1 0x20 DUP3 MUL DUP1 CALLDATASIZE DUP4 CALLDATACOPY ADD SWAP1 POP JUMPDEST POP SWAP1 POP PUSH1 0x0 PUSH1 0x1 JUMPDEST PUSH1 0x1 SLOAD DUP2 GT PUSH2 0x1325 JUMPI PUSH1 0x0 DUP2 DUP2 MSTORE PUSH1 0x5 PUSH1 0x20 MSTORE PUSH1 0x40 SWAP1 KECCAK256 PUSH1 0x2 ADD SLOAD PUSH1 0x1 PUSH1 0x1 PUSH1 0xA0 SHL SUB DUP1 DUP9 AND SWAP2 AND SUB PUSH2 0x22C6 JUMPI DUP1 DUP4 DUP4 DUP2 MLOAD DUP2 LT PUSH2 0x22AD JUMPI PUSH2 0x22AD PUSH2 0x2A43 JUMP JUMPDEST PUSH1 0x20 SWAP1 DUP2 MUL SWAP2 SWAP1 SWAP2 ADD ADD MSTORE DUP2 PUSH2 0x22C2 DUP2 PUSH2 0x2969 JUMP JUMPDEST SWAP3 POP POP JUMPDEST DUP1 PUSH2 0x22D0 DUP2 PUSH2 0x2969 JUMP JUMPDEST SWAP2 POP POP PUSH2 0x226D JUMP JUMPDEST PUSH1 0x60 PUSH1 0x0 PUSH1 0x4 SLOAD PUSH8 0xFFFFFFFFFFFFFFFF DUP2 GT ISZERO PUSH2 0x22F7 JUMPI PUSH2 0x22F7 PUSH2 0x2A2D JUMP JUMPDEST PUSH1 0x40 MLOAD SWAP1 DUP1 DUP3 MSTORE DUP1 PUSH1 0x20 MUL PUSH1 0x20 ADD DUP3 ADD PUSH1 0x40 MSTORE DUP1 ISZERO PUSH2 0x2320 JUMPI DUP2 PUSH1 0x20 ADD PUSH1 0x20 DUP3 MUL DUP1 CALLDATASIZE DUP4 CALLDATACOPY ADD SWAP1 POP JUMPDEST POP SWAP1 POP PUSH1 0x1 JUMPDEST PUSH1 0x4 SLOAD DUP2 GT PUSH2 0x13E4 JUMPI PUSH1 0x0 DUP2 DUP2 MSTORE PUSH1 0x8 PUSH1 0x20 MSTORE PUSH1 0x40 SWAP1 KECCAK256 SLOAD PUSH1 0x1 PUSH1 0x1 PUSH1 0xA0 SHL SUB AND DUP3 PUSH2 0x2353 PUSH1 0x1 DUP5 PUSH2 0x2A59 JUMP JUMPDEST DUP2 MLOAD DUP2 LT PUSH2 0x2363 JUMPI PUSH2 0x2363 PUSH2 0x2A43 JUMP JUMPDEST PUSH1 0x1 PUSH1 0x1 PUSH1 0xA0 SHL SUB SWAP1 SWAP3 AND PUSH1 0x20 SWAP3 DUP4 MUL SWAP2 SWAP1 SWAP2 ADD SWAP1 SWAP2 ADD MSTORE DUP1 PUSH2 0x2385 DUP2 PUSH2 0x2969 JUMP JUMPDEST SWAP2 POP POP PUSH2 0x2326 JUMP JUMPDEST PUSH1 0x60 PUSH1 0x0 DUP3 GT DUP1 ISZERO PUSH2 0x23A1 JUMPI POP PUSH1 0x1 SLOAD DUP3 GT ISZERO JUMPDEST PUSH2 0x23BD JUMPI PUSH1 0x40 MLOAD PUSH3 0x461BCD PUSH1 0xE5 SHL DUP2 MSTORE PUSH1 0x4 ADD PUSH2 0x748 SWAP1 PUSH2 0x288D JUMP JUMPDEST PUSH1 0x0 DUP3 DUP2 MSTORE PUSH1 0x5 PUSH1 0x20 MSTORE PUSH1 0x40 DUP2 KECCAK256 PUSH1 0x3 ADD SLOAD PUSH1 0x1 PUSH1 0xA0 SHL SWAP1 DIV PUSH1 0xFF AND SWAP1 DUP2 PUSH1 0x6 DUP2 GT ISZERO PUSH2 0x23EC JUMPI PUSH2 0x23EC PUSH2 0x2645 JUMP JUMPDEST SUB PUSH2 0x241B JUMPI POP POP PUSH1 0x40 DUP1 MLOAD DUP1 DUP3 ADD SWAP1 SWAP2 MSTORE PUSH1 0xC DUP2 MSTORE PUSH12 0x13585B9D599858DD1D5C9959 PUSH1 0xA2 SHL PUSH1 0x20 DUP3 ADD MSTORE SWAP2 SWAP1 POP JUMP JUMPDEST PUSH1 0x1 DUP2 PUSH1 0x6 DUP2 GT ISZERO PUSH2 0x242F JUMPI PUSH2 0x242F PUSH2 0x2645 JUMP JUMPDEST SUB PUSH2 0x2458 JUMPI POP POP PUSH1 0x40 DUP1 MLOAD DUP1 DUP3 ADD SWAP1 SWAP2 MSTORE PUSH1 0x6 DUP2 MSTORE PUSH6 0x141858DAD959 PUSH1 0xD2 SHL PUSH1 0x20 DUP3 ADD MSTORE SWAP2 SWAP1 POP JUMP JUMPDEST PUSH1 0x2 DUP2 PUSH1 0x6 DUP2 GT ISZERO PUSH2 0x246C JUMPI PUSH2 0x246C PUSH2 0x2645 JUMP JUMPDEST SUB PUSH2 0x24A5 JUMPI POP POP PUSH1 0x40 DUP1 MLOAD DUP1 DUP3 ADD SWAP1 SWAP2 MSTORE PUSH1 0x16 DUP2 MSTORE PUSH22 0x29B434B83832B2103A37902234B9BA3934B13ABA37B9 PUSH1 0x51 SHL PUSH1 0x20 DUP3 ADD MSTORE SWAP2 SWAP1 POP JUMP JUMPDEST PUSH1 0x3 DUP2 PUSH1 0x6 DUP2 GT ISZERO PUSH2 0x24B9 JUMPI PUSH2 0x24B9 PUSH2 0x2645 JUMP JUMPDEST SUB PUSH2 0x24F9 JUMPI POP POP PUSH1 0x40 DUP1 MLOAD DUP1 DUP3 ADD SWAP1 SWAP2 MSTORE PUSH1 0x17 DUP2 MSTORE PUSH32 0x5265636569766564206279204469737472696275746F72000000000000000000 PUSH1 0x20 DUP3 ADD MSTORE SWAP2 SWAP1 POP JUMP JUMPDEST PUSH1 0x4 DUP2 PUSH1 0x6 DUP2 GT ISZERO PUSH2 0x250D JUMPI PUSH2 0x250D PUSH2 0x2645 JUMP JUMPDEST SUB PUSH2 0x2543 JUMPI POP POP PUSH1 0x40 DUP1 MLOAD DUP1 DUP3 ADD SWAP1 SWAP2 MSTORE PUSH1 0x13 DUP2 MSTORE PUSH19 0x29B434B83832B2103A37902932BA30B4B632B9 PUSH1 0x69 SHL PUSH1 0x20 DUP3 ADD MSTORE SWAP2 SWAP1 POP JUMP JUMPDEST PUSH1 0x5 DUP2 PUSH1 0x6 DUP2 GT ISZERO PUSH2 0x2557 JUMPI PUSH2 0x2557 PUSH2 0x2645 JUMP JUMPDEST SUB PUSH2 0x258E JUMPI POP POP PUSH1 0x40 DUP1 MLOAD DUP1 DUP3 ADD SWAP1 SWAP2 MSTORE PUSH1 0x14 DUP2 MSTORE PUSH20 0x2932B1B2B4BB32B210313C902932BA30B4B632B9 PUSH1 0x61 SHL PUSH1 0x20 DUP3 ADD MSTORE SWAP2 SWAP1 POP JUMP JUMPDEST PUSH1 0x6 DUP2 PUSH1 0x6 DUP2 GT ISZERO PUSH2 0x25A2 JUMPI PUSH2 0x25A2 PUSH2 0x2645 JUMP JUMPDEST SUB PUSH2 0x25C9 JUMPI POP POP PUSH1 0x40 DUP1 MLOAD DUP1 DUP3 ADD SWAP1 SWAP2 MSTORE PUSH1 0x4 DUP2 MSTORE PUSH4 0x14DBDB19 PUSH1 0xE2 SHL PUSH1 0x20 DUP3 ADD MSTORE SWAP2 SWAP1 POP JUMP JUMPDEST POP POP PUSH1 0x40 DUP1 MLOAD DUP1 DUP3 ADD SWAP1 SWAP2 MSTORE PUSH1 0x7 DUP2 MSTORE PUSH7 0x2AB735B737BBB7 PUSH1 0xC9 SHL PUSH1 0x20 DUP3 ADD MSTORE SWAP2 SWAP1 POP JUMP JUMPDEST PUSH1 0x0 PUSH1 0x20 DUP3 DUP5 SUB SLT ISZERO PUSH2 0x2600 JUMPI PUSH1 0x0 DUP1 REVERT JUMPDEST POP CALLDATALOAD SWAP2 SWAP1 POP JUMP JUMPDEST DUP1 CALLDATALOAD PUSH1 0x1 PUSH1 0x1 PUSH1 0xA0 SHL SUB DUP2 AND DUP2 EQ PUSH2 0x261E JUMPI PUSH1 0x0 DUP1 REVERT JUMPDEST SWAP2 SWAP1 POP JUMP JUMPDEST PUSH1 0x0 PUSH1 0x20 DUP3 DUP5 SUB SLT ISZERO PUSH2 0x2635 JUMPI PUSH1 0x0 DUP1 REVERT JUMPDEST PUSH2 0x263E DUP3 PUSH2 0x2607 JUMP JUMPDEST SWAP4 SWAP3 POP POP POP JUMP JUMPDEST PUSH4 0x4E487B71 PUSH1 0xE0 SHL PUSH1 0x0 MSTORE PUSH1 0x21 PUSH1 0x4 MSTORE PUSH1 0x24 PUSH1 0x0 REVERT JUMPDEST PUSH1 0x7 DUP2 LT PUSH2 0x2679 JUMPI PUSH4 0x4E487B71 PUSH1 0xE0 SHL PUSH1 0x0 MSTORE PUSH1 0x21 PUSH1 0x4 MSTORE PUSH1 0x24 PUSH1 0x0 REVERT JUMPDEST SWAP1 MSTORE JUMP JUMPDEST PUSH1 0x20 DUP2 ADD PUSH2 0x268B DUP3 DUP5 PUSH2 0x265B JUMP JUMPDEST SWAP3 SWAP2 POP POP JUMP JUMPDEST PUSH1 0x0 PUSH1 0x20 DUP1 DUP4 MSTORE DUP4 MLOAD DUP1 DUP3 DUP6 ADD MSTORE PUSH1 0x0 JUMPDEST DUP2 DUP2 LT ISZERO PUSH2 0x26BE JUMPI DUP6 DUP2 ADD DUP4 ADD MLOAD DUP6 DUP3 ADD PUSH1 0x40 ADD MSTORE DUP3 ADD PUSH2 0x26A2 JUMP JUMPDEST POP PUSH1 0x0 PUSH1 0x40 DUP3 DUP7 ADD ADD MSTORE PUSH1 0x40 PUSH1 0x1F NOT PUSH1 0x1F DUP4 ADD AND DUP6 ADD ADD SWAP3 POP POP POP SWAP3 SWAP2 POP POP JUMP JUMPDEST PUSH1 0x20 DUP1 DUP3 MSTORE DUP3 MLOAD DUP3 DUP3 ADD DUP2 SWAP1 MSTORE PUSH1 0x0 SWAP2 SWAP1 DUP5 DUP3 ADD SWAP1 PUSH1 0x40 DUP6 ADD SWAP1 DUP5 JUMPDEST DUP2 DUP2 LT ISZERO PUSH2 0x2717 JUMPI DUP4 MLOAD DUP4 MSTORE SWAP3 DUP5 ADD SWAP3 SWAP2 DUP5 ADD SWAP2 PUSH1 0x1 ADD PUSH2 0x26FB JUMP JUMPDEST POP SWAP1 SWAP7 SWAP6 POP POP POP POP POP POP JUMP JUMPDEST PUSH1 0x20 DUP1 DUP3 MSTORE DUP3 MLOAD DUP3 DUP3 ADD DUP2 SWAP1 MSTORE PUSH1 0x0 SWAP2 SWAP1 DUP5 DUP3 ADD SWAP1 PUSH1 0x40 DUP6 ADD SWAP1 DUP5 JUMPDEST DUP2 DUP2 LT ISZERO PUSH2 0x2717 JUMPI DUP4 MLOAD PUSH1 0x1 PUSH1 0x1 PUSH1 0xA0 SHL SUB AND DUP4 MSTORE SWAP3 DUP5 ADD SWAP3 SWAP2 DUP5 ADD SWAP2 PUSH1 0x1 ADD PUSH2 0x273F JUMP JUMPDEST PUSH1 0x0 DUP1 PUSH1 0x40 DUP4 DUP6 SUB SLT ISZERO PUSH2 0x2777 JUMPI PUSH1 0x0 DUP1 REVERT JUMPDEST DUP3 CALLDATALOAD SWAP2 POP PUSH2 0x2787 PUSH1 0x20 DUP5 ADD PUSH2 0x2607 JUMP JUMPDEST SWAP1 POP SWAP3 POP SWAP3 SWAP1 POP JUMP JUMPDEST DUP8 DUP2 MSTORE PUSH1 0x1 PUSH1 0x1 PUSH1 0xA0 SHL SUB DUP8 DUP2 AND PUSH1 0x20 DUP4 ADD MSTORE DUP7 DUP2 AND PUSH1 0x40 DUP4 ADD MSTORE DUP6 AND PUSH1 0x60 DUP3 ADD MSTORE PUSH1 0xE0 DUP2 ADD PUSH2 0x27C3 PUSH1 0x80 DUP4 ADD DUP7 PUSH2 0x265B JUMP JUMPDEST PUSH1 0xA0 DUP3 ADD SWAP4 SWAP1 SWAP4 MSTORE PUSH1 0xC0 ADD MSTORE SWAP6 SWAP5 POP POP POP POP POP JUMP JUMPDEST DUP11 DUP2 MSTORE PUSH1 0x1 PUSH1 0x1 PUSH1 0xA0 SHL SUB DUP11 DUP2 AND PUSH1 0x20 DUP4 ADD MSTORE DUP10 DUP2 AND PUSH1 0x40 DUP4 ADD MSTORE DUP9 AND PUSH1 0x60 DUP3 ADD MSTORE PUSH2 0x140 DUP2 ADD PUSH2 0x280C PUSH1 0x80 DUP4 ADD DUP10 PUSH2 0x265B JUMP JUMPDEST PUSH1 0xA0 DUP3 ADD SWAP7 SWAP1 SWAP7 MSTORE PUSH1 0xC0 DUP2 ADD SWAP5 SWAP1 SWAP5 MSTORE PUSH1 0xE0 DUP5 ADD SWAP3 SWAP1 SWAP3 MSTORE PUSH2 0x100 DUP4 ADD MSTORE PUSH2 0x120 SWAP1 SWAP2 ADD MSTORE SWAP6 SWAP5 POP POP POP POP POP JUMP JUMPDEST PUSH1 0x20 DUP1 DUP3 MSTORE PUSH1 0x33 SWAP1 DUP3 ADD MSTORE PUSH32 0x4F6E6C792072656769737465726564206469737472696275746F72732063616E PUSH1 0x40 DUP3 ADD MSTORE PUSH19 0x1031B0B636103A3434B990333AB731BA34B7B7 PUSH1 0x69 SHL PUSH1 0x60 DUP3 ADD MSTORE PUSH1 0x80 ADD SWAP1 JUMP JUMPDEST PUSH1 0x20 DUP1 DUP3 MSTORE PUSH1 0x13 SWAP1 DUP3 ADD MSTORE PUSH19 0x125B9D985B1A59081B59591A58DA5B99481251 PUSH1 0x6A SHL PUSH1 0x40 DUP3 ADD MSTORE PUSH1 0x60 ADD SWAP1 JUMP JUMPDEST PUSH1 0x40 DUP2 ADD PUSH2 0x28C8 DUP3 DUP6 PUSH2 0x265B JUMP JUMPDEST DUP3 PUSH1 0x20 DUP4 ADD MSTORE SWAP4 SWAP3 POP POP POP JUMP JUMPDEST PUSH1 0x20 DUP1 DUP3 MSTORE PUSH1 0x34 SWAP1 DUP3 ADD MSTORE PUSH32 0x4F6E6C792072656769737465726564206D616E75666163747572657273206361 PUSH1 0x40 DUP3 ADD MSTORE PUSH20 0x371031B0B636103A3434B990333AB731BA34B7B7 PUSH1 0x61 SHL PUSH1 0x60 DUP3 ADD MSTORE PUSH1 0x80 ADD SWAP1 JUMP JUMPDEST PUSH1 0x20 DUP1 DUP3 MSTORE PUSH1 0x10 SWAP1 DUP3 ADD MSTORE PUSH16 0x139BDD081E5BDD5C881C1C9BD91D58DD PUSH1 0x82 SHL PUSH1 0x40 DUP3 ADD MSTORE PUSH1 0x60 ADD SWAP1 JUMP JUMPDEST PUSH4 0x4E487B71 PUSH1 0xE0 SHL PUSH1 0x0 MSTORE PUSH1 0x11 PUSH1 0x4 MSTORE PUSH1 0x24 PUSH1 0x0 REVERT JUMPDEST PUSH1 0x0 PUSH1 0x1 DUP3 ADD PUSH2 0x297B JUMPI PUSH2 0x297B PUSH2 0x2953 JUMP JUMPDEST POP PUSH1 0x1 ADD SWAP1 JUMP JUMPDEST PUSH1 0x20 DUP1 DUP3 MSTORE PUSH1 0x21 SWAP1 DUP3 ADD MSTORE PUSH32 0x4F6E6C79206F776E65722063616E2063616C6C20746869732066756E6374696F PUSH1 0x40 DUP3 ADD MSTORE PUSH1 0x37 PUSH1 0xF9 SHL PUSH1 0x60 DUP3 ADD MSTORE PUSH1 0x80 ADD SWAP1 JUMP JUMPDEST PUSH1 0x20 DUP1 DUP3 MSTORE PUSH1 0xF SWAP1 DUP3 ADD MSTORE PUSH15 0x496E76616C69642061646472657373 PUSH1 0x88 SHL PUSH1 0x40 DUP3 ADD MSTORE PUSH1 0x60 ADD SWAP1 JUMP JUMPDEST PUSH1 0x20 DUP1 DUP3 MSTORE PUSH1 0x21 SWAP1 DUP3 ADD MSTORE PUSH32 0x4164647265737320697320616C72656164792061204D616E7566616374757265 PUSH1 0x40 DUP3 ADD MSTORE PUSH1 0x39 PUSH1 0xF9 SHL PUSH1 0x60 DUP3 ADD MSTORE PUSH1 0x80 ADD SWAP1 JUMP JUMPDEST PUSH4 0x4E487B71 PUSH1 0xE0 SHL PUSH1 0x0 MSTORE PUSH1 0x41 PUSH1 0x4 MSTORE PUSH1 0x24 PUSH1 0x0 REVERT JUMPDEST PUSH4 0x4E487B71 PUSH1 0xE0 SHL PUSH1 0x0 MSTORE PUSH1 0x32 PUSH1 0x4 MSTORE PUSH1 0x24 PUSH1 0x0 REVERT JUMPDEST DUP2 DUP2 SUB DUP2 DUP2 GT ISZERO PUSH2 0x268B JUMPI PUSH2 0x268B PUSH2 0x2953 JUMP JUMPDEST PUSH1 0x20 DUP1 DUP3 MSTORE PUSH1 0x30 SWAP1 DUP3 ADD MSTORE PUSH32 0x4F6E6C7920726567697374657265642072657461696C6572732063616E206361 PUSH1 0x40 DUP3 ADD MSTORE PUSH16 0x3636103A3434B990333AB731BA34B7B7 PUSH1 0x81 SHL PUSH1 0x60 DUP3 ADD MSTORE PUSH1 0x80 ADD SWAP1 JUMP INVALID 0xD3 POP PUSH26 0xBD9F0D87556B38C1165117CCD975A6B3C2DD3C85342D8C02343B 0xDE SAR SWAP16 LOG2 PUSH5 0x6970667358 0x22 SLT KECCAK256 GASLIMIT PUSH24 0x28AB2E83723E9CDD03A02021E8C5DC988D2CE9D86960FD75 BLOCKHASH 0xA9 LOG0 0xB5 NOT MUL PUSH5 0x736F6C6343 STOP ADDMOD SGT STOP CALLER "},"methodIdentifiers":{"DIS(uint256)":"2b0187ac","MAN(uint256)":"cc403069","MedicineStock(uint256)":"eb1a06b5","Owner()":"b4a99a4e","RET(uint256)":"59bf286f","addDistributor(address)":"7250e224","addManufacturer(address)":"5f8a5afa","addMedicine()":"51542bd4","addRetailer(address)":"8ec4f505","disAddressToId(address)":"ed0b6d9c","disCtr()":"2bdb2e6b","getAllDistributors()":"8e24c34b","getAllRetailers()":"d889a848","getDistributorCount()":"f6edf18c","getManufacturerCount()":"a9416c9e","getMedicine(uint256)":"a6742265","getMedicineCount()":"eadeb84c","getMedicinesByDistributor(address)":"c934bc82","getMedicinesByManufacturer(address)":"a9c58434","getMedicinesByRetailer(address)":"7a3b970b","getPendingForDistributor(address)":"9a1e339e","getPendingForRetailer(address)":"b6a3ead6","getRetailerCount()":"994cac90","getRole(address)":"44276733","getStage(uint256)":"2e325020","isDistributor(address)":"8f0c86fa","isManufacturer(address)":"17d4a491","isOwner(address)":"2f54bf6e","isRetailer(address)":"5da09b88","manAddressToId(address)":"221aa352","manCtr()":"438e9c4d","medicineCtr()":"a95f29d9","packMedicine(uint256)":"3b7e1e86","receiveByDistributor(uint256)":"02d82c55","receiveByRetailer(uint256)":"baf6430d","retAddressToId(address)":"f5e967f8","retCtr()":"7e43d94d","sellMedicine(uint256)":"8f001323","shipToDistributor(uint256,address)":"91341f90","shipToRetailer(uint256,address)":"acb9b2dd","showStage(uint256)":"e101a2e0"}}}}}